:100000000C9467030C94AE030C94AE030C94AE03F3
:100010000C94472A0C94AE030C94AE030C94AE03DC
:100020000C94AE030C94AE030C9429230C94E5229B
:100030000C9424240C94AE030C94AE030C94AE03E5
:100040000C94AE030C94AE030C94AE030C94AE036C
:100050000C94AE030C9400240C94AE030C94AE03E9
:100060000C94AE030C94AE030C94AE030C94AE034C
:100070000C94AE030C94AE030C94AE030C94AE033C
:100080000C94AE030C94AE030C94AE030C94AE032C
:100090000C94AE030C94AE030C94AE030C94AE031C
:1000A0000C94AE030C94AE030C94AE03050109024C
:1000B000A10185020901A1000509190129081500FE
:1000C0002501950875018102050109300931158165
:1000D000257F95027508810609381581257F9501D0
:1000E00075088106050C0A38021581257F95017572
:1000F000088106C0C005010980A101850319012AF4
:10010000B700150126B700950175108100C0050CD8
:100110000901A101850419012AA002150126A002E6
:10012000950175108100C00660FF0961A101096297
:10013000150026FF00952075088102096315002629
:10014000FF00952075089102C005010906A101056F
:100150000719E029E7150025019508750181029529
:1001600001750881010507190029FF150026FF0008
:100170009506750881000508190129059505750181
:100180009102950175039101C0000000000000007C
:10019000000000000000000000000000000000005F
:1001A000000000000000000000000000007E0F00C2
:1001B000D4FFFFFFC700000078000000000000002F
:1001C000002A2B28000000000000000000000000B2
:1001D0000000000029000000002C1E3420212224F1
:1001E000342627252E362D3738271E1F202122237F
:1001F0002425263333362E37381F04050607080911
:100200000A0B0C0D0E0F10111213141516171819D6
:100210001A1B1C1D2F3130232D3504050607080934
:100220000A0B0C0D0E0F10111213141516171819B6
:100230001A1B1C1D2F3130354C00047F3F1F6432C8
:1002400014643214783C1E1E140A050001010101D9
:100250000101010101020202020202020202030381
:100260000303030303030404040404040405050551
:100270000505060606060607070707070808080813
:10028000090909090A0A0A0B0B0B0C0C0C0D0D0DC0
:100290000E0E0E0F0F0F1010111111121213131456
:1002A00014151516161717181819191A1A1B1B1CCE
:1002B0001D1D1E1E1F202021222223242425262628
:1002C000272829292A2B2C2D2D2E2F30313232335D
:1002D0003435363738393A3B3C3D3E3F4041424366
:1002E0004445464748494A4C4D4E4F50515354554A
:1002F0005658595A5B5D5E5F616264656668696BFA
:100300006C6D6F7072737577787A7B7D7E80828377
:100310008587888A8C8E8F91939596989A9C9EA0BB
:10032000A2A3A5A7A9ABADAFB1B3B5B7BABCBEC0C8
:10033000C2C4C6C9CBCDCFD1D4D6D8DBDDDFE2E491
:10034000E7E9EBEEF0F3F5F8FAFDFFFFAA7F554081
:100350002223252628292A2C2D2F303233353638D2
:100360003A3B3D3E4042434547494A4C4E5051532B
:100370005557595A5C5E6062646668696B6D6F714F
:10038000737577797B7D7F81838587898A8C8E9051
:10039000929496989A9C9E9FA1A3A5A7A8AAACAE5A
:1003A000AFB1B3B4B6B8B9BBBCBEBFC1C2C3C5C69A
:1003B000C7C9CACBCCCDCED0D1D2D2D3D4D5D6D743
:1003C000D7D8D9D9DADADBDBDBDCDCDCDCDCDDDD81
:1003D000DDDDDCDCDCDCDCDBDBDBDADAD9D9D8D771
:1003E000D7D6D5D4D3D2D2D1D0CECDCCCBCAC9C713
:1003F000C6C5C3C2C1BFBEBCBBB9B8B6B4B3B1AF4A
:10040000AEACAAA8A7A5A3A19F9E9C9A98969492E9
:10041000908E8C8A89878583817F7D7B79777573C0
:10042000716F6D6B6968666462605E5C5A5957559E
:100430005351504E4C4A4947454342403E3D3B3A5A
:100440003836353332302F2D2C2A292826252322E1
:100450002900350014001A00080015001700C35CBD
:10046000E00004001600070009000A000000E20096
:100470001D001B0006001900050000000000000020
:1004800000004C422A62E34130002F0013001200AA
:100490000C0018001C00C35C347133000F000E0008
:1004A0000D000B00000031743800370036001000DA
:1004B000110000000000000000002B422C722841B7
:1004C000A8002D023A003B003C003D003E00010028
:1004D00057001E021F0220022102220200005600C5
:1004E0001E001F002000210022000000000000006C
:1004F00000000100010001004500440043004200EB
:10050000410040003F0001002E0027022602250284
:1005100024022302000001002700260025002400F9
:1005200023000000000000000000010001000100A5
:100530000100530054005F00600061005600A900F4
:10054000670055005C005D005E0057000000010080
:10055000620059005A005B008500000000000000A6
:1005600000000100010001000100390047004600C1
:1005700052004A004D00AA00650049004F0051009A
:10058000500001000000010048004E0001004D0035
:100590000100000000000000000001000100010057
:1005A00001000100175C1A5C185CF90001000100F1
:1005B000C25CC55CC75CC95CFA0001000000C35C9A
:1005C000C65CC85CCA5C01000100000000000000BD
:1005D0000000010001000100010001000100F50020
:1005E000F000F4000100010001000100F300F1003F
:1005F000F2000100000001000100FF00FE00FD000C
:1006000001000000000000000000010001000100E6
:1006100009025B00030100A0FA09040000010301C4
:100620000100092111010001224000070581030892
:10063000000A090401000203000000092111010061
:100640000122220007058203200001070503032081
:10065000000109040200010300000009211101004A
:1006600001227B000705840320000A12010002001A
:10067000000008EDFE000001000102000128034116
:10068000006E00670065006C00770069006E00670F
:1006900000730020004B006500790062006F00616C
:1006A00000720064000000200344006F00720079B3
:1006B0000061006E005F0061006E0064005F006E0C
:1006C000006D00310037000000040309040011240C
:1006D0001FBECFEFDAE0DEBFCDBF04B603FE27C0FA
:1006E0008091580390915903A0915A03B0915B03F4
:1006F0008730904BA740B04BD1F410925803109222
:10070000590310925A0310925B0314BE84B7877F7B
:1007100084BF0FB6F894A89580916000886180939B
:100720006000109260000FBEE0E0F8E3099511E070
:10073000A0E0B1E0EEE0FAE502C005900D92AE3B1C
:10074000B107D9F723E0AEEBB1E001C01D92A835A7
:10075000B207E1F70E944B240C94CE2C0C940000BD
:10076000FC01AC014C5F5F4F8FEF91E32191822739
:1007700028E030E087FF09C0880F89272150310920
:10078000C9F7E417F50791F70895880FF7CFE8ED5B
:10079000F0E080818E7F80831092E2001092DA0078
:1007A0001092E100A0EEB0E08C9181608C9380818A
:1007B0008F77808319BCA7EDB0E08C918E7F8C93EE
:1007C00080818F7E808310923D0308952091E40004
:1007D0003091E50095E6A9012091EC00822F81700F
:1007E00020FF06C08091E80080FF06C080E00895E9
:1007F0002091E80022FD1AC080914A03882389F0E5
:10080000853089F08091EB0085FD0FC02091E400D8
:100810003091E50042175307F9F29150E1F684E078
:10082000089582E0089583E0089581E00895EF92AD
:10083000FF920F931F93CF937C018B010E94E603DD
:10084000C82F811117C08091E80085FD0BC08091F1
:10085000E8008E778093E8000E94E603882399F3EE
:10086000C82F08C0F70181917F018093F1000150EA
:10087000110949F78C2FCF911F910F91FF90EF90A5
:10088000089580914C0387FF13C08091E80082FF98
:1008900006C08091E8008B778093E80004C08091C7
:1008A0004A038111F2CF089580914A038823D9F336
:1008B0008091E80080FFF8CF8091E8008E77ECCF40
:1008C000982F9093E900242F762F50E0891731F06C
:1008D0007091EC002091ED005091F00021FD07C0D7
:1008E0009F5F973071F78093E90081E00895309120
:1008F000EB003E7F3093EB003091ED003D7F309375
:10090000ED003091EB0031603093EB007093EC0020
:100910002093ED005093F0002091EE0027FDE0CFF2
:1009200080E00895CF92DF92EF92FF920F931F9392
:10093000CF93DF93C8EDD0E088818F7E8883E7ED89
:10094000F0E080818160808384E082BF81E08093D9
:100950003D0388818E7F888302EE10E0F8011082CB
:100960001092DA0081EEC82ED12CF6011082888117
:100970008F77888388818068888388818F7D88834A
:1009800019BC10924A0310924B0310924903109223
:10099000480390EEE92EF12CF70180818B7F808354
:1009A00088818160888342E060E080E00E9460048A
:1009B000F60180818E7F8083F80180818160808351
:1009C000808188608083F70180818E7F8083888129
:1009D00080618883DF91CF911F910F91FF90EF90FD
:1009E000DF90CF900895FC018091520390915303C2
:1009F00086179707A0F06115710529F49091E8001A
:100A00009E779093E80090E06115710551F4911183
:100A100008C08091E80082FF34C080E00895BC01E6
:100A2000F2CF80914A038823C1F18530C1F18091D2
:100A3000E80083FD30C08091E80082FDEACF80911C
:100A4000E80080FFE1CF8091F3002091F200382F81
:100A50006115710519F02830310558F091E0283002
:100A6000310509F090E02091E8002E772093E8000E
:100A7000CBCF81918093F100615071092F5F3F4F7F
:100A8000E7CF80914A03882341F0853041F080917F
:100A9000E80083FFBECF81E0089582E0089583E0FF
:100AA000089580913F03089587E797E790930108A1
:100AB0008093000888E19AE00FB6F894A895809397
:100AC00060000FBE90936000FFCF9C014FB7F89479
:100AD0008091360390913703A0913803B091390388
:100AE0004FBF821B930B08952FB7F8946091360384
:100AF0007091370380913803909139032FBF089587
:100B00002FB7F8948091360390913703A091380362
:100B1000B09139032FBF08959C01FC0132969FEFDD
:100B200080E04191461751F09F3F19F4411101C0F7
:100B3000982F8F5F8630A9F79F3F09F40895290FFA
:100B4000311D97FD3A95F9016283089520912F0395
:100B5000309130032817390771F090933003809358
:100B60002F03E0912D03F0912E03309721F00084A4
:100B7000F185E02D0994089520912B0330912C03E9
:100B80002817390771F090932C0380932B03E09181
:100B90002D03F0912E03309721F00680F781E02D90
:100BA00009940895FA01811101C0FB010994089587
:100BB000EEE7F2E011828281846082830895809161
:100BC0002603982F9E7F61F48170826080932603B4
:100BD00080912903833818F082E8809329030895CF
:100BE0008A34B0F381708864F1CFAF92BF92DF9204
:100BF000EF92FF920F931F93CF93DF93082F162F3F
:100C0000E901E42FF0E0E55BFD4F611110C0E491D4
:100C10005E2F4E2F4983E8835A83DF91CF911F9136
:100C20000F91FF90EF90DF90BF90AF900895E62E68
:100C3000F12C4491D42EE42FF0E026E0829FC001F5
:100C400011242FEF30E0B9010E94CF2B802F90E0CC
:100C5000880F991F55E5569FD001579FB00D11245D
:100C60008A1B9B0B982F990F890F5901AE18BF084B
:100C7000AE9ED001AF9EB00DBE9EB00D11245B2F75
:100C8000189F80011124012F11275901A01AB10AC0
:100C9000AE9E8001AF9E100DBE9E100D1124590115
:100CA000A81AB108AE9CC001AF9C900DBE9C900DDF
:100CB0001124892F9927281B390B2E9FC0012F9FA4
:100CC000900D3E9F900D1124E92F62307105A1F027
:100CD00050F46115710509F49DCF6130710581F003
:100CE000EB2F512F97CF6430710569F080F066309B
:100CF000710509F48FCFF4CFE42F4B2F592F8ACFF2
:100D0000E42F412F87CFEB2F542F492F83CF4B2F29
:100D10005D2DE12F7FCF0E9480059C019091740290
:100D200080917502982B21F030937102209370020C
:100D30009091760280917702982B21F030936F0288
:100D400020936E02E0912D03F0912E03309749F02D
:100D500082E0809372020480F581E02D82E792E0C8
:100D60000994089540917402803F59F4809175026E
:100D700087FF0DC01092750241110BC010926C02DA
:100D800008C0813F81F48091750218169CF34423BA
:100D900081F08091760290917702892B09F05AC0F8
:100DA00010926B020895823F49F447FFF0CF1092F2
:100DB0007402809175028111ECCFE0CF833F19F46A
:100DC0001416ACF3E4CF90917602893F29F41916FA
:100DD000F4F610927602DBCF8A3F19F497FFD7CF53
:100DE000F8CF909177028B3F29F497FFD0CF1092E4
:100DF0007702CDCF8C3F19F41916CCF3C8CF9CE005
:100E0000980F953090F4845F990B21E030E0B901A0
:100E100002C0660F771F8A95E2F7CB01809590910B
:100E20007302892380937302B2CF8D3F31F4809196
:100E30006D028E7F80936D02AACF8E3F21F4809148
:100E40006D028D7FF7CF8F3F09F0A1CF80916D02AA
:100E50008B7FF0CF089580916D0280FD16C081FDDB
:100E600016C082FD16C080916B028823A1F08832E3
:100E700080F428E0829FC001112468E270E00E94A3
:100E8000E32B862F672B39F0089582E0089584E0E4
:100E9000089588E0089581E0089580916D0280FDB5
:100EA00014C081FD14C082FD16C080916C0288239D
:100EB00081F0843180F422E3829FC001112464E137
:100EC00070E00E94E32B862F08958CE0089589E15D
:100ED000089585E0089582E30895803F31F40E94EB
:100EE0004D078195809375020895813F19F40E9402
:100EF0004D07F8CF823F31F40E944D0781958093D2
:100F000074020895833F19F40E944D07F8CF893F7A
:100F100029F40E942B078093760208958A3F21F4DA
:100F20000E942B078195F7CF8B3F31F40E942B074E
:100F300081958093770208958C3F19F40E942B07C6
:100F4000F8CF9CE0980F953070F4845F990B21E006
:100F500030E001C0220F8A95EAF780917302822B5C
:100F60008093730208958D3F31F480916D0281600A
:100F700080936D0208958E3F21F480916D0282600E
:100F8000F7CF8F3FB9F780916D028460F1CF80E099
:100F9000089578940895F894E82FE295EF70F0E0C2
:100FA00031A1282F2F7081E090E001C0880F2A9591
:100FB000EAF7982F9095932391A392A1892B82A36E
:100FC0000C94C9079091490292FF06C0282F2871FE
:100FD0002830F9F4877F846093FF06C0282F28719A
:100FE0002831F1F4877E846120914A0220FF06C0F7
:100FF000382F38713830D9F4877F816021FF06C0DF
:10100000282F28712831D1F4877E816194FD877E55
:101010000895282F24712430F9F68B7F8860DCCF67
:10102000282F2471243101F78B7E8861DDCF382F82
:101030003171313019F78E7F8860E0CF282F217110
:10104000213121F78E7E8861E1CFCF93DF93EC01D0
:1010500082389105A9F1D8F58133910509F496C03C
:1010600048F58932910509F48AC08A9709F495C038
:10107000C11521E5D20708F0BCC0C11530E5D30782
:1010800008F014C1C83ED10508F09CC0C03ED1058F
:1010900060F5C83AD10508F087C0C53AD10508F017
:1010A000FDC0C130D10509F12097F9F0C430D10558
:1010B000E0F440C08533910509F45AC0C997C1F6E0
:1010C00080914902837089F0C0EED0E00EC0833E6B
:1010D000910599F170F4803E910501F1823E9105F0
:1010E00039F68091490282FD21C0CE01DF91CF9176
:1010F0000895863E910561F1873E910571F1843E28
:10110000910509F0B5CF80914A0281FFEECF809121
:101110004902C7EED0E084FD0DC0E7CF80914902BF
:1011200080FD12C190914A0290FFDFCFC3EED0E064
:1011300084FFDBCFD0E0C0E0D8CF8091490282FDB0
:1011400006C190914A0290FDBFCF84FFCECFF2CF6F
:101150008091490283FDDDCFC8CF8091490283FD94
:10116000F9C090914A0291FFF0CFC4EED0E0BDCF1C
:101170008091490285FFB9CFC9E2D0E0B6CF809116
:10118000490285FFB2CFC5E3D0E0AFCF80914902DD
:1011900086FFABCFCAE2D0E0A8CF8091490286FF9C
:1011A000A4CFC1E3D0E0A1CFCF3BD10518F6C85AF8
:1011B000D0E0CC0FDD1FC65BDE4F0990D881C02D7B
:1011C000D46493CFC11540E2D40758F4C11581E02F
:1011D000D80708F08ACFC03FD10508F4ABCFD0655F
:1011E00084CFC11590E4D90708F4A4CFDF70D06A8A
:1011F0007CCFC11525E5D20700F5C11534E5D3072D
:1012000008F08AC0C11543E5D40708F071C0C115C4
:1012100082E5D80708F467C0CE018370992721E0E2
:1012200030E002C0220F331F8A95E2F7C695C695BB
:1012300080E2C89FE001112452C0C11599E5D90789
:10124000A8F4C11528E5D20708F06BC0C11536E532
:10125000D30708F06FCF8C2F0E94E207C82FD0E091
:10126000DC2FCC27CC27DF71D0623FCFC1154AE5F8
:10127000D40708F45BC0CE0190568115904208F067
:1012800059CF8D2F8F710E94E20790E0982F882709
:1012900088279F719C012C2BE901E6CFC55AD0E02D
:1012A000C95BDE4FC881D0E0D0641FCFCE01E4E03F
:1012B00096958795EA95E1F783702C2F26952695CC
:1012C000237040E2249F90011124382B8C2F8370CF
:1012D000C1E0D0E002C0CC0FDD1F8A95E2F7C22B3F
:1012E000D32BDC6802CFDC2FCC27C16FD06AFDCEB8
:1012F000CE018370992721E030E002C0220F331F16
:101300008A95E2F7C695C69590E2C99FE00111243F
:10131000C22BD32BDA68E9CEDC2FCC27C46FD06A7E
:10132000E4CEDC2FCC27C06FD06ADFCE8C2F8F703D
:101330000E94E20734E0D695C7953A95E1F7CF7061
:101340009C2FEC01D069D1CEC9E3D0E0CECEC2EE65
:10135000D0E0CBCEC6EED0E0C8CE80911B0281118A
:1013600010921B02089580911A0290911902892B04
:1013700090911802892B8093C00190911B029923B0
:1013800091F0892B8093C00120E082EC91E0FC0178
:101390003191CF0131112F5FF1E0883C9F07B9F700
:1013A00021110E94AD09E0912D03F0912E03309799
:1013B00031F00280F381E02D80EC91E009940895F2
:1013C000809116029091E501981301C008958F5FF6
:1013D0008770FACF27E0929F800D1124982F977085
:1013E00086958695869523E0829FF0011124E65329
:1013F000FE4F50E040E080E0219130E0092E02C035
:10140000369527950A94E2F721703327042E01C000
:10141000220F0A94EAF7822B4F5F5F4F433051054A
:1014200059F7089527E0929F800D1124982F977007
:1014300041E001C0440F9A95EAF786958695869516
:1014400093E0899FF0011124E653FE4F90E080E085
:1014500070E05191DF0111979B01082E02C0369573
:1014600027950A94E2F72170219525272423252723
:101470002C9301968330910561F7089590E080E008
:101480000E94BC0590E080E00E94A605109219021F
:10149000109218020E94B30986E0E2E7F2E0DF0151
:1014A0001D928A95E9F710926C0210926B021092CD
:1014B0006D020C948B06809357030C943E0A809126
:1014C0005703982F9670963019F488600C945B0A35
:1014D000877FFCCF21E030E001C0220F8A95EAF738
:1014E00020958091570382230C945B0A90911702F8
:1014F0008095892380931702282F277039F4282F8D
:10150000082E000C330B9217130621F490914A0217
:1015100092FF07C08595859585950E946A0A10926D
:101520001702089521E030E001C0220F8A95EAF702
:1015300080915703822B0C945B0A80931C020C94BD
:101540003E0A882341F0809590911A028923809366
:101550001A020C94B3090895882339F090911A0265
:10156000982B90931A020C94B30908958823F1F1F3
:101570009CEF980F913A78F4E2ECF1E028EC31E03E
:101580009191891303C0DF0111971C922E173F0719
:10159000B9F70C94B30990E2980F983088F48770EB
:1015A00021E030E0A90102C0440F551F8A95E2F7FF
:1015B000CA01809590911A02892380931A02E9CF7B
:1015C0009BE5980F933020F490E080E00C94BC05EC
:1015D00098E5980F973120F490E080E00C94A605F0
:1015E000803F20F00E94B2060C948B060895CF93A2
:1015F000C82F882309F456C08CEF8C0F813AF8F479
:10160000E2ECF1E088EC91E0DF012D91C21759F096
:101610008A179B07D1F76C2F80EC91E00E948C0514
:10162000CF910C94B3092191C21303C0DF0111972C
:101630001C928E179F07B9F70E94B309ECCF80E286
:101640008C0F883068F4C77021E030E001C0220FB1
:10165000CA95EAF780911A02822B80931A02E0CF92
:10166000EBE5EC0FE33040F4F0E0E95BFE4F808106
:1016700090E0CF910C94BC05E8E5EC0FE73150F415
:10168000F0E0EE0FFF1FE65BFE4F80819181CF916E
:101690000C94A605C03F30F08C2F0E946D07CF91AF
:1016A0000C948B06CF91089590914A03943029F5BC
:1016B00080933A0370933C0360933B039093E9005B
:1016C0008FEF9091E800815095FD06C095ED9A95B9
:1016D000F1F700008111F5CF8091E80085FF0DC082
:1016E00050E040E063E070E08AE393E00E9417047A
:1016F0008091E8008E778093E8000895BC0184E033
:101700000C94540BBC0183E00C94540B9C0184E0BA
:101710008093E9009FEF8091E800915085FD06C01D
:1017200085ED8A95F1F700009111F5CF8091E800E1
:1017300085FF0CC050E040E066E070E0C9010E9407
:1017400017048091E8008E778093E8000895CF9386
:10175000DF93EC0181E08093E9008FEF9091E80046
:10176000815095FD06C095ED9A95F1F70000811125
:10177000F5CF8091E80085FF14C050E040E068E0BC
:1017800070E0CE010E9417048091E8008E7780936C
:10179000E80088E0FE01A0E4B3E001900D928A9594
:1017A000E1F7DF91CF910895609142018091260386
:1017B00080FF20C08091410143E0849FC00111243B
:1017C0008C579D4F529A2BB12B7F3BB134605FB742
:1017D000F894FC01649FE00DF11D1124BF0168170E
:1017E0007907D1F45FBF8FE594E00197F1F700C06E
:1017F00000000895809143019091440123E0829F6D
:10180000F0011124EC57FD4F8917A0F611821082C8
:1018100012828F5F3396F8CFFC014191CF01E8E04F
:101820003BB9000000C047FF2BB9440F000000C0C7
:1018300000C000C02BB900C0EA9591F7D0CF0F933C
:101840001F93CF93DF93EC0110E000E090914501EE
:101850009017110609F06CF40E94D40B8C8190E073
:101860000196817099278C83DF91CF911F910F9101
:10187000089520914301A801420F511D9A01220FA2
:10188000331F240F351F2C573D4F4C816091280387
:101890008091270396959017110669F064F0442310
:1018A00061F040912903433808F042E80E94F505B1
:1018B0000F5F1F4FCBCF4423A1F340E0F7CF8F92B0
:1018C0009F92AF92BF92CF92DF92EF92FF920F93CF
:1018D0001F93CF93DF93EC014C81042F10E098010C
:1018E000D8010E942E2C9B01AC010E94442C4B017C
:1018F0005C01E0E2F0E0E01BF10BA5E5B0E0AC013B
:101900009B010E94442C6B017C019F01DF010E941E
:10191000262C9B01AC010E944F2C9B01AC01280D91
:10192000391D4A1D5B1DC701B6010E94F72BF22E1F
:10193000822F90E039E23F1560F143E0249F90014F
:10194000112435952795122F109500E085E5E82E96
:10195000EF1880914501081758F10E94D40B9C8123
:1019600081E0992319F0903219F48FEF80934001B0
:1019700080914001890F8C83DF91CF911F910F914E
:10198000FF90EF90DF90CF90BF90AF909F908F909F
:10199000089525E530E0B901681B790B9B01220F02
:1019A000331F260F371F37FFCCCF2F5F3F4FC9CFD5
:1019B0008E2D01FD8F2D20914301622F600F77271F
:1019C000771F9B01220F331F260F371F2C573D4FC8
:1019D000412F133808F042E8609128030E94F50572
:1019E0000F5FB7CFEF92FF920F931F93CF93DF93C9
:1019F000EC018C81811109C081E08C8310928202FC
:101A000092E090933F0180933E0180914301909139
:101A1000440123E0829FF0011124EC57FD4F891708
:101A200068F110E003E060914501161768F10E942B
:101A3000D40B80913E0120918202280F20938202D4
:101A400090913F01980F90933F01191654F4022E84
:101A5000000C330B409145014150550B24173507BD
:101A600034F0819580933E01813009F41C82DF912E
:101A7000CF911F910F91FF90EF90089511821082E6
:101A800012828F5F3396CBCFE12EF12C70E0C7012D
:101A90000E94E32B20914301820F482F50E02091B8
:101AA0008202022E000C330BE216F306D4F02091D2
:101AB0003F01022E000C330B2E153F0594F0809F42
:101AC000900111242C573D4F40912903433808F0D1
:101AD00042E860912803809127030E94F5051F5F6B
:101AE000A2CFFA01EE0FFF1FE40FF51FEC57FD4FD9
:101AF000118210821282F3CF8F929F92AF92BF9287
:101B0000CF92DF92EF92FF920F931F93CF93DF93C9
:101B1000EC018A81BB24BA9480FD02C0BB24B3943B
:101B2000A09045018C81811109C081E0B81228C0C4
:101B30008FEF8A0D8093810281E08C83F12CE12C60
:101B400046E3842EEA14F8F00E94D40B80918102BF
:101B500091E0B91262C081115BC080914501815052
:101B6000809381021C82DF91CF911F910F91FF9092
:101B7000EF90DF90CF90BF90AF909F908F9008959F
:101B800010928102D9CF009143010E0D1F2D111D1E
:101B9000C801880F991F080F191F0C571D4FF80116
:101BA00011821082128234E0C32ED12C912C8091AC
:101BB0008102890D873344F1682D0E94C12B892F42
:101BC000082E000C990B8E159F05A9F4809129030E
:101BD0008C9DA0018D9D500D1124559547955595CF
:101BE0004795433808F042E89801609128038091B6
:101BF00027030E94F5059B0CF1E0CF1AD108B9F636
:101C00008FEFE81AF80A9ECF87FFDACF8A0DD8CF78
:101C1000815080938102BC82A6CF90E001966091B2
:101C2000450170E00E94E32B809381028C839BCF5F
:101C3000EF92FF921F93CF93DF93EC0110E0EE241D
:101C4000EA94F12C60914501161770F00E94D40BB4
:101C50009A818C8190FF2AC08F5F8C83DF91CF9116
:101C60001F91FF90EF90089520914301422F410F63
:101C70005527551FCA019A01220F331F280F391FFC
:101C80002C573D4F40912903433808F042E870E05B
:101C9000C7010E94E32B962F8C8160912803199F26
:101CA000800D11240E94F5051F5FCCCF8150D5CF48
:101CB0009091260390FF14C090914301209144011C
:101CC00033E0939FF0011124EC57FD4F921710F071
:101CD0000C94D40B8183608342839F5F3396F6CF4D
:101CE00008950F931F93CF93DF9300D00F92CDB73A
:101CF000DEB78C018091830281110AC09E012F5FA3
:101D00003F4F42E86FEF0E94F5058A81809383027E
:101D1000F8016481613069F08091830240E06623BC
:101D200061F040E0623011F44091830280E060E0B5
:101D300004C06091830240E080E00E94580EF801E8
:101D4000848190E0019663E070E00E94E32B84833D
:101D50000F900F900F90DF91CF911F910F910895E9
:101D6000CF93DF9300D00F92CDB7DEB790912603CB
:101D700090FF0DC0433808F042E89E012F5F3F4FAF
:101D80000E94F5054B8169818A810E94580E0F904F
:101D90000F900F90DF91CF910895CF93DF93EC01D7
:101DA000E6E2F3E0438162818C810E94B00E8C8177
:101DB0008F5F8C83DF91CF910895CF93DF93EC01F8
:101DC000EC81F0E0E05BFC4F4491E6E2F3E06281FD
:101DD00081810E94B00E8C818F5F8C83DF91CF91C7
:101DE0000895E6E2F3E080818E7F80830E94D8052B
:101DF000EEE7F2E08281816082832FEF80E792E05C
:101E0000215080409040E1F700C000000C94D40BBA
:101E10009F92AF92BF92CF92DF92EF92FF920F9379
:101E20001F93CF93DF937C015B016A01809148028D
:101E300001E010E08A3010F40AE010E0C1E0D0E0E8
:101E4000F894B501C701F6010995982E0E94C907BB
:101E5000911004C021960C171D076CF4892DDF9199
:101E6000CF911F910F91FF90EF90DF90CF90BF9097
:101E7000AF909F900895CC9F9001CD9F300D300D75
:101E8000112490E080E045E34A95F1F700000196C7
:101E900082179307C1F7D4CF80912602811110C019
:101EA0008091D80080618093D8008AE18A95F1F70B
:101EB00000C08091D90080FF0AC081E08093260293
:101EC00081E090912602913009F080E0089582E04F
:101ED000809326020E94C70310924A03F1CF0F930A
:101EE0001F930E944C0F882321F01F910F910C9497
:101EF00074050E9474050091310310913203209102
:101F0000330330913403600F711F821F931F1F91A1
:101F10000F9108950E944C0F81110C9480050E942E
:101F20006F0FCB0108950E944C0F882351F0E09170
:101F30002D03F0912E03309721F00190F081E02DD8
:101F4000099480E008951F93CF93DF93182FD0E07A
:101F5000C0E0893311F4C0E5D0E0812F0E94F70A78
:101F6000209731F4812FDF91CF911F910C94B60A05
:101F70008FE99FE00197F1F700C000002197F0CFB3
:101F80000F931F93CF93DF93C62FD42F022FFC0103
:101F900082818823A1F0609356030E94800590936C
:101FA000550380935403C77081E001C0880FCA9520
:101FB000EAF7DF91CF911F910F910C94AC0A8091B9
:101FC0005603681335C080915403909155030E94C5
:101FD0006505883C910560F510E21D0FCD17B9F03D
:101FE00080E28C0F883040F4C77081E001C0880F18
:101FF000CA95EAF70E94A10A183048F481E09D2FA3
:10200000977001C0880F9A95EAF70E94AC0A802F5A
:102010000E94A30F183098F4D77081E001C0880F98
:10202000DA95EAF7DF91CF911F910F910C94A10AF5
:10203000C77081E001C0880FCA95EAF7F3CFDF913E
:10204000CF911F910F910895CF93DF93C7EED1E009
:1020500060E0CE010E94772C2196C11584E0D8075C
:10206000B9F7DF91CF9108956F927F928F929F92EF
:10207000AF92BF92CF92DF92EF92FF920F931F9396
:10208000CF93DF9380E5C82E84E0D82E95EAE92E21
:10209000F12CE701C057D10936011BC0F50185902D
:1020A0009490692DC8010E94772C682DC801019673
:1020B0000E94772C82E0A80EB11C0E5F1F4FC01744
:1020C000D10761F78EE0680E711C2E96CE15DF05E4
:1020D00029F08E010E5011095301E0CF7E0180E7F7
:1020E000E80EF11C80E7C80ED11C85E6E81682E0F8
:1020F000F80679F6DF91CF911F910F91FF90EF9045
:10210000DF90CF90BF90AF909F908F907F906F9017
:102110000895CF93C82F6FEF811161E283E290E0C1
:102120000E94772C6FEFC11162E184E290E00E947F
:10213000772C6FEFC11168E185E290E0CF910C94AC
:10214000772C80E00E94891060E086E290E00E9497
:10215000772C0E9434100E94241081E00C94891086
:10216000CF93C0914A02C2FB992790F9981781F04A
:1021700080FBC2F9C0934A026091490284E090E07A
:102180000E94772C6C2F82E290E0CF910C94772CF8
:10219000CF9108950F931F93CF93DF93C42FD0E077
:1021A000CC0FDD1F2EE0629FC00DD11D112430E742
:1021B000839FC00DD11D1124CE0187960E94632CF0
:1021C000082F10E0102F0027CE0188960E94632C64
:1021D0009801282BC901DF91CF911F910F9108958C
:1021E000462F843038F4783028F4673018F4672F9D
:1021F0000C94CA1090E080E00895CF92DF92FF9295
:102200000F931F93CF93DF936C010091570380913D
:102210001C02082BC7E0D0E010E0FC2EC8010C2EF9
:1022200002C0959587950A94E2F780FD0CC021972E
:10223000A0F7F12C8F2DDF91CF911F910F91FF907F
:10224000DF90CF900895B6018C2F0E94F0100E946D
:102250002508019761F3EECFCF93DF93EC010E9445
:10226000FD10BE010E94F010DF91CF910C94250863
:10227000FC01808191810E942C11292F2F70929551
:102280009F7092509E3078F4E92FF0E0E053F34DC8
:102290000C94192C803F19F020F4883E20F481E042
:1022A0000895843FE1F380E00895883EC0F3813FC4
:1022B000D1F7F5CF822F869586958695089583E28E
:1022C00090E00E94632C813289F484E290E00E94C5
:1022D000632C823159F485E290E00E94632C91E0F6
:1022E000883109F090E0892F8170089580E0FCCF5B
:1022F000CF9384E090E00E94632CC82F82E290E0AC
:102300000E94632C982F8C2FCF9108956091260303
:10231000669570E04BE050E083E391E00E94AB2CC7
:10232000892B19F481E080937F020E948A0F909399
:102330007902809378028091800284608093800289
:102340000895CF92DF92EF92FF926B017C010E9481
:10235000DF05B701A60188E090E0FF90EF90DF90E5
:10236000CF900C94892CAF92BF92CF92DF92EF92D4
:10237000FF920F931F93CF93DF9300D00F92CDB7AF
:10238000DEB7082FF62E142FE22E9091260390FF31
:102390003FC0E92FE695AE2FB0E0A757BE4F8C9116
:1023A00080937E029E7F923009F040C0433808F04F
:1023B00042E89E012F5F3F4F6F2D802F0E94F50551
:1023C0004B8169818A810E94580E80912703801376
:1023D00008C0809128038F1104C0809129038117C0
:1023E00029F080918002826080938002009327030D
:1023F000F092280310932903EE2051F060912603F8
:102400007091270380912803909129030E94A111C4
:102410000F900F900F90DF91CF911F910F91FF9030
:10242000EF90DF90CF90BF90AF900895823019F475
:1024300010912903CACF863019F400912703C5CF24
:102440008930D9F3893109F6E9518E2F8170D82E60
:10245000E695F0E0E55BFC4FA590B490C12CBB2461
:1024600060914501C61618F00E94D40BAECF2C2DFA
:1024700030E0A29EC001A39E900DB29E900D11244B
:1024800070E00E94CF2B802FD11016C0860F409194
:102490004301420F532F511D9A01220F331F240F66
:1024A000351F2C573D4F412F133808F042E86F2D50
:1024B0000E94F505C394D4CF861BE9CFE6E2F3E092
:1024C000438121E1421B08F440E021E062818181E7
:1024D0000C94B311E6E2F3E0438121E1420F08F4EA
:1024E0004FEF21E0628181810C94B311E6E2F3E0C9
:1024F000628121E1621B08F460E021E04381818177
:102500000C94B311E6E2F3E0628121E1620F08F47A
:102510006FEF21E0438181810C94B311E6E2F3E097
:10252000818121E0438162818A500C94B311E6E2FB
:10253000F3E0818121E043816281865F0C94B311D5
:1025400080912A03882319F0815080932A03609197
:1025500026037091270380912803909129030C94FE
:10256000A11180912A03833018F48F5F80932A038E
:10257000609126037091270380912803909129038D
:102580000C94A1119091260390FF3BC09170811192
:102590002EC0926090932603809180028160809388
:1025A0008002662351F06091260370912703809189
:1025B0002803909129030E94A1116091260366953A
:1025C00070E04BE050E083E391E00E94AB2C892B5C
:1025D000A9F00E94D80581E080937B0220E0409121
:1025E000290360912803809127030C94B31185324D
:1025F00010F09864CFCF880F982BCCCF0E94861113
:10260000EACF0895809126038695815009F484E2EB
:1026100061E00C94C2128091260386958F5F85320B
:1026200008F081E061E00C94C2129091260390FFC3
:1026300007C09695981720F0961710F40C940B137A
:1026400061E00C94C212E6E2F3E083E08083118241
:102650008FEF828382E883831482AEE7B2E0129622
:102660008C911297836012968C9360817181828124
:1026700093810C94A11169EE7EEF90E080E00E94BE
:10268000952C60E082E090E00E94772C60E083E08F
:1026900090E00E94772C10921C0260E084E090E0B1
:1026A0000E94772C60E082E290E00E94772C60E04C
:1026B00085E090E00E94772C60E086E090E00E9448
:1026C000772C6FEF87E090E00E94772C40E050E09D
:1026D000BA0188E090E00E94892C60E08DE090E0F3
:1026E0000E94772C40E050E0BA0188E190E00E941F
:1026F000892C60E087E190E00E94772C40E050E078
:10270000BA018CE190E00E94892C70E060E080E2E8
:1027100090E00E94952C40E050E0BA0188E190E002
:102720000E94892C80E00E9489100E94A11040E044
:1027300050E0BA018FE090E00E94892C40E050E028
:10274000BA0183E190E00C94892CCF93DF9300D001
:1027500000D0CDB7DEB740912F025091300260918A
:102760003102709132022FB7F89480913603909124
:102770003703A0913803B09139032FBF841B950B09
:10278000A60BB70B84369105A105B10568F10E942F
:102790006F0F6E5F7F4F8F4F9F4F69837A838B835D
:1027A0009C8380911701909118018D5C9D4F409101
:1027B000160150E04530510510F044E050E0BE01F4
:1027C0006F5F7F4F0E94C52C82E090E00E940D2B2E
:1027D000892B61F40E94740560932F02709330027C
:1027E000809331029093320281E001C080E00F902B
:1027F0000F900F900F90DF91CF910895CF93DF93BB
:10280000CDB7DEB728970FB6F894DEBF0FBECDBFA9
:1028100085E0E6E2F3E0DE01119601900D928A95E3
:10282000E1F780917E0290917F02A09180028E83D9
:102830009F83A8872885409144025091450260916A
:102840004602709147023FB7F89480913603909109
:102850003703A0913803B09139033FBF841B950B18
:10286000A60BB70B84369105A105B10510F4222300
:1028700019F180912101909122018D5C9D4F409131
:10288000200150E04930510510F048E050E0BE0111
:102890006F5F7F4F0E94C52C83E090E00E940D2B5C
:1028A000892BB1F40E947405609344027093450231
:1028B00080934602909347021092800281E028960E
:1028C0000FB6F894DEBF0FBECDBFDF91CF91089554
:1028D00080E0F5CF0F931F93CF93DF9300D000D00C
:1028E0000F92CDB7DEB78B0190E080E00E940D2BF8
:1028F000892B09F085C04091050150E04115510533
:1029000011F041E050E060910601709107016D5CAB
:102910007D4FCE0105960E94C52C40912B0250910F
:102920002C0260912D0270912E022FB7F8948091A5
:10293000360390913703A0913803B09139032FBF2C
:10294000841B950BA60BB70B84369105A105B10529
:1029500040F484E392E00E94B0039D81891709F45A
:102960005FC081E090E00E940D2B892BC1F080E0D8
:1029700040912702509128026091290270912A0209
:10298000F80140835183628373830F900F900F90FF
:102990000F900F90DF91CF911F910F91089540916B
:1029A0000F0150E04530510510F044E050E06091D7
:1029B0001001709111016D5C7D4FCE0101960E9456
:1029C000C52C84E392E00E94B0039D818913CFCF90
:1029D0000E94740560932B0270932C0280932D0249
:1029E00090932E0289819A81AB81BC8180932702CA
:1029F00090932802A0932902B0932A0281E0B8CFD5
:102A000080E040913402509135026091360270911D
:102A1000370249835A836B837C838111E3CFA8CF2C
:102A200081E0EFCF9F92AF92BF92CF92DF92EF9271
:102A3000FF920F931F93CF93DF93CDB7DEB72C9701
:102A40000FB6F894DEBF0FBECDBF8E010F5F1F4FD4
:102A500088E0F80111928A95E9F78AE7C82E81E0AB
:102A6000D82EF12CE12CAA24A394B12CF60181914B
:102A70006F018F3F09F44AC0F894E82FE295EF7098
:102A8000F0E021A18F70A50102C0440F551F8A9567
:102A9000E2F7CA01922F982B91A392A180958923E6
:102AA00082A30E94C90700C0E2E8F1E030E020E024
:102AB000912C41914F3F09F470C0A42FA295AF70A3
:102AC000B0E090968C9190E04F7002C095958795FC
:102AD0004A95E2F780FD61C08A2D022E01C0880F61
:102AE0000A94EAF7982A2F5F3F4F2730310509F7FC
:102AF000F601319780818F3F11F00E94CB0750EA99
:102B00005A95F1F7F801EE0DFF1D90828FEFE81A4C
:102B1000F80AE4E0EE16F10409F0A8CF48E050E02E
:102B2000B8018BE492E00E94B82C7C01892B41F023
:102B300088E0F801ABE4B2E001900D928A95E1F7EC
:102B400010915402E114F10451F181E080931F02CD
:102B50000E94800590931E0280931D0280911D02A9
:102B600090911E020E946505059790F0E12FF0E01C
:102B7000ED59FD4F80914B02808380914C028183FF
:102B800080914D02828380914E02838310921F02B6
:102B9000EF2849F081E090E059C080E0A3CF809118
:102BA0001F028111DBCF0E944C0FF82EE0915402DE
:102BB000882309F482C019861A861B861C860E2F6C
:102BC00010E00D591D4F809148028A3008F050C026
:102BD0004AE654E1BE01675F7F4FC8010E94080FBB
:102BE000882309F459C045EA53E1BE01675F7F4F6E
:102BF000C8010E94080F882309F44EC04EEF53E12C
:102C0000BE01675F7F4FC8010E94080F882309F447
:102C100043C010924802A0915302B0E0AD59BD4F9D
:102C2000BE01675F7F4F9E01235F3F4F80E04D9164
:102C3000FB019191BF01491731F0AD01415051099C
:102C4000FA0190838F2D6217730789F72C960FB6C0
:102C5000F894DEBF0FBECDBFDF91CF911F910F91D2
:102C6000FF90EF90DF90CF90BF90AF909F9008952E
:102C700080912002909121020E946505843F91403D
:102C800008F0A6CFE0915302F0E0ED59FD4F10821D
:102C90001182128213827ECF809148028F3F31F0E1
:102CA0008F5F809348028A3008F4B5CF0E94800578
:102CB0009093210280932002E5CFF0E0ED59FD4F83
:102CC000F89484E0A4E3B2E001900D928A95E1F7D4
:102CD00084E392E00E94B003809333020E94C9070C
:102CE000F894C0903802D0903902E0903A02F09007
:102CF0003B028091220290912302A0912402B09184
:102D00002502C816D906EA06FB06D1F0C0922202B7
:102D1000D0922302E0922402F09225020E944C0FEE
:102D200081110EC00E947405C61AD70AE80AF90A72
:102D3000C0923103D0923203E0923303F092340315
:102D40000E94C907F89480914302882379F180FF9B
:102D50000DC080913C0280FF2DC0909126039160B0
:102D60009093260360E086950E94C21280914302F0
:102D700081FF09C020E040913F0260913E028091B6
:102D80003D020E94B3118091430282FF06C08091F0
:102D90004202882391F00E9486118091430283FFB2
:102DA00003C081E080937B02109243020E94C90716
:102DB00080E04CCF0E94F10ED9CF0E94D805EDCF14
:102DC00090E080E00E94712C893E9E4F11F40C949B
:102DD0005F1180E0089510921A02E2ECF1E086E0C3
:102DE000DF011D928A95E9F70C943E0A1F93CF9359
:102DF000DF93CDB7DEB7AA970FB6F894DEBF0FBE4C
:102E0000CDBF8CE493E02091F100DC012D93CD0146
:102E1000B3E084359B07B9F780914D03833009F403
:102E200071C0B8F4813009F448C0823009F4B2C0EE
:102E30008091E80083FF3AC180914C0390914D034B
:102E40009A3008F033C1E92FF0E0E252F34D0C94D0
:102E5000192C8A3009F48DC08B3009F470C0893088
:102E600039F780914C03813219F78091500390918A
:102E70005103009711F00297D9F68091E800877FFF
:102E80008093E8008091E80082FF37C09091F300C2
:102E90008091F200029729F48091F1008B7F8130BC
:102EA00021F48091F10080933F038091E8008B77BB
:102EB0008093E8000E944104BBCF80914C03813A8B
:102EC00009F0B6CF8091E800877F8093E800809179
:102ED000500390915103892B61F468E080E493E002
:102EE00070E00E94F3048091E8008B778093E80003
:102EF0009FCF60E090E080E0F3CF80914A038111A2
:102F0000C1CF96CF80914C03813A09F091CF809147
:102F1000500390915103892B09F08ACF8091E800EA
:102F2000877F8093E8008091E80080FFFCCF80914C
:102F300046018093F1008091E8008E77B9CF8091AF
:102F40004C03813209F074CF80915003909151036A
:102F5000892B09F06DCF8091E800877F8093E8008E
:102F60000E94410480914E03809346010E94EB161B
:102F70005FCF80914C03813209F05ACF8091E800F5
:102F8000877F8093E8000E94410480914F038093E3
:102F90003E034ECF80914C03813A09F049CF809196
:102FA000E800877F8093E8008091E80080FFFCCFF5
:102FB00080913E03BECF803899F0823809F076C008
:102FC000809150038F70873008F070C08093E900C3
:102FD0008091EB0085FB882780F91092E90006C0FC
:102FE0008091480390914903911182609091E8008B
:102FF000977F9093E8008093F1001092F100809108
:10300000E8008E77B5C1882309F4A2C1823009F0A7
:103010004DC080914E038111A6C1809150038F70E5
:103020002FEF280F263008F041C08093E90020914F
:10303000EB0020FF98C1933031F48091EB00806267
:103040008093EB0090C19091EB0090619093EB0026
:1030500021E030E001C0220F8A95EAF72093EA00D0
:103060001092EA008091EB008860EACF81111EC0C7
:1030700010914E031F778091E3008078812B80931D
:10308000E3008091E800877F8093E8000E9441047C
:103090008091E80080FFFCCF8091E30080688093FE
:1030A000E30082E0111183E080934A038091E800FD
:1030B00083FF0AC08091E800877F8093E8008091B9
:1030C000EB0080628093EB00AA960FB6F894DEBF07
:1030D0000FBECDBFDF91CF911F91089580588230F0
:1030E00028F720914E0330914F032C3DE3E03E073B
:1030F000A1F583E08A838AE289834FB7F894DE01E1
:10310000139620E03EE051E2E32FF0E050935700A9
:10311000E49120FF03C0E295EF703F5FEF708E2FC8
:1031200090E0EA30C0F0C7968D939D932F5F2431D5
:1031300059F74FBF8091E800877F8093E8006AE2EB
:1031400070E0CE0101960E94F3048091E8008B7735
:103150008093E800ABCFC096E7CF80915003909169
:103160005103432F55274330510509F44AC078F5E0
:103170004130510509F47AC08BE590E0E0E1F6E0DA
:103180004230510509F092CF2091E800277F20932B
:10319000E80020915203309153038217930708F4FB
:1031A0009C0140E02115310509F065C0411163C063
:1031B0008091E80082FDC9CF80914A03882329F2DB
:1031C000853019F28091E80083FFF2CFBECF413203
:1031D000510509F43CC04232510509F067CF8330F4
:1031E000910508F063CFFC01EE0FFF1FEF54FE4F77
:1031F0000190F081E02D82559E4FDC018C9190E092
:103200001AC0332721303105D1F02115310561F085
:103210002230310509F04ACFEDE7F6E0E4918E2F38
:1032200090E0EDE7F6E007C0E9ECF6E0E4918E2FE0
:1032300090E0E9ECF6E0009709F438CFA5CFE7EA93
:10324000F6E0E4918E2F90E0E7EAF6E0F4CF8330E9
:10325000910508F02BCF880F991FFC01E954FE4F10
:103260000190F081E02D89E090E08ECF82E190E046
:10327000EBE6F6E089CF80914A03882309F465CF15
:10328000853009F462CF8091E80083FD5ECF8091A4
:10329000E80082FD8DCF8091E80080FF83CF909180
:1032A000F3008091F2002115310519F08830910565
:1032B00050F041E0089709F040E08091E8008E77F7
:1032C0008093E8006FCF44914093F10031962150F4
:1032D00031090196E8CF803809F0E8CE8091E80006
:1032E000877F8093E80080914B038093F10087CE25
:1032F0008111DCCE10914E03123008F0D7CE8091B0
:10330000E800877F8093E80010934B030E944104FC
:10331000112311F084E005C08091E30087FDFACF0E
:1033200081E080934A0342E061EC81E00E94600406
:1033300042E261EC84E00E94600442E261EC82E0DF
:103340000E94600442E260EC83E00E946004AECE22
:1033500080914E03813009F0A9CE81E0933009F0CD
:1033600080E0809349031092E9008091E800877F14
:103370008093E8000E94410499CE3F924F925F9261
:103380006F927F928F929F92AF92BF92CF92DF9275
:10339000EF92FF920F931F93CF93DF9300D000D053
:1033A0000F92CDB7DEB78C01FC0183819481892B0C
:1033B00031F08081918189238F3F09F053C50F90AF
:1033C0000F900F900F900F90DF91CF911F910F9161
:1033D000FF90EF90DF90CF90BF90AF909F908F9035
:1033E0007F906F905F904F903F9008950E94FD10E6
:1033F000F82E682F89819A810E94120A69817A8148
:103400008F2D0E94F0107C01F8018281882309F43D
:103410001CC5970122513F452031310508F0E8C411
:103420008FEF93E00E94632CFEEEEF0E57EE852E99
:1034300099249394882381F180911702877009F46D
:10344000BECFF8018281882309F4B9CF82E00F90C2
:103450000F900F900F900F90DF91CF911F910F91D0
:10346000FF90EF90DF90CF90BF90AF909F908F90A4
:103470007F906F905F904F903F900C94760A8114EC
:1034800024E09206C9F2C4010E94632C811101C09C
:10349000EA943FEF831A930AE110F1CF1C821B825A
:1034A000442443944AE0342E74018FEFE81AF80A5A
:1034B000C4010E94632C89831A82882309F4BCCF3B
:1034C0009FEF980F933000F58A83498292E0890E2E
:1034D000911CC7010E94632C8B83882309F4ACCF15
:1034E000FE0131967F01F70120812223E9F221308C
:1034F00009F049C091818281913041F4F2E0EF0EF0
:10350000F11C0E94A30F09C04701EACF923049F491
:1035100022E0E20EF11C0E94F70A3FEFE31AF30AE1
:10352000E2CF933031F432E0E30EF11C0E94B60A90
:10353000F4CF943021F08FEFE81AF80AEECF92E042
:10354000E90EF11C30E020E0B7016F5F7F4FF7011B
:1035500041818053990B8A30910550F021503109F7
:10356000E0F28FE99FE00197F1F700C00000F6CF8D
:10357000329EF001339EF00D11249C012E0F3F1F4F
:10358000842F7B01E1CFE22FF0E0E754FE4F54900F
:10359000822F86958695869590E0FC01E755FE4F33
:1035A00064902770712C022E02C0759467940A945F
:1035B000E2F7E1E06E227724FC01E756FE4FA4908B
:1035C000B12C022E02C0B594A7940A94E2F7F1E060
:1035D000AF22BB24FC01E757FE4FC490D12C02C0A0
:1035E000D594C7942A95E2F721E0C222DD24611424
:1035F000710419F081EE0E94F70AA114B10419F0C8
:1036000086EE0E94F70A852D0E94A30FAB2819F0C1
:1036100086EE0E94B60A672819F081EE0E94B60A6B
:10362000CD2809F47ACF8CE26CCF81E00E94920A17
:103630000E945F0A01CF81E00E946A0AF9CF82E00E
:10364000F5CF95EFE9169CE5F90609F46AC008F490
:1036500064C027E245EE66EEF6EFEF16FCE5FF06E6
:1036600009F4EFC3882309F40EC41092560323E033
:10367000E2162DE5F20608F05BC03AEFE3163CE5F2
:10368000F30630F4C70182509C45449708F056C0B9
:103690000E94781190934A028093490290E1E916C2
:1036A0009CE5F90609F433C108F0A5C0F8E0EF166F
:1036B000FCE5FF0609F41DC108F06EC034E0E31616
:1036C0003CE5F30609F407C108F050C092E0E916A2
:1036D0009CE5F90609F4F9C0809149028260E3E0B3
:1036E000EE16ECE5FE0609F4F3C060914902F09095
:1036F0004A0284E090E00E94772C6F2D82E290E0F5
:103700000E94772C0E94EB1697CE27E245EE65EEDD
:1037100098C326E241EE60EE94C327E245EE64EEE4
:1037200090C326E241EE62EE8CC328E241E0EFCF87
:1037300081E6E8168DE5F80609F4AACFF6E1EF1662
:10374000FCE5FF0609F0B8C380911A028A7A91E07D
:1037500009F490E09093C90169E2811165E380EC7E
:1037600091E00E948C050E94B30966CE80914902C7
:103770008061F6E0EF16FCE5FF0609F4A9C0809130
:103780004902886027E0E2162CE5F20608F4A0C0A2
:103790008091490280629CC0809149028D7F3CE00B
:1037A000E3163CE5F30609F493C078F480914902EE
:1037B0008C609AE0E9169CE5F90609F489C008F4E2
:1037C0009CC0809149028E7F83C080914902877F8F
:1037D000FEE0EF16FCE5FF0609F47AC0809149028D
:1037E0008B7F2FE0E2162CE5F20608F471C0809181
:1037F00049028F7E6DC03CEFE3163CE5F30609F409
:1038000082C0A0F594E1E9169CE5F90609F493C09D
:1038100098F4F2E1EF16FCE5FF0609F47CC0809114
:1038200049028F7B23E1E2162CE5F20608F450C032
:1038300080914902837F4CC03AEFE3163CE5F306E2
:1038400009F44DC008F051C095E1E9169CE5F90670
:1038500009F04BCF8091490282FB992790F921E032
:10386000922790FB82F990FB83F932C0E114EDE5D9
:10387000FE0609F456C0A0F480914A0283602EEF40
:10388000E2162CE5F20671F180914A028D7F3FEF3E
:10389000E3163CE5F30630F180914A028C7F22C0AA
:1038A00082E0E8168DE5F80609F454C008F44CC02F
:1038B000E1E6EE16EDE5FE0609F017CF909149021C
:1038C000892F8F7E94FF806103C0809149028160BF
:1038D000809349020ACF809149028460F9CF809198
:1038E0004A02816080934A0200CF80914A0282603E
:1038F000F9CF809149028064EBCF0E94EB16809152
:1039000049028068E5CF80914A028E7FEBCF80919B
:1039100049028F7DDDCF0E94EB16809149028F779F
:10392000D7CF80914A02982F909591708E7F892BE6
:1039300090FB81F9D7CF0E94EB1690914902892F15
:1039400097FB87F98058C4CF61E08EE090E00E9439
:10395000772CCBCE60E0F9CF85E3A0C28160809365
:10396000260361E086950E94C21266CD42E053E1D3
:103970006BE073E10E94D2055FCD4BE053E162E062
:1039800073E1F8CF47E952E16EE872E1F3CF46E721
:1039900052E162E872E1EECF4EE552E16AE672E191
:1039A000E9CF4AE652E16EE572E1E4CF41EB52E144
:1039B00060EA72E1DFCF61E081E0D5CF65E082E0CF
:1039C0000E94151339CD68E086E0FACF64E18FE0FC
:1039D000F7CF67E185E1F4CF62E289E1F1CF61E001
:1039E00083E2C1CF0E94EB169FEFE4E3FCE091502D
:1039F000E040F040E1F700C000000E94540581E083
:103A000081C280E07FC2C7010E94EA09D82E8BC222
:103A10002F2D2F70C22E8F2D807F19F0C29490EF22
:103A2000C922DD20C9F0CC2069F080E28E0D8830FB
:103A300010F081100BC080911A02C82AC0921A029D
:103A40000E94B3098E2D0E94F70A19C080911902B5
:103A5000C82AC0921902F4CF8E2D0E94B60ACC203B
:103A600071F0C09480E28E0D883010F081103DC05E
:103A700080911A02C822C0921A020E94B309292D0D
:103A80002850330B2430310510F40E94930FAA20E4
:103A900009F495CC8091170280FD91CCF801128237
:103AA0008595859585950E94920AC8010E94BD1949
:103AB000809117028595859585950F900F900F90B1
:103AC0000F900F90DF91CF911F910F91FF90EF908A
:103AD000DF90CF90BF90AF909F908F907F906F902E
:103AE0005F904F903F900C946A0A80911902C8220F
:103AF000C0921902C2CF3F2D3F70B32E8F2D807F11
:103B0000803219F0B29480EFB822882071F081E001
:103B1000881681F1DD20D9F1CC2091F1F801858161
:103B200080FF90CF8F7085832BC0DD20B1F0909106
:103B30001B028B2D892BC11003C00E94AC0A9FCFA2
:103B4000E1E0CE12FACF20914A0222FD98CF9817D9
:103B500009F495CF80931B0292CFC11006C00E943A
:103B6000AD098B2D0E94A10A8ACFF1E0CF1609F48E
:103B700086CFF5CFDD2031F025E02C1508F47FCF7E
:103B80008B2DDBCF34E03C1508F479CFEACFCC2085
:103B900041F3F9E38F1209C02FEF37EE83E0215094
:103BA00030408040E1F700C000008E2D0E94B60A30
:103BB00066CF8F2D86958695837061F0813009F0F0
:103BC0005ECFC7019370D11002C090E080E00E94E8
:103BD000A60555CFC7019370D11002C090E080E0D8
:103BE0000E94BC054CCF8E2DDD2029F00E946D0770
:103BF0000E948B0644CF0E94B206FACF8F2D8370AD
:103C000091F5D1103CCF4E2D429546954770440F0B
:103C1000440F8E2D8F70042E01C0880F0A94EAF78E
:103C20002E2D2071E4FE07C02FE030E001C0220FEE
:103C30004A95EAF720953F2D369536953370323008
:103C400069F050F440911C02313029F0822B84231A
:103C50000E949D0A14CF842B822BFACF282B8091AF
:103C60001C028227F5CF8695DD2011F08F2D817003
:103C7000882309F404CF4E2D429546954770440F92
:103C8000440F8E2D8F70042E01C0880F0A94EAF71E
:103C90002E2D2071E4FE07C02FE030E001C0220F7E
:103CA0004A95EAF720953F2D369536953370323098
:103CB00069F050F440915703313029F0822B84236E
:103CC0000E945B0ADCCE842B822BFACF282B8091BA
:103CD00057038227F5CF9F2D9F70F92EDD2029F005
:103CE000892F0E94920A8E2D28CF8E2D0E94A10A24
:103CF0008F2D0E946A0AC3CE8E2DE2EF8E1609F434
:103D00004BC0E81570F0F0EF8F1639F121EF8216F5
:103D1000D9F1DD2009F45CC0C11094CE8F2D8F71D4
:103D200038C033EF8316E9F194EF8912F2CFDD202A
:103D300009F443C02F2D2F71F22E822F0E94920A78
:103D400080914A0282FD07C038E0F39EC001112431
:103D50008360809317028F2D1CC0DD2081F0E4E08A
:103D6000EC1508F48CCE2F2D2F7181E090E001C06E
:103D7000880F2A95EAF7909157038927A1CFF5E09C
:103D8000FC1508F47CCEEFCF8F2D8F71DD2009F468
:103D9000B0CF0E94920A73CE8F2D8F71DD20C9F3B0
:103DA000A8CF80E0DD2009F48BCF9F2D9F7181E0AB
:103DB00001C0880F9A95EAF783CF81E00E94760AC6
:103DC00081E08C1508F05BCE82E00E94760A57CE27
:103DD000CC2059F0893309F0E8CE9FEFE7EEF3E00D
:103DE0009150E040F040E1F7DECE8F2D8F7181CF12
:103DF000F0E1EF16FFE5FF0609F417CC21E1E2162A
:103E00002FE5F20609F41BCC93EFE9169CE5F906C1
:103E100009F47FCC08F015CCF8EDEF16FCE5FF06B1
:103E200009F473CC29EDE2162CE5F20609F47DCCF9
:103E300037EDE3163CE5F30609F014CC26E241EE3B
:103E400061EEC8010E94C00FF7CA30E1E3163FE5FA
:103E5000F30609F4F0CB91E1E9169FE5F906A1F626
:103E600082E0EACB85E0DE01119601900D928A9501
:103E7000E1F7F801228189819A812111B7CA0E9454
:103E8000EA09F82EBBCAF6E1EF16FCE5FF0609F0D9
:103E90007FC08091C90181115FCD89E2E2ECF1E040
:103EA00028EC31E09191891303C0DF0111971C9236
:103EB0002E173F07B9F757CC2AE5E2162DE5F20693
:103EC00009F49DCD68F4E1148CE5F80609F48ACD77
:103ED0009EEDE9169CE5F906B9F40E943B13ACCAC5
:103EE000EBE5EE16EDE5FE0609F48BCDFCE5EF16ED
:103EF000FDE5FF0649F480914A0282FB882780F99C
:103F000091E089270E94B010F8018281E080F18061
:103F1000882309F478CDC7010E94FD10D82E682FA0
:103F2000C7010E94120AB7018D2D0E94F0100E9455
:103F300025087C01882EF801D280C580C2943FE01C
:103F4000C322809117028770A1F0AD2CDD2091F083
:103F50008F2D807F803421F080E28E0D883048F0F4
:103F600082E00E94760A809117028770AA24A394A7
:103F70008111A12C9F2C92942FE09222FBE0F91545
:103F800008F47DCDE92DF0E0E851F34D0C94192CA7
:103F900080911A0282722CECE2162CE5F20609F4EA
:103FA00005CD08F073C096ECE9169CE5F90609F416
:103FB000E9CC08F042C0F3ECEF16FCE5FF0609F48B
:103FC000D5CC50F532ECE3163CE5F30609F09CCF76
:103FD0008091260380FFC2CC8E7F80932603609160
:103FE00026037091270380912803909129030E9452
:103FF000A1110E94D8058091800281608093800287
:104000002FEF30E782E0215030408040E1F700C0E0
:1040100000000E94D40B10CA94ECE9169CE5F90646
:1040200009F4ABCC4EE852E167E972E1E5ECEE163B
:10403000ECE5FE0609F49ECC67CFF9ECEF16FCE543
:10404000FF0609F4A9CC88F437ECE3163CE5F30647
:1040500009F49DCC42E852E166E772E198ECE9167A
:104060009CE5F90609F486CC4FCFEAECEE16ECE5B8
:10407000FE0609F496CC40EA52E161EB72E1FBECFA
:10408000EF16FCE5FF0609F475CC3ECF21EDE216F4
:104090002CE5F20609F49ACCB8F48EECE8168CE51F
:1040A000F80609F48BCC08F486CCEFECEE16ECE5C0
:1040B000FE0609F488CC6EE089E0F0EDEF16FCE531
:1040C000FF0609F47DCC20CF24EDE2162CE5F206A4
:1040D00009F482CC78F482EDE8168CE5F80609F450
:1040E00078CC61E088E193EDE9169CE5F90609F4E6
:1040F0003ACC0ACFE5EDEE16ECE5FE0609F46FCCFE
:10410000FDE5EF16FF0609F497C9FECE1F93CF9386
:10411000DF938091E401807FA9F48091E1018823FD
:1041200089F080911602D091E5016091DF017091D4
:10413000E001A091E201B091E301C62FC72316E090
:10414000D81304C0DF91CF911F91089590E010978C
:1041500011F0CF3F19F401968770F2CF189F9001AC
:10416000199F300D1124F901EA51FE4F4181471387
:10417000F2CF40814613EFCF42814111ECCF438112
:1041800054814A1B5B0B483C510528F78091E401A0
:104190008F7080618093E401F901E551FE4F8081C9
:1041A0008F70806180838FED91E00E94BD19DF9157
:1041B000CF911F910C94E009AF92BF92CF92DF9202
:1041C000EF92FF920F931F93CF93DF93CDB7DEB79C
:1041D00061970FB6F894DEBF0FBECDBF8C0185E0AE
:1041E000F801DE011D9601900D928A95E1F7F80124
:1041F000E2808FEDA82E81E0B82E6091E2017091EF
:10420000E3016115710509F432C19091DF0140911C
:10421000E001892F84238F3F09F429C12081318156
:10422000C380D480F090E101F601E61BF70BFF207C
:1042300009F4E8C08091E401582F507FE83CF10573
:1042400008F0ABC0511177C0FE2C431321C092136C
:104250001FC0E1101DC08F7080618093E401C50113
:104260000E94BD198091E401F80185838F2D61962C
:104270000FB6F894DEBF0FBECDBFDF91CF911F9177
:104280000F91FF90EF90DF90CF90BF90AF90089587
:10429000CD2829F0822F83238F3F09F003C180E0CE
:1042A000F82FF170DF2E80FF3CC080911602409104
:1042B000E50156E0841315C02D873E878D859E85C8
:1042C0000E942C11292F22952F702230F0F02430DB
:1042D00018F59F70F1F0F8019581907FD1F4D12C01
:1042E0001EC090E0589FF001599FF00D1124EA5133
:1042F000FE4F6181361306C06081261303C06281C0
:10430000E6120FC001968770D5CF9F7011F08823F9
:1043100031F3805E883018F3C8010E94BD19FD2C6E
:10432000A5CFEE2009F4A2CF8091E40181608093B3
:10433000E401F12C9BCF431306C0921304C0F80193
:10434000EE2009F479C0C8010E943811882309F1D0
:10435000EE20F9F08091E401803270F02091DF01CD
:104360003091E00138872F831986DB86CA868C87D7
:10437000CE0107960E94BD1986E0F801AFEDB1E0CD
:1043800001900D928A95E1F70E948620FF24F39414
:104390006DCFC8010E94BD19F9CF51110AC08FED30
:1043A00091E00E94BD1986E0F50111928A95E9F726
:1043B000C0CF43130FC092130DC0E1100BC0F80122
:1043C0008583C8010E94BD1986E0F50111928A9586
:1043D000E9F74CCFC8010E9438118823D1F2EE20B2
:1043E000C1F28091E401803238F22091DF013091F6
:1043F000E0013A8329831B82DD82CC828E83CE0149
:104400000196B8CFE83CF105F8F6FE2CEE2009F253
:1044100043131FC092131DC08091E40180FD10C0A2
:10442000982F907F69F0F8018583903F31F0982FA5
:10443000907F905F8F70892B8583C8010E94BD1982
:1044400086E0F801AFEDB1E001900D928A95E1F7B9
:104450000DCFC8010E94381181118ECF8091E401E7
:1044600081608093E401C8010E94BD19FFCEEE2057
:1044700009F48FCFC8010E943811F82E882309F45F
:1044800088CF86E0F801AFEDB1E001900D928A95FA
:10449000E1F78091DF019091E0010E942C110E94D0
:1044A0008620E4CE81E08E25FBCE1F93CF93DF9351
:1044B000CDB7DEB767970FB6F894DEBF0FBECDBF9E
:1044C0004B8B5C8B6D8B7E8B8F8B611110921902E5
:1044D0001A8A198A85E0FE017396DE011D96019005
:1044E0000D928A95E1F786E0FE013D96DE01179672
:1044F00001900D928A95E1F7CE0107960E94DC208B
:10450000882389F016E0809116029091E5018913C5
:1045100049C067960FB6F894DEBF0FBECDBFDF91DE
:10452000CF911F91089586E0FE013796DE01119626
:1045300001900D928A95E1F78A859B85892B11F36D
:104540008F81988589238F3FE9F22091E50130E042
:10455000C9010196877099274091160248171906DC
:1045600071F40E94EB161092E5011092160286E09B
:10457000EFEDF1E0DF011D928A95E9F7C3CF96E0F8
:10458000929FD001939FB00D1124AA51BE4FFE01FE
:10459000319601900D929A95E1F78093E5010E9482
:1045A000E009B0CF819FC00111248A519E4F0E9423
:1045B000DC20882309F4ADCF8091160290E00196AB
:1045C00087709927809316029ECF1F920F920FB685
:1045D0000F9211242F933F934F935F936F937F9389
:1045E0008F939F93AF93BF93CF93DF93EF93FF93FB
:1045F000D091E900DF708091EC00C82FC17080FD80
:10460000C0E81092E9008091F000877F8093F0006D
:1046100078940E94F6161092E9008091F00088606C
:104620008093F000CD2BCF70C093E900FF91EF9104
:10463000DF91CF91BF91AF919F918F917F916F91BA
:104640005F914F913F912F910F900FBE0F901F9050
:1046500018951F920F920FB60F9211242F933F932C
:104660004F935F936F937F938F939F93AF93BF937A
:10467000EF93FF938091E10082FF09C08091E200F7
:1046800082FF05C08091E1008B7F8093E1008091E3
:10469000DA0080FF24C08091D80080FF20C0809184
:1046A000DA008E7F8093DA008091D90080FF9BC072
:1046B00080E189BD82E189BD09B400FEFDCF81E0C2
:1046C00080934A0380913D03811109C00E94C70372
:1046D0000E9492048091E20084608093E2008091C5
:1046E000E10080FF17C08091E20080FF13C080913D
:1046F000E2008E7F8093E2008091E20080618093EF
:10470000E2008091D80080628093D80019BC85E0D7
:1047100080934A038091E10084FF29C08091E200E8
:1047200084FF25C080E189BD82E189BD89B5982FCC
:10473000917080FFFBCF8091D8008F7D8093D8004F
:104740008091E1008F7E8093E1008091E2008F7E76
:104750008093E2008091E20081608093E20080918A
:104760004B03882309F445C084E080934A03809179
:10477000E10083FF27C08091E20083FF23C0809186
:10478000E100877F8093E10082E080934A031092EA
:104790004B038091E1008E7F8093E1008091E200E5
:1047A0008E7F8093E2008091E20080618093E2003E
:1047B00042E060E080E00E9460048091F000886048
:1047C0008093F000FF91EF91BF91AF919F918F91F6
:1047D0007F916F915F914F913F912F910F900FBEFD
:1047E0000F901F90189519BC10924A0310923D0328
:1047F00076CF8091E30087FD93E090934A03B7CF93
:1048000078941F921FB61F9211248F939F93AF939A
:10481000BF938091360390913703A0913803B091F4
:1048200039030196A11DB11D809336039093370380
:10483000A0933803B0933903BF91AF919F918F91AB
:104840001F901FBE1F9018951F921FB61F92112414
:104850008F939F93AF93BF9380913503811113C0C2
:104860008091360390913703A0913803B0913903BA
:104870004196A11DB11D8093360390933703A093F9
:104880003803B0933903BF91AF919F918F911F90DF
:104890001FBE1F901895CDB7DEB7AA970FB6F89434
:1048A000DEBF0FBECDBF84B7877F84BF0FB6F8943D
:1048B000A8958091600088618093600010926000EC
:1048C0000FBE80E890E00FB6F8948093610090935B
:1048D00061000FBE85B7806885BF85B7806885BFDA
:1048E00087EC97E09093BF018093BE010E94C703BD
:1048F0000E9492048091E20084608093E2007894A8
:1049000080914A038823A1F01091E9001F709091D3
:10491000EC00892F817090FD80E8182B1092E9003F
:104920008091E80083FD0E94F6161F701093E90045
:1049300082E084BD93E095BD9AEF97BD80936E00B1
:104940001092310310923203109233031092340309
:104950000E945F11811102C00E94A1100E944C0FA1
:104960008093280180912801882309F466C0109261
:10497000410187E1809342010E944C0F81110E9406
:10498000002A809128018091280194E0811190E013
:104990009093540284E0891B8093530284E90E941F
:1049A000CB0786E60E94CB0787E90E94CB0786ECFF
:1049B0000E94CB0702E811E069E8E62E61E0F62EDE
:1049C000F80181918F018F3F11F00E94CB07E01613
:1049D000F106B1F7EBE4F2E083E592E0A3E6B2E0A2
:1049E00011921D928E179F07D9F70E94E016811130
:1049F00002C00E943B1382E090E00E94632C8093EF
:104A00005A020E94781190934A02809349020E94B0
:104A100012158FE39CE90197F1F700C000000E9496
:104A200012158091630280FF0CC06FEF7FEF90E062
:104A300080E00E94952C0E94540587E180934101FB
:104A400099CF83E090E00E94632C0E949D0A0E940F
:104A50004C0F811102C00E94032A809155028111DE
:104A600038C00E94E016811104C00E943B130E94CE
:104A7000231388E090E00E946B2C609326037093D0
:104A800027038093280390932903809180028360F9
:104A9000809380026E7F71F40E94231388E090E07F
:104AA0000E946B2C60932603709327038093280346
:104AB000909329030E94DF050E94D8058091260368
:104AC00080FF04C060E086950E94C21281E080935E
:104AD000550289E291E090932E0380932D0398E193
:104AE000C92ED12C20E4622E30E1732E42E1B42E87
:104AF00050E1A52E80914A03853049F480914A0304
:104B0000853009F4A4C10E94EB160E94930F0E9405
:104B1000121581110E947405EBE5F2E0A3E6B2E004
:104B200010E000E0802EED9081918E1509F4CAC14D
:104B30008E25912CFF24F394982F9F2109F4BDC159
:104B40000E944C0F882399F099A28AA2EF2081E05D
:104B500009F480E08BA30E9480058160782F9DA3DB
:104B60008CA349A15AA16BA18DA10E945522F801E5
:104B7000E55AFD4F8081F826F08280917F028823DC
:104B800009F464C080917E02E0912603E695E81B5B
:104B9000E0937A02823009F0ACC1F0E0E95BFD4FAE
:104BA000E4910E2F10E08DEDE82E8EE0F82E80912E
:104BB0007B02882361F010927B020E948A0F9093FF
:104BC00079028093780210927D0210927C020E94FA
:104BD0008A0FE0917802F09179029C012E1B3F0B25
:104BE0002F3F3F4798F5209158022223B1F01092B1
:104BF00058022091560230915702821B930B8F3F2F
:104C00009F4758F4205D3A4830935702209356024C
:104C10008091800288608093800280907C029090D6
:104C20007D02E00FF11FF0937902E093780288E7AC
:104C300092E0F701099580917C0290917D02892B89
:104C400029F4892819F081E08093580286E0E2E790
:104C5000F2E0DE01119601900D928A95E1F7F09055
:104C60007402E09075021091760200917702109222
:104C700074021092750210927602109277028F2DB4
:104C80008E2909F448C080917002909171020E94AF
:104C900065059C0190916C02992309F44BC3233361
:104CA0003105C8F19F3F19F09F5F90936C02FF2080
:104CB00059F00E944D079FEF1F140CF491E0899F5B
:104CC000802D112480937402EE2059F00E944D072C
:104CD0009FEF1E140CF491E0899F802D1124809386
:104CE0007502309174023323B1F0209175022223B2
:104CF00091F045EB3403C0011124992309F453C109
:104D00009093740245EB240390011124332309F49A
:104D10004EC130937502812F802B09F448C08091D9
:104D20006E0290916F020E9465059C0190916B024A
:104D3000992309F4FAC225363105C8F19F3F19F0CD
:104D40009F5F90936B02112359F00E942B079FEFF6
:104D500011160CF491E0899F802D11248093760226
:104D6000002359F00E942B079FEF10160CF491E0DE
:104D7000899F802D1124809377023091760233230E
:104D8000B1F020917702222391F045EB3403C0016A
:104D90001124992309F40FC19093760245EB240363
:104DA00090011124332309F40AC1309377028091D2
:104DB000740290917502892B90917602892B9091C3
:104DC0007702892B11F00E948B0686E0FE01319656
:104DD000A2E7B2E001900D928A95E1F70E94930F4D
:104DE00090915902891721F00E94930F80935902E4
:104DF00080914A03843009F07DCE83E08093E900FE
:104E00008091E80082FF76CE8091E80090E085FFF7
:104E10000CC00E94E60330E2E32EF12C8E010F5FFE
:104E20001F4F882309F4D9C091E08091E8008B7767
:104E30008093E800992309F45DCEE981E150E331E4
:104E400008F02FC1F0E0EC50F34D0C94192C809138
:104E50004A03843009F1109235030FB6F894A895EF
:104E6000C09260000FBE6092600083B7817F846053
:104E700083BF83B7816083BF7894889583B78E7F23
:104E800083BF0FB6F894A8958091600088618093E5
:104E90006000109260000FBE80914903882309F4DE
:104EA0002DCE0E941215E3E6F2E0819181111EC21F
:104EB00092E0EB36F907C9F721CE9394FF0C27E077
:104EC00092123ACE0F5F1F4F0830110509F02ACE1B
:104ED0008FEF8EA38FA318A60E9480058160782F84
:104EE0009AA789A74EA15FA168A58AA50E9455220D
:104EF00044CE863059F4F0E0EC5BFD4FE4910E2F88
:104F000010E0BDECEB2EBEE0FB2E51CE893061F4FB
:104F1000E695F0E0EF5BFD4FE4910E2F10E0A8E185
:104F2000EA2EAEE0FA2E43CE8F3061F4E695F0E043
:104F3000E25CFD4FE4910E2F10E0FCE7EF2EFDE068
:104F4000FF2E35CE853159F4F0E0E55CFD4FE4915C
:104F50000E2F10E0E2EFEE2EECE0FE2E28CE08E25F
:104F600010E05FE5E52E5CE0F52E883109F41FCEF8
:104F7000833249F4E9E3F2E00591149171E7E72EF9
:104F80007EE0F72E14CE04EF11E06FE1E62E6CE028
:104F9000F62E843209F40BCE00ED17E047EDE42E37
:104FA00045E0F42E04CE81E080937402ABCE81E024
:104FB00080937502B0CE81E080937602EFCE81E0DF
:104FC00080937702F4CE8091F100F80181938F01F4
:104FD000F1E0EF1AF10809F427CF8091E80085FD90
:104FE000F2CF8091E8008B778093E8000E94E6037F
:104FF000882399F319CF1A8289E08B8311C08A81A3
:10500000823009F489C1833091F1813009F049C0BF
:105010000E9474050E941F2C6B837C838D839E836A
:1050200080914A03843009F065CD1091E9001F702A
:105030009091EC00892F817090FD80E8182B82E020
:105040008093E9008091E80080FF0DC050E040E0CF
:1050500060E270E0CE0101960E9417048091E800A2
:105060008E778093E8001F701093E90043CDDE0136
:1050700013968BE692E0E3E6F2E021912D938E17F2
:105080009F07D9F7CDCF8A81823059F46B817C811B
:105090008D819E810E941F2C86E290E00E94772CD9
:1050A000BFCF8FEF8983BCCF4C816B818A810E94F7
:1050B000CA109827892798279E838D83B1CF0D81A9
:1050C0001E811027012710278A81EB802EE0E29EA7
:1050D0007001112440E7849FE00CF11C11248C81A5
:1050E00090E0880F991FE80EF91E612FC70187967F
:1050F0000E94772C602FC7018896D0CF0E94341071
:105100008FCF8A818138C1F060F4803809F088CF70
:1051100020E04B8160912803809127030E94B31106
:105120007FCF8238E9F0833809F07ACF20E04091D0
:1051300029036C818B81F2CF60E08B810E94C212C7
:105140008B81811103C00E94F10E6ACF80912603EA
:1051500081608093260360E086950E94C21260CF32
:105160008B8180932A035CCF8A81813899F030F457
:10517000803809F055CF809129033FCF823891F0D4
:10518000833809F04DCF809127038B8380912803CA
:105190008C8346CF8091260380FF02C086952DCF59
:1051A00080E02BCF80912A0328CF60912603709155
:1051B000270380912803909129030E94A11130CFE9
:1051C000AA822ECF82E08A8389E117CF0A811B81D0
:1051D000102701271027CE0101967C018C80FC014D
:1051E000E80DF11D4F01C80189519E4F8E149F0497
:1051F00009F416CF0931F2E01F0750F40E94632C26
:10520000F70184830F5F1F4FFFEFEF1AFF0AEBCF09
:10521000F7011482F7CF0A811B811027012710277D
:10522000CE0101964C01EC80E00EF12EF11CC8017C
:1052300089519E4FE016F10609F4F2CE0931E2E001
:105240001E0720F4F40164810E94772CFFEF8F1A6F
:105250009F0A0F5F1F4FEBCF0E942410E1CE84E026
:105260008A83DECE0A811B81102701271027CE01F9
:1052700001967C018C80FC01E80DF11D4F01C801F5
:1052800087968E149F0409F4CBCE003CF1E01F07F3
:1052900050F40E94632CF70184830F5F1F4FFFEFD0
:1052A000EF1AFF0AECCFF7011482F7CF0A811B81B6
:1052B000102701271027CE0101964C01EC80E00E4B
:1052C000F12EF11CC8018796E016F10609F4A8CE6C
:1052D000003CE1E01E0720F4F40164810E94772C79
:1052E000FFEF8F1A9F0A0F5F1F4FECCF79BCB9BC3D
:1052F00009B400FEFDCF8091D8008F7D8093D80047
:105300008091E00082608093E0008091E00081FD68
:10531000FCCF0E94EB16F2CB86E290E00E94632C59
:105320001B821C821D828E837BCE2D32314008F081
:1053300007CD3DCD2D32314008F0B6CCECCC8EE11E
:105340004B9B02C08150E1F74B9BFECF08955B98C9
:1053500080E28A95F1F75B9A0895FC013BE03A956B
:10536000F1F798E020E080E031E040E14A95F1F784
:10537000880F4B9B02C08160232742E04A95F1F7DA
:10538000000040E14A95F1F7915079F790E19A9544
:10539000F1F799B132E03A95F1F7000040E14A9512
:1053A000F1F793FB992790F992272081920F908330
:1053B0000895EF92FF920F931F93CF93DF930F9275
:1053C000CDB7DEB719828C017C01E60EF11C0E15FB
:1053D0001F0561F481E09981911180E00F90DF91C8
:1053E000CF911F910F91FF90EF9008950E949F29F8
:1053F000CE0101960E94AD29F80181938F01E7CF7C
:10540000539A5B9A089553985B9AEB9AE9E6F0E019
:1054100080818F73808308956150770B91E001C084
:10542000990F6A95EAF720E031E0911108C0222334
:1054300091F05B9A80E28A95F1F75B980895492F85
:10544000482339F05B9A232740E24A95F1F7969575
:10545000ECCF5B98F9CF5B98EDCFFF920F931F9342
:10546000CF93DF93EC018C01060F111DC017D107FC
:1054700031F4DF91CF911F910F91FF900895F99032
:105480000E94A72968E08F2D0E940C2AEFCF1F925F
:105490000F920FB60F921124EF92FF920F931F936A
:1054A0002F933F934F935F936F937F938F939F932C
:1054B000AF93BF93EF93FF93CF93DF930F92CDB74B
:1054C000DEB719820E949F29CE0101960E94AD2964
:1054D000A82FA695A695A695282F229525709A2FD8
:1054E0009570290F922F937026952695920F9827E5
:1054F00097708981982B09F075C0A53008F072C0AB
:1055000080E18A95F1F75B9A539AB2E0BA95F1F788
:1055100000C05B98EA2EF12CEAE0AE9FD001112486
:10552000A050BF4F1896ED91FC9119973097B1F0AC
:10553000609178017091790116962D913C911797A1
:10554000260F371F13968D919C911497680F791F22
:1055500015964C91159712968C9109958AE08E9D1F
:10556000F0018F9DF00D1124E050FF4F65816623FF
:1055700051F0209178013091790186819781820FD5
:10558000931F0E942D2A0E94A729F0E1FA95F1F7B6
:105590005B9853985B9A80E18A95F1F78AE08E9D3B
:1055A00080018F9D100D112400501F4FD8011296BD
:1055B0006C911297662371F12091780130917901F5
:1055C00013968D919C91820F931F0E94D929D80127
:1055D000ED91FC91882311F088E001C082E0808386
:1055E0000E949F290F90DF91CF91FF91EF91BF9182
:1055F000AF919F918F917F916F915F914F913F916B
:105600002F911F910F91FF90EF900F900FBE0F9071
:105610001F901895ED91FC91DFCF0F931F93CF93BF
:10562000DF93EC0105970CF0A9C08AE08C9FF00194
:105630008D9FF00D1124E050FF4F80819181892BC7
:1056400009F49CC0F894539A5B9885E08A95F1F729
:1056500000008C2F869585709C2F9570890F982F50
:10566000937086958695890F8E0193E0000F111F28
:105670009A95E1F7082B0E94A72900C068E0802FC7
:105680000E940C2AA0E1AA95F1F753985B9A4B9BD4
:1056900027C087E090E04B9925C08AE08C9F80016D
:1056A0008D9F100D112400501F4FF8016581662356
:1056B000A1F1209178013091790186819781820F43
:1056C000931F0E94D929811128C0539A5B9AD8014F
:1056D000ED91FC9182E08083789482E090E016C0A6
:1056E00000C0D5CF0197B9F4539A5B9A8AE08C9F9A
:1056F000F0018D9FF00D1124E050FF4F0190F081DB
:10570000E02D81E08083789481E090E0DF91CF917B
:105710001F910F91089500C0BECF0E949F29B0E253
:10572000BA95F1F75B98539AE0E1EA95F1F78AE0D0
:105730008C9FF0018D9FF00D1124E050FF4F62818E
:10574000662351F020917801309179018381948111
:10575000820F931F0E942D2A0E94A7298AE08C9F06
:10576000F0018D9FF00D1124E050FF4F0190F0816A
:10577000E02D1082789490E080E0C8CF84E090E043
:10578000C5CF87FB082E062687FD819567FD6195AD
:105790000E94572C0EF4919507FC81950895AA1B41
:1057A000BB1B51E107C0AA1FBB1FA617B70710F00C
:1057B000A61BB70B881F991F5A95A9F7809590953E
:1057C000BC01CD01089597FB072E16F4009407D075
:1057D00077FD09D00E94CF2B07FC05D03EF49095B1
:1057E00081959F4F0895709561957F4F0895A1E22F
:1057F0001A2EAA1BBB1BFD010DC0AA1FBB1FEE1F4B
:10580000FF1FA217B307E407F50720F0A21BB30B95
:10581000E40BF50B661F771F881F991F1A9469F711
:1058200060957095809590959B01AC01BD01CF016D
:105830000895EE0FFF1F0590F491E02D099469275C
:105840009627692778278727782708950E942E2C86
:10585000332312F48A1B9B0B0C943F2CA29FB001A4
:10586000B39FC001A39F700D811D1124911DB29F94
:10587000700D811D1124911D08950E942E2CB7FFDB
:105880000895821B930B08950E942E2CA59F900DC6
:10589000B49F900DA49F800D911D11240895B7FF12
:1058A0000C94442C0E94442C821B930B0895991B4A
:1058B00079E004C0991F961708F0961B881F7A9507
:1058C000C9F780950895F999FECF92BD81BDF89AE8
:1058D000992780B50895A6E1B0E044E050E00C942B
:1058E0009D2CA8E1B0E042E050E00C949D2C262FC6
:1058F000F999FECF92BD81BDF89A019700B40216C6
:1059000039F01FBA20BD0FB6F894FA9AF99A0FBE73
:1059100008950396272F0E94782C0E94772C252F1C
:105920000E94782C242F0C94782C0196272F0E940B
:10593000782C0C94772CDC01CB01FC01F999FECF7B
:1059400006C0F2BDE1BDF89A319600B40D92415007
:105950005040B8F70895FC014150504030F001909C
:105960000616D1F73197CF01089588279927089512
:10597000FB01DC0104C08D910190801921F441509C
:105980005040C8F7881B990B0895FB01DC0102C049
:1059900001900D9241505040D8F70895F894FFCFF0
:1059A0004A114A11531153115511531153115311E7
:1059B0004A114A115A11531153115A11DB17031886
:1059C00056180318561836186E1856186B19781989
:1059D000081D081D7B1D7B1DD91DF31D3F1D3F1D8F
:1059E000FE1D6B1E7C1E7C1EFB27FF2743285428B0
:1059F0005F287E288128B428D52851285128E028FE
:0E5A0000E228E6280B292C292F2932295629C5
:105A0E00C8010000000100000000C80100000004F1
:105A1E0001000000C8010405000000000000C801DC
:105A2E000809000000000000015105A70B860B823B
:105A3E000B7E0B01191A1B1C1D1E1F202122010299
:105A4E0001003600363601818283E200E900EA0069
:105A5E00B500B600B700CD008301CC008A019201DB
:105A6E0094012102230224022502260227022A0281
:105A7E00B300B4006F0070003302946697C6000046
:105A8E000000F4F5F6F7313332000102020202068D
:105A9E0006060909090909090F0F0F0F0F0F151532
:105AAE001518191919191919191919192324402218
:0E5ABE007B49012701AC0022063B065B060077
:00000001FF
