:100000000C94EE020C9435030C9435030C943503D8
:100010000C94B3230C9435030C9435030C943503E2
:100020000C9435030C9435030C94412B0C94152C33
:100030000C947A260C9435030C9435030C943503F8
:100040000C9435030C9435030C9435030C94350350
:100050000C9435030C94ED260C9435030C94350365
:100060000C9435030C9435030C9435030C94350330
:100070000C9435030C9435030C9435030C94350320
:100080000C9435030C9435030C9435030C94350310
:100090000C9435030C9435030C9435030C94350300
:1000A0000C9435030C9435030C943503290035006A
:1000B00014001A00080015001700C45CE0000400DA
:1000C0001600070009000A000000E2001D001B00E6
:1000D00006001900050000000000000000004C426E
:1000E0002A62E34130002F00130012000C001800B8
:1000F0001C00C45C347133000F000E000D000B00B7
:100100000000317438003700360010001100000084
:100110000000000000002B422C722841A8002D0294
:100120003A003B003C003D003E00010057001E022B
:100130001F02200221022202000056001E001F00A2
:10014000200021002200000000000000000001004B
:10015000010001004500440043004200410040000E
:100160003F0001002E00270226022502240223025E
:1001700000000100270026002500240023000000C5
:100180000000000000000100010001000100530018
:1001900054005F00600061005600A9006700550030
:1001A0005C005D005E005700000001006200590025
:1001B0005A005B0085000000000000000000010004
:1001C00001000100010039004700460052004A00CA
:1001D0004D00AA00650049004F0051005000010089
:1001E0000000010048004E0001004D000100000029
:1001F00000000000000001000100010001000100FA
:10020000175C1A5C185CF90001000100C35CC65C55
:10021000C85CCA5CFA0001000000C45CC75CC95C31
:10022000CB5C0100010000000000000000000100A4
:1002300001000100010001000100F200ED00F100E9
:100240000100010001000100F000EE00EF000100DC
:10025000000001000100FF00FE00FD0001000000A1
:1002600000000000000001000100010000047F3FC9
:100270001F643214643214783C1E1E140A052223B3
:10028000252628292A2C2D2F3032333536383A3B73
:100290003D3E4042434547494A4C4E5051535557C5
:1002A000595A5C5E6062646668696B6D6F717375E4
:1002B00077797B7D7F81838587898A8C8E909294E4
:1002C00096989A9C9E9FA1A3A5A7A8AAACAEAFB1F1
:1002D000B3B4B6B8B9BBBCBEBFC1C2C3C5C6C7C93B
:1002E000CACBCCCDCED0D1D2D2D3D4D5D6D7D7D8F5
:1002F000D9D9DADADBDBDBDCDCDCDCDCDDDDDDDD47
:10030000DCDCDCDCDCDBDBDBDADAD9D9D8D7D7D64E
:10031000D5D4D3D2D2D1D0CECDCCCBCAC9C7C6C505
:10032000C3C2C1BFBEBCBBB9B8B6B4B3B1AFAEAC4B
:10033000AAA8A7A5A3A19F9E9C9A98969492908EF6
:100340008C8A89878583817F7D7B79777573716FCF
:100350006D6B6968666462605E5C5A5957555351AB
:10036000504E4C4A4947454342403E3D3B3A383661
:10037000353332302F2D2C2A292826252322FFAA77
:100380007F5540000101010101010101010202024A
:100390000202020202020303030303030303040431
:1003A00004040404040505050505060606060607FB
:1003B0000707070708080808090909090A0A0A0BB4
:1003C0000B0B0C0C0C0D0D0D0E0E0E0F0F0F101055
:1003D00011111112121313141415151616171718DC
:1003E0001819191A1A1B1B1C1D1D1E1E1F20202147
:1003F0002222232424252626272829292A2B2C2D8E
:100400002D2E2F30313232333435363738393A3BAE
:100410003C3D3E3F404142434445464748494A4CA3
:100420004D4E4F50515354555658595A5B5D5E5F6F
:10043000616264656668696B6C6D6F707273757705
:10044000787A7B7D7E8082838587888A8C8E8F9167
:10045000939596989A9C9EA0A2A3A5A7A9ABADAF91
:10046000B1B3B5B7BABCBEC0C2C4C6C9CBCDCFD17B
:10047000D4D6D8DBDDDFE2E4E7E9EBEEF0F3F5F824
:10048000FAFDFF280341006E00670065006C0077ED
:100490000069006E006700730020004B0065007962
:1004A0000062006F006100720064000000200344DD
:1004B000006F007200790061006E005F0061006EE5
:1004C0000064005F006E006D003100370000000422
:1004D00003090409023B00020100A0FA090400001C
:1004E000010301010009211101000122400007055B
:1004F000810308000A09040100010300000009212A
:1005000011010001227B000705820320000A12016D
:10051000000200000008EDFE0000010001020001E1
:1005200005010902A10185020901A10005091901BE
:10053000290815002501950875018102050109307A
:1005400009311581257F95027508810609381581C5
:10055000257F950175088106050C0A38021581254D
:100560007F950175088106C0C005010980A101853C
:100570000319012AB700150126B7009501751081EE
:1005800000C0050C0901A101850419012AA002156A
:100590000126A002950175108100C005010906A180
:1005A00001050719E029E715002501950875018166
:1005B000029501750881010507190029FF1500261C
:1005C000FF009506750881000508190129059505A4
:1005D00075019102950175039101C00011241FBEA0
:1005E000CFEFDAE0DEBFCDBF04B603FE27C08091B7
:1005F000A2039091A303A091A403B091A503873017
:10060000904BA740B04BD1F41092A2031092A303D9
:100610001092A4031092A50314BE84B7877F84BFF1
:100620000FB6F894A895809160008861809360006F
:10063000109260000FBEE0E0F8E3099511E0A0E041
:10064000B1E0E2E1FEE502C005900D92AA3EB107DD
:10065000D9F723E0AAEEB1E001C01D92A23AB20799
:10066000E1F70E9427160C94DF2E0C9400000F93E4
:1006700003E022E041E00E9491030F91089581E0A0
:10068000089581E008950C94410308950C94450366
:100690001F93CF93DF9300D000D00F92CDB7DEB77A
:1006A00049835A836B833091EC0189819A8131119E
:1006B0001DC06623B9F02223A9F00E946609182FF5
:1006C000682F89819A810E94120969817A81812F1C
:1006D0000F900F900F900F900F90DF91CF911F917F
:1006E0000C949D0F0E943E09182FEFCF0E946609BF
:1006F00069817A81EDCFFC01262F40815181628191
:10070000738184810C94480381E00895CF93DF9333
:10071000EC0160E00E947B03BE01DF91CF910C945D
:1007200046038F929F92AF92BF92CF92DF92EF9249
:10073000FF920F931F936B017C0181E090E0A0E09A
:10074000B0E04C015D0104C0880C991CAA1CBB1CC4
:100750004A95D2F7B501A4014C015D0104C0880C93
:10076000991CAA1CBB1C2A95D2F7482959296A2929
:100770007B2904C0880F991FAA1FBB1F0A95D2F7B7
:100780008A019B010C211D212E213F2104171507F1
:100790002607370789F48C299D29AE29BF29BC017A
:1007A000CD011F910F91FF90EF90DF90CF90BF9000
:1007B000AF909F908F90089580959095A095B0955B
:1007C0008C219D21AE21BF21EACF0E94AD110E9454
:1007D0005C040C94D2110C94D51108950E94BD07AD
:1007E0000E94ED032FEF84E39CE021508040904075
:1007F000E1F700C000000C9411270F931F93CF93D3
:10080000DF938C0161E00E947B03EC01B8010E9440
:1008100043038823D9F1B801CE010E9465218823C2
:10082000A9F1B801CE010E94B721882379F1B8015E
:10083000CE010E94E122882349F1B801CE010E9435
:10084000ED1F882319F1F8018281882361F0CB35EF
:10085000FDE5DF0721F170F4C115ECE5DE07A1F03D
:10086000CF3DDC45C9F0C801DF91CF911F910F91B9
:100870000C943F03CC358DE5D807A1F0CD35DD458F
:1008800091F70E94430DEFCF0E94EE0380E0DF91CD
:10089000CF911F910F9108950E94B40EF7CF0E943F
:1008A0004C0DE1CF0E944F0DDECF08950C945504FE
:1008B00081E008950C9458040895CF93C82F0E94A6
:1008C00056048C2FCF910C945A04CF93DF93CDB75D
:1008D000DEB72B970FB6F894DEBF0FBECDBF4F83A8
:1008E000588769877A878B8761110E94720D1E82F3
:1008F0001D8285E0FE013796DE01119601900D9272
:100900008A95E1F78C819D81892B89F449815A81EF
:100910006B817C818D819E810E94720C2B960FB61B
:10092000F894DEBF0FBECDBFDF91CF9108958981CE
:100930009A8189238F3F51F3CE0101960E9484034F
:100940008111E4CFEBCFFC01808191810C94A80947
:10095000CF93C82F882309F447C08CEF8C0F813ABE
:10096000A0F46C2F80910001909101010E949C25C0
:10097000882329F08C2F0E94130D0E94A20D8C2F2A
:100980000E940C0DCF910C94A20D80E28C0F883048
:1009900048F4C77081E001C0880FCA95EAF70E9449
:1009A000550DF0CFEBE5EC0FE33040F4F0E0E1580B
:1009B000FE4F808190E0CF910C945E25E8E5EC0F2E
:1009C000E73150F4F0E0EE0FFF1FEF5AFE4F808149
:1009D0009181CF910C947425CD3E30F08C2F0E94E4
:1009E000B516CF910C948817CF910895882361F1A3
:1009F0009CEF980F913A20F40E94130D0C94A20DD5
:100A000090E2980F983050F4877091E001C0990FF0
:100A10008A95EAF7892F0E945B0DF0CF9BE5980F2E
:100A2000933020F490E080E00C945E2598E5980FD8
:100A3000973120F490E080E00C9474258D3E20F0F6
:100A40000E940F170C94881708951F93CF93DF937C
:100A5000182FEB010E94A804209731F4812FDF9119
:100A6000CF911F910C94F6048FE99FE00197F1F765
:100A700000C000002197F0CF70E060E0893311F4EE
:100A800060E570E00C942505882321F00E94550D47
:100A90000C94A20D0895882321F00E945B0D0C9404
:100AA000A20D0895BF92CF92DF92EF92FF920F9323
:100AB0001F93CF93DF936C01D62FC72FFC011281B8
:100AC000058102950F700E942A0DE82E8823A1F05F
:100AD000E12E112389F08C2F807F803429F080E271
:100AE0008D0FE12C883040F082E00E94F30D0E94CF
:100AF0002A0D91E0E82EE926BC2EB2949FE0B9229F
:100B0000EB2DF0E0EF51F14D0C94312E0C2F0F70C6
:100B1000C07F11F00295007F1123A9F0002359F046
:100B200080E28D0F883010F0D11109C0802F0E9413
:100B3000550D0E94A20D8D2F0E94A80414C0802F75
:100B40000E94650DF6CF8D2F0E94F604002359F008
:100B500080E28D0F883010F0D1112CC0802F0E94C0
:100B60005B0D0E94A20D2B2D2850330B2430310534
:100B700020F40E9432250E945D04EE2009F49EC1FB
:100B80000E94260D80FD9AC1F60112820E94200D5E
:100B90000E947608C6010E947F070E94200DDF9107
:100BA000CF911F910F91FF90EF90DF90CF90BF906A
:100BB0000C949708802F0E946B0DD3CFFC2FFF70F1
:100BC000FF2EC07FC03219F0F29480EFF822DD23AF
:100BD00069F0D13049F1112391F1002351F1F6016F
:100BE000858180FFA8CF8F70858323C0112381F07A
:100BF000011106C00E94850D8F290E944405B3CFC4
:100C00000130C1F70E94850D8F290E948B0DABCF5B
:100C1000011106C00E94980D8F2D0E944B05A3CF95
:100C2000013009F4A0CFF6CF112329F0063008F0E7
:100C30009ACF8F2DE2CF053008F095CFEDCF00236E
:100C400059F3D93349F4FFEF27EE33E0F150204058
:100C50003040E1F700C000008D2F0E94F60483CFE2
:100C60008C2F86958695837069F0813009F07BCF53
:100C70008D2F9C2F9370111102C090E080E00E9494
:100C8000742571CF8D2F9C2F9370111102C090E0AD
:100C900080E00E945E2567CF8D2F112329F00E94EE
:100CA000B5160E9488175FCF0E940F17FACF8C2FBE
:100CB000837009F041C0111156CF4D2F42954695D2
:100CC0004770440F440F0D2F0F7010E030E020E00C
:100CD000042E04C0000F111F221F331F0A94D2F7E5
:100CE00060E070E0CB01D4FF0FC06FE070E080E007
:100CF00090E004C0660F771F881F991F4A95D2F7AE
:100D00006095709580959095C695C695C370602B3B
:100D1000712B822B932BC23049F058F4C13019F05B
:100D20000E942A0820CF0E9418081DCF0E943C086C
:100D30001ACF0E94160817CF8695112311F08C2F19
:100D40008170882309F40FCF4D2F42954695477047
:100D5000440F440F0D2F0F7010E030E020E0042E00
:100D600004C0000F111F221F331F0A94D2F760E046
:100D700070E0CB01D4FF0FC06FE070E080E090E046
:100D800004C0660F771F881F991F4A95D2F7609598
:100D9000709580959095C695C695C370602B712B04
:100DA000822B932BC23049F058F4C13019F00E94C5
:100DB000ED08D9CE0E94DB08D6CE0E94FF08D3CE24
:100DC0000E945008D0CECF70112329F08C2F0E94A2
:100DD00076088D2F12CF8D2F0E944B058C2F0E94ED
:100DE0009708C1CED23F89F160F4D03FC9F0D13F1E
:100DF00029F1112309F442C001119DCE8C2F8F716E
:100E000021C0D33F39F1D43FA1F7112369F1CF714C
:100E10008C2F0E94760863E08C2F0E94D80DA3CE01
:100E2000112341F0053008F09ECE8C2F8F710E9467
:100E3000BA0899CE063008F096CEF7CF8C2F8F7176
:100E4000112369F20E9476088ECE8C2F8F711123A8
:100E5000C9F3C5CF112329F08C2F8F710E9461082F
:100E600082CE0E945C087FCE81E00E94F30D0230AA
:100E700008F479CE82E00E94F30D75CE002359F07C
:100E8000D93309F0E9CE8FEF97EEE3E0815090403F
:100E9000E040E1F7DFCE8C2F8F71A1CF4C2F4F7048
:100EA0006D2FC6010E94990F0E94D6095CCE4C2F6F
:100EB0004F706D2FC6010E949C0F55CEDF91CF91D0
:100EC0001F910F91FF90EF90DF90CF90BF9008950A
:100ED0000F931F93CF93DF93EC01688179818A810F
:100EE0000E94B2098C010E9411090E941508B801E4
:100EF000CE01DF91CF911F910F910C945205CF93AA
:100F0000DF93EC018B819C81892B29F08881998169
:100F100089238F3F59F4DF91CF910895CE010E942C
:100F20006807CE01DF91CF910C948603CE010E9419
:100F3000FD038111F3CF0E942A0D882361F38A817A
:100F4000882349F382E0DF91CF910C94F30D90E078
:100F500080E00E945E2590E080E00E9474250E945F
:100F6000720D0E94820D0E94A20D0E94AF180C9477
:100F700088170E941A0D0C94A7070E94620D0C940A
:100F8000B907E92FE295EF70E250EE3070F4F0E02F
:100F9000EF50F14D0C94312E803F19F020F4883E33
:100FA00020F481E00895843FE1F380E00895883ED5
:100FB000C0F3813FD1F7F5CF93FB882780F90895DF
:100FC000FC01808191810E94A8090C94C107CF93F4
:100FD000DF9300D000D00F92CDB7DEB70F900F9007
:100FE0000F900F900F90DF91CF910895CF93DF93E3
:100FF00000D000D000D0CDB7DEB726960FB6F8945B
:10100000DEBF0FBECDBFDF91CF91089508950C9440
:1010100006080E94070860931402709315028093DB
:101020001602909317020C94A70708950C940908D0
:101030000F931F9300911402109115022091160234
:1010400030911702602B712B822B932B1F910F91E4
:101050000C9409080F931F9300911402109115022C
:10106000209116023091170260237123822393236B
:101070001F910F910C9409080F931F930091140274
:1010800010911502209116023091170260277127E6
:10109000822793271F910F910C9409080C94370312
:1010A0000E944E0860931002709311028093120206
:1010B000909313020C94A70760E070E0CB010C94AE
:1010C00050080F931F9341E050E060E070E08A0108
:1010D0009B0104C0000F111F221F331F8A95D2F7F6
:1010E000C901B8011F910F910C9450080F931F93E1
:1010F00041E050E060E070E004C0440F551F661FFF
:10110000771F8A95D2F78091100290911102A091D9
:101110001202B09113028A019B01082B192B2A2B72
:101120003B2BC901B8011F910F910C9450080F93EC
:101130001F9341E050E060E070E004C0440F551F91
:10114000661F771F8A95D2F7CB01BA01609570951B
:101150008095909500911002109111022091120239
:101160003091130260237123822393231F910F91E7
:101170000C9450080F931F9341E050E060E070E042
:1011800004C0440F551F661F771F8A95D2F78091C0
:10119000100290911102A0911202B09113028A01E3
:1011A0009B01082719272A273B27C901B8011F914E
:1011B0000F910C9450080F931F93009110021091FF
:1011C00011022091120230911302602B712B822B9D
:1011D000932B1F910F910C9450080F931F93009124
:1011E000100210911102209112023091130260231B
:1011F0007123822393231F910F910C9450080F9316
:101200001F9300911002109111022091120230914F
:10121000130260277127822793271F910F910C9447
:101220005008089527E0929F800D1124982F977001
:1012300041E001C0440F9A95EAF786958695869518
:1012400095E0899FF0011124E351FE4F90E080E08A
:1012500070E05191DF0111979B01082E02C0369575
:1012600027950A94E2F72170219525272423252725
:101270002C9301968530910561F7089527E0929FA0
:10128000800D1124982F977086958695869525E078
:10129000829FF0011124E351FE4F50E040E080E0D6
:1012A000219130E0092E02C0369527950A94E2F785
:1012B00021703327042E01C0220F0A94EAF7822BF3
:1012C0004F5F5F4F4530510559F70895BF92CF9258
:1012D000DF92EF92FF920F931F93CF93DF938C01D6
:1012E000C0901002D0901102E0901202F090130210
:1012F0008091140290911502A0911602B0911702EC
:10130000C82AD92AEA2AFB2ACFE1D0E0BC2ED7018D
:10131000C6010C2E04C0B695A795979587950A949B
:10132000D2F780FD0EC0219788F7B12C8B2DDF916D
:10133000CF911F910F91FF90EF90DF90CF90BF90D2
:101340000895B8018C2F0E94CC10019761F3EECF65
:10135000CF93DF93EC010E946609BE01DF91CF912C
:101360000C94CC101F93CF93DF93EB019091EC0181
:10137000992331F0CB01DF91CF911F910C94A809F3
:10138000882379F0CB010E946609182F682FCE01BF
:101390000E941209BE01812FDF91CF911F910C9401
:1013A000CC10CB010E943E09182FF4CFEF92FF9290
:1013B0000F931F93CF93DF938C01892B81F0F12C36
:1013C000EE24E394E8012196F8018491843770F4C7
:1013D000843008F05FC08130B1F08230A1F1DF913C
:1013E000CF911F910F91FF90EF900895853709F4E9
:1013F0004CC008F43DC09CE7980F903780F78F777A
:101400000E94F60449C00E5F1F4FFE01849190E2D6
:10141000980F983060F48770FE2D01C0FF0F8A95F9
:10142000EAF78F2F0E94750D0E94A20D02C00E9444
:10143000A8048F2D815030F2EFE9FFE03197F1F7EA
:1014400000C00000F7CF0E5F1F4FFE01849190E2B5
:10145000980F983050F48770FE2D01C0FF0F8A95C9
:10146000EAF78F2F0E947B0DDFCF0E94F604E1CFB9
:101470000E5F1F4FFE01C491C150D8F28FE99FE06B
:101480000197F1F700C00000F7CF0E5F1F4FFE017C
:10149000F490CFCF0E94A8048E01CBCF1F93CF939F
:1014A000DF93C091180216E0809119028C1304C0DA
:1014B000DF91CF911F910895D0E01C9FF0011D9FF7
:1014C000F00D1124E65EFD4F4081518162817381F0
:1014D000848195810E94F6072196C770E5CF4091DF
:1014E0004A0250914B0260914C0270914D028091E2
:1014F0004E0290914F020C94F6071F93CF93DF9307
:1015000080914F02807FA9F480914C02882389F05A
:1015100080911802C091190260914A0270914B02A9
:10152000A0914D02B0914E02D62FD72316E0C813DA
:1015300004C0DF91CF911F91089590E0109711F0B2
:10154000DF3F19F401968770F2CF189F9001199F21
:10155000300D1124F901E65EFD4F41814713F2CFB2
:1015600040814613EFCF42814111ECCF438154813A
:101570004A1B5B0B483C510528F780914F028F7046
:10158000806180934F02F901E15EFD4F80818F7091
:10159000806180838AE492E00E947F07DF91CF918F
:1015A0001F910C944E0AAF92BF92CF92DF92EF92AE
:1015B000FF920F931F93CF93DF93CDB7DEB7619761
:1015C0000FB6F894DEBF0FBECDBF8C0185E0F801E9
:1015D000DE011D9601900D928A95E1F7F801E280F7
:1015E0008AE4C82E82E0D82E60914D0270914E029E
:1015F0006115710509F45AC190914A0220914B027C
:10160000892F82238F3F09F451C140815181A380EA
:10161000B480F0904C02F501E61BF70BFF2009F4B3
:10162000F6C080914F02382F307FE83CF10508F07A
:10163000AFC0311179C0FE2C251323C0941321C0F3
:10164000E1101FC08F70806180934F020E946F0A6B
:10165000C6010E947F0780914F02F80185838F2D7C
:1016600061960FB6F894DEBF0FBECDBFDF91CF916C
:101670001F910F91FF90EF90DF90CF90BF90AF90B0
:101680000895AB2829F0842F85238F3F09F027C1C7
:1016900080E0F82FF170DF2E80FF3CC080911802AF
:1016A0002091190236E0821315C04D875E878D8523
:1016B0009E850E94A809292F22952F702230F0F0D4
:1016C000243018F59F70F1F0F8019581907FD1F4E6
:1016D000D12C1EC090E0389FF001399FF00D1124ED
:1016E000E65EFD4F6181651306C06081641303C02F
:1016F0006281E6120FC001968770D5CF9F7011F0FE
:10170000882331F3805E883018F3C8010E947F0778
:10171000FD2CA5CFEE2009F4A2CF80914F0281606D
:1017200080934F02F12C9BCF251306C0941304C065
:10173000F801EE2009F487C0C8010E94E007882361
:1017400019F1EE2009F180914F02803270F0209162
:101750004A0230914B0238872F831986BB86AA86AE
:101760008C87CE0107960E947F0786E0F801AAE4E5
:10177000B2E001900D928A95E1F70E947D0A0E94E5
:101780006F0AFF24F3946BCFC8010E947F07F9CF43
:10179000311113C07A2DB98AA88A6E2D89890E94C9
:1017A000E7078AE492E00E947F0786E0F601119243
:1017B0008A95E9F70E946F0AB5CF25130FC09413DD
:1017C0000DC0E1100BC0F8018583C8010E947F079E
:1017D00086E0F60111928A95E9F741CFC8010E948F
:1017E000E007882389F2EE2079F280914F0280325F
:1017F00008F4BBCF20914A0230914B023A832983EF
:101800001B82BD82AC828E83CE010196ACCFE83CB8
:10181000F10508F03EC0FE2CEE2009F4B5CF2513EB
:101820002AC0941328C080914F0280FD1BC0982FBE
:10183000907FC1F0F8018583903F31F0982F907F21
:10184000905F8F70892B8583C8010E947F0786E097
:10185000F801AAE4B2E001900D928A95E1F70E94A6
:101860006F0AFDCE86E0F801AAE4B2E001900D9285
:101870008A95E1F7F4CEC8010E94E007811175CF87
:1018800080914F02816080934F02C8010E947F07C0
:10189000E6CE7A2DB98AA88A6E2D89890E94E7073B
:1018A00086E0F60111928A95E9F7D9CFEE2009F486
:1018B0006BCFC8010E94E007F82E882309F464CF9B
:1018C00086E0F801AAE4B2E001900D928A95E1F772
:1018D0008AE492E00E94A3040E947D0AC0CF81E0C6
:1018E0008E25D7CE1F93CF93DF93CDB7DEB72C973E
:1018F0000FB6F894DEBF0FBECDBF4F835887698700
:101900007A878B879C87CE0107960E94D30A88230B
:1019100069F08A859B85892B39F04F815885842F02
:1019200085238F3F09F071C016E05FC086E0FE019D
:101930003796DE01119601900D928A95E1F78A851E
:101940009B85892B89F38F81988589238F3F61F34C
:101950002091190230E0C9010196877099274091C2
:1019600018024817190671F40E94BD071092190257
:101970001092180286E0EAE4F2E0DF011D928A95F7
:10198000E9F7D2CF96E0929FD001939FB00D11243A
:10199000A65EBD4FFE01319601900D929A95E1F73A
:1019A000809319020E944E0ABFCF819FC00111246B
:1019B000865E9D4F0E94D30A8823E9F0E0911802C9
:1019C0001E9FF0011124E65EFD4F4081518162812E
:1019D0007381848195810E94F6078091180290E0BE
:1019E0000196877099278093180280911802909130
:1019F00019028913DACF2C960FB6F894DEBF0FBE0A
:101A0000CDBFDF91CF911F91089569857A858B8530
:101A10009C850E94F60788CF682F809100019091E5
:101A200001010C94D225682F809100019091010151
:101A30000C94D42580910001909101010C94D6253D
:101A400080915002859585958595089580915002E5
:101A50008770089590915002977081E009F480E0BA
:101A600008959091D20292FB222720F9281751F075
:101A700080FB92F99093D2028091D1029091D20290
:101A80000C94300E08958091D20282FB882780F951
:101A900091E089270C94310D81E00C94310D80E0A8
:101AA0000C94310D80915C02089590915C02892B19
:101AB00080935C020895809590915C0298239093A6
:101AC0005C02089510925C02089590915B02892B4C
:101AD00080935B020895809590915B029823909388
:101AE0005B02089510925B02089590915A02892B2F
:101AF00080935A020895809590915A02982390936A
:101B00005A02089510925A02089580915102089540
:101B100008950C94880D9091D20292FD08C0909186
:101B20005102981721F0809351020C94890D089569
:101B300080915102882329F01092510280E00C9488
:101B4000890D0895E0910001F091010180915C02FE
:101B50008083E0910001F0910101808190915B020E
:101B6000892B8083E0910001F091010180819091A7
:101B70005A02892B808390915102992381F0E09140
:101B80000001F09101018081892B80838091000107
:101B9000909101010E948A2581110E94980D8091E7
:101BA0000001909101010C94452508950C94D50DE8
:101BB0009091D20292FD10C098E0899F900111246B
:101BC000622B609350020E947608809150028595A6
:101BD000859585950C94D60D0C947608109250023C
:101BE00080E00C94D60D90915002809589238093CB
:101BF0005002282F277039F4282F082E000C330BA1
:101C00009217130621F49091D20292FF07C0859596
:101C1000859585950E9497080C94EE0D089590E0A7
:101C200080E00E94A52E21E0893E9E4F09F020E031
:101C3000822F089582E090E00C94972E83E090E04C
:101C40000C94972ECF9384E090E00E94972EC82F9B
:101C500082E290E00E94972E982F8C2FCF910895CA
:101C6000CF93C92F682F84E090E00E94AB2E6C2F99
:101C700082E290E0CF910C94AB2EAB01BC018FE0DF
:101C800090E00C94BD2EAB01BC0183E190E00C947C
:101C9000BD2E60E070E0CB010C94430E60E070E07C
:101CA000CB010E943D0E0C94490E69EE7EEF90E050
:101CB00080E00E94C92E60E082E090E00E94AB2E9E
:101CC00060E083E090E00E94AB2E1092140210922C
:101CD0001502109216021092170260E084E090E064
:101CE0000E94AB2E60E082E290E00E94AB2E60E0AA
:101CF00085E090E00E94AB2E60E086E090E00E94DC
:101D0000AB2E6FEF87E090E00E94AB2E40E050E0FA
:101D1000BA0188E090E00E94BD2E60E08DE090E086
:101D20000E94AB2E40E050E0BA0188E190E00E94B2
:101D3000BD2E60E087E190E00E94AB2E40E050E0D5
:101D4000BA018CE190E00E94BD2E70E060E080E27C
:101D500090E00E94C92E40E050E0BA0188E190E096
:101D60000E94BD2E0C944E0E0C94550E682F8EE0E2
:101D700090E00C94AB2E0E94B62660936A0270939A
:101D80006B0280936C0290936D0260936602709375
:101D900067028093680290936902089585B780680E
:101DA00085BF85B7806885BF0895089508950C9410
:101DB000D50E08950C94D90E0E94CE0E8AEA91E1B8
:101DC0000E9422270E94D60E0C94D70E0C948E13DC
:101DD000089508950E94E80E0C94E90E0E94A12631
:101DE0000E94DD250E9487120E94E1200E94A81E09
:101DF0000C94DA0EAF92BF92CF92DF92EF92FF92E5
:101E00000F931F93CF93DF93CDB7DEB72A970FB60B
:101E1000F894DEBF0FBECDBF0E94041381110E9453
:101E2000BB0E8EE5A82E82E0B82E10E000E0C02E9A
:101E3000802F0E94D711E82EF501F1905F01F8166E
:101E400009F44FC080916E0281FD0E94DD118F2D3B
:101E50008E25D12CFF24F394982F9F21E9F10E9425
:101E6000E60E882399F0DE82CF82EF2081E009F42C
:101E700080E088870E94AA268160782F9A878987C8
:101E80004E815F8168858A850E946504F801E25A67
:101E9000FD4F8081F826F0820E94151F0E94A31733
:101EA0000E94322590915D02891791F10E9432259E
:101EB00080935D022A960FB6F894DEBF0FBECDBFA9
:101EC000DF91CF911F910F91FF90EF90DF90CF9016
:101ED000BF90AF900C945D04D394FF0CF7E0DF1239
:101EE000BBCF0F5F1F4F0830110509F0A0CF8FEF58
:101EF00089838A831B820E94AA268160782F9D8312
:101F00008C8349815A816B818D810E946504C4CF85
:101F10002A960FB6F894DEBF0FBECDBFDF91CF91EA
:101F20001F910F91FF90EF90DF90CF90BF90AF90F7
:101F3000089590E080E008950895972F70E027E0DD
:101F4000929F600D711D1124FB0198E3899FE00DA4
:101F5000F11D1124EE0FFF1FE455FF4F8591949161
:101F60000895FC01EE0FFF1FE459FD4F85919491F8
:101F70000895CF93DF930E94D010EC01811520E5E6
:101F8000920708F042C0811530E4930708F0BDC005
:101F9000883E910528F5803E910508F09DC0883A5D
:101FA000910588F4853A910508F08FC0813091053C
:101FB00009F492C0009709F48FC0049708F08CC010
:101FC000D0E0C0E089C08F3B910508F489C0805CF7
:101FD0009109C03CD105A0F30E94B10FEC017CC077
:101FE0008115904250F4C11581E0D80708F074C003
:101FF000CD3ED10528F3D0656FC0C11590E3D90758
:1020000008F079C0CE019F70E7CF811525E59207D2
:1020100058F5811534E5930708F0A6C0811542E50F
:10202000940750F4C11581E5D80708F471C0DC2F7E
:10203000CC27C16FD06A50C0982F969596959E0177
:1020400023703327C115D34508F07FC0C1E0D0E02D
:1020500002C0CC0FDD1F2A95E2F720E2929FC0015B
:102060001124C82BD92B6FC0C11589E5D807A8F456
:10207000C11598E5D90708F07CC0C11526E5D2073F
:1020800008F09ECF8C2F0E946711C82FD0E0DC2F64
:10209000CC27CC27DF71D0621FC0C1153AE5D3072A
:1020A00008F46CC0CE0190568115904208F088CF9C
:1020B0008D2F8F710E94671190E0982F88278827B5
:1020C0009F719C012C2BE901E6CFC55AD0E0C05589
:1020D000DE4FC881D0E0D064CE01DF91CF9108956A
:1020E000C85AD0E0CC0FDD1FCE57DE4F0990D88103
:1020F000C02DD464F1CFCE019927D3FF03C0EC01EA
:10210000D86CEACFEC01D06CE7CFDF70D06AE4CFB7
:10211000CE01E4E096958795EA95E1F783702C2F40
:1021200026952695237090E2299F90011124382B43
:102130008C2F8370C1E0D0E002C0CC0FDD1F8A95E8
:10214000E2F7C22BD32BDC68C7CFC1E0D0E002C0DE
:10215000CC0FDD1F2A95E2F730E2939FC0011124D6
:10216000C82BD92BDA68B8CFD82FCC27C46FD06A48
:10217000B3CFDC2FCC27C06FD06AAECF8C2F8F703F
:102180000E94671134E0D695C7953A95E1F7CF7074
:102190009C2FEC01D069A0CF0E949D0F0C94B90F29
:1021A00082389105B1F1B0F48133910509F475C01D
:1021B00048F48932910509F469C08A32910509F41D
:1021C00073C008958533910509F459C08933910589
:1021D00001F10895833E9105A9F138F4803E9105FF
:1021E000F9F0823E910549F10895863E9105A9F1E5
:1021F000873E9105C9F1843E910519F52091D202DF
:1022000021FF1FC08091D10284FD14C087EE90E0B1
:1022100008952091D1022370A1F080EE90E00895FE
:102220002091D10220FD47C03091D20230FF09C079
:1022300024FF44C090E080E004C02091D10222FD40
:10224000F7CF08952091D10222FD3BC03091D202F8
:1022500030FDE3CF24FFF5CFEDCF2091D10223FF56
:10226000F0CF24FDE7CFD2CF2091D10223FD2CC0A7
:102270003091D20231FFEECF84EE90E008952091AC
:10228000D10225FFDECF89E290E008952091D102AE
:1022900025FFD7CF85E390E008952091D10226FF56
:1022A000D0CF8AE290E008952091D10226FFC9CFD5
:1022B00081E390E0089589E390E0089583EE90E053
:1022C000089582EE90E0089586EE90E00895909152
:1022D000D10292FF06C0282F28712830F9F4877F99
:1022E000846093FF06C0282F28712831F1F4877E7F
:1022F00084612091D20220FF06C0382F3871383017
:10230000D9F4877F816021FF06C0282F28712831EA
:10231000D1F4877E816194FD877E0895282F2471F2
:102320002430F9F68B7F8860DCCF282F247124318C
:1023300001F78B7E8861DDCF382F3171313019F78D
:102340008E7F8860E0CF282F2171213121F78E7E8A
:102350008861E1CF80E0089508950E940F0E8111F9
:1023600002C00E94B40E0E941A0E80936E020E9458
:10237000220E9093D2028093D1020E94AC110E944F
:102380001E0E682F70E090E080E00E9416086091B9
:1023900010027091110280911202909113020C941C
:1023A0004E0808950C94D11108950C94D411E82F7F
:1023B000F0E0E552FD4F80810895089580EA8A9506
:1023C000F1F7089500C008950C94DE11F894E82FF9
:1023D000E295EF70F0E031A1282F2F7081E090E0BE
:1023E00001C0880F2A95EAF7982F9095932391A31F
:1023F00092A1892B82A37894089508950C94FD11DD
:10240000CF93DF9384E90E94E61186E60E94E611ED
:1024100087E90E94E61186EC0E94E611C3EBD1E049
:1024200089918F3F11F00E94E61181E0CA3BD807E5
:10243000B9F7DF91CF910895CF92DF92EF92FF929B
:102440000F931F93CF93DF93EC01D62E062F10E04E
:10245000C80186549E4F7C01FC0180818F3F09F4A6
:102460004BC0F894E82FE295EF70F0E091A18F70E7
:1024700021E030E001C0220F8A95EAF7892F822BF4
:1024800081A382A12095282322A378940E94E2119F
:10249000E3EBF1E030E020E0C12C51E041914F3F0F
:1024A000A1F1A42FA295AF70B0E090968C9190E02E
:1024B0004F7002C0959587954A95E2F780FD25C03B
:1024C000852F022E01C0880F0A94EAF7C82A2F5FD1
:1024D0003F4F2730310511F7F70180818F3F11F011
:1024E0000E94E61161E0C11001C060E08D2D0E94E4
:1024F000E411C00FD11FC882DF91CF911F910F91BE
:10250000FF90EF90DF90CF90089580E0DFCF0E94A2
:10251000A813809102018091020194E0811190E062
:102520009093E40284E0891B8093E3020E940012EE
:10253000E3EDF2E0ABEDB2E011921D9282E0EB3DF3
:10254000F807D1F784E00E9457130E94E5030C942A
:10255000BD131F93CF93DF9300D000D0CDB7DEB76C
:102560000E948E13182F6091E402882309F43FC063
:1025700019821A821B821C82862F90E0BE016F5F37
:102580007F4F85529D4F0E94CB13E091E3029E0145
:102590002B5F3F4FF0E0882301F1BF0165527D4F73
:1025A000DE01119610E0FB014191BF019D91491799
:1025B00031F0AF0141505109FA019083182FA21751
:1025C000B30789F70E94EB03812F0F900F900F90B4
:1025D0000F90DF91CF911F910895E552FD4FDE01DD
:1025E000119611921D92A217B307D9F7EBCF70E0A5
:1025F00065527D4F8091E30290E085529D4F0E948D
:1026000058140E94FE11E0CFEF92FF920F931F9398
:10261000CF93DF93CDB7DEB728970FB6F894DEBF20
:102620000FBECDBF8E010F5F1F4F88E0F8011192E2
:102630008A95E9F7F12C6F2DC8010E941C12F394C2
:10264000F4E0FF12F8CF48E050E0B80183ED92E0EB
:102650000E94812E7C0121E0892B09F420E0E11405
:10266000F10441F088E0F801A3EDB2E001900D9291
:102670008A95E1F76091E40270E065527D4F44E095
:1026800083ED92E00E94581381E090E0EF2811F46E
:102690000E94A91228960FB6F894DEBF0FBECDBFD8
:1026A000DF91CF911F910F91FF90EF9008950895C2
:1026B000FF920F931F93CF93DF93F82E092F162FBE
:1026C000D72FC42F222349F081E0809371020E940A
:1026D000AA269093700280936F02809171028823E2
:1026E000A1F080916F02909170020E94C22605971E
:1026F00060F0EF2DF02FA12FBD2FCE0FDF2FD11DBA
:10270000EC17FD0741F410927102DF91CF911F91F8
:102710000F91FF90089581918D93F2CF8091740273
:10272000811107C00E94CC2D882351F081E0809355
:10273000740281E090917402913009F080E0089574
:1027400082E0809374020E94C72DF3CF0C948E1305
:102750000E94A613809302018091020167E1882301
:1027600049F080E00E9456190E948E13882321F0C0
:102770000C94011487E1F6CF08950E948E13811105
:1027800002C00C940314089581E0909175029A3070
:1027900008F080E008950F931F93CF93DF93EC012F
:1027A0008B01809175028A30B8F4B801CE010E9485
:1027B0005614C82F811122C0809175028F3FB9F441
:1027C0000E94AA2690937302809372028C2FDF914D
:1027D000CF911F910F910895809172029091730291
:1027E0000E94C226843F914000F7C0E0EFCF8F5F88
:1027F000809375028A3020F7C1E0E8CF109275020D
:10280000E5CF0C946C230C946F23EF92FF920F93FF
:102810001F93CF93DF937901C82F880FDD0B4115EC
:102820005105A9F08AE08C9FF0018D9FF00D1124D5
:10283000ED5FFE4F838194818A589D4F228130E065
:102840004217530708F49A01A9010E948E2ECE0167
:102850000E947924892B11F501151105E9F08AE010
:102860008C9FF0018D9FF00D1124ED5FFE4F45818F
:1028700050E00417150708F4A8018AE08C9FF001C6
:102880008D9FF00D1124ED5FFE4F668177816A58B0
:102890007D4FC7010E948E2E81E001C080E0DF9154
:1028A000CF911F910F91FF90EF9008950C94BE155A
:1028B0000C94E2150F931F93CF93DF9300D000D0B9
:1028C000CDB7DEB76091930270919402809195022A
:1028D000909196020E94D12611E06436710581051F
:1028E000910518F10E9403266E5F7F4F8F4F9F4F17
:1028F00069837A838B839C8310E000E030E020E0E2
:1029000044E050E0BE016F5F7F4F82E00E940514FB
:10291000182F882351F00E94B6266093930270937B
:1029200094028093950290939602812F0F900F90BE
:102930000F900F90DF91CF911F910F9108950F93FA
:102940001F93CF93DF93CDB7DEB728970FB6F894D8
:10295000DEBF0FBECDBFCE0101960E94D01D1885EF
:1029600060919702709198028091990290919A02D9
:102970000E94D126643671058105910510F411235A
:10298000C1F010E000E030E020E048E050E0BE019F
:102990006F5F7F4F83E00E940514882369F00E94D7
:1029A000B626609397027093980280939902909351
:1029B0009A020E94CD1D81E028960FB6F894DEBFE2
:1029C0000FBECDBFDF91CF911F910F910895AF92B0
:1029D000BF92CF92DF92EF92FF920F931F93CF930C
:1029E000DF9300D000D00F92CDB7DEB75B01E0904F
:1029F000C201F090C30101E010E09E012B5F3F4F48
:102A000050E040E070E060E080E00E940514182F84
:102A1000882309F44BC067018FEFC81AD80A609168
:102A20008F027091900280919102909192020E9487
:102A3000D126643671058105910580F104E010E02E
:102A40009E012F5F3F4F50E040E070E060E081E08A
:102A50000E940514F82E64E070E0C6010E94E22096
:102A600011E09D81981310E01F2159F10E94B626B4
:102A700060938F02709390028093910290939202E0
:102A800089819A81AB81BC8180938B0290938C0267
:102A9000A0938D02B0938E0211E013C064E070E049
:102AA000C6010E94E2209D818913C8CFF701818170
:102AB0009281A381B48189839A83AB83BC831111F2
:102AC000DFCF80918B0290918C02A0918D02B0910A
:102AD0008E02F50180839183A283B383812F0F90AF
:102AE0000F900F900F900F90DF91CF911F910F914A
:102AF000FF90EF90DF90CF90BF90AF900895AF928E
:102B0000BF92CF92DF92EF92FF920F931F93CF93DA
:102B1000DF937C015B016A010E94C41301E010E0B5
:102B2000882311F00AE010E0C1E0D0E0F894B5018C
:102B3000C701F60109957894811104C021960C17FC
:102B40001D075CF4DF91CF911F910F91FF90EF90E3
:102B5000DF90CF90BF90AF900895CC9F9001CD9F14
:102B6000300D300D112490E080E045E34A95F1F7F7
:102B70000000019682179307C1F7D8CF0F931F93D8
:102B8000CF93DF93EC018B0147EE54E10E947F1558
:102B9000882391F04AE554E1B801CE010E947F15E7
:102BA000882351F04FE954E1B801CE01DF91CF9174
:102BB0001F910F910C947F1580E0DF91CF911F91B1
:102BC0000F9108950F931F93CF93DF93F894C091C3
:102BD000C201D091C301CE01019624E0FB01DC01CA
:102BE00001900D922A95E1F764E070E00E94E220E6
:102BF00088837894F8946D817E818F819885009187
:102C00008702109188022091890230918A02601710
:102C100071078207930751F06093870270938802CF
:102C20008093890290938A020E94E6257894F89412
:102C30008889882331F060E0CE0109960E94E01E69
:102C4000188A7894DF91CF911F910F9108950E9477
:102C500027260E9480280E9499280E94AB280E9463
:102C6000EA0EFBCF8091A10280FF12C0609130017B
:102C700085E0689FB00111247595679575956795F6
:102C800060387105A8F561157105A1F1862F0895C9
:102C900081FF09C06091300185E0689FB001112477
:102CA00075956795EDCF6091300182FD0AC08091E6
:102CB000A0028823D1F090912F01609130018917F3
:102CC00028F085E0689FB0011124DACF869FB0011B
:102CD000112485E0869F9001879F300D1124692F74
:102CE00070E0C9010E94FB2DCBCF65E070E0CECF34
:102CF0008FE7089581E008958091A10280FF0CC0C4
:102D000060912C0170E075956795759567956115D3
:102D1000710549F1862F089581FF06C060912C014D
:102D200070E075956795F3CF60912C0182FD0BC023
:102D300090919F029923A1F060912B0180912C0129
:102D4000961738F0682F70E06038710500F38FE750
:102D50000895899FC001112470E00E94FB2DF4CFDB
:102D600061E070E0D7CF81E008958D3E31F40E949C
:102D7000321681958093A50208958E3E19F40E9423
:102D80003216F8CF8F3E31F40E943216819580932F
:102D9000A4020895803F19F40E943216F8CF893FAB
:102DA00029F40E947C168093A60208958A3F21F49C
:102DB0000E947C168195F7CF8B3F31F40E947C16E0
:102DC00081958093A70208958C3F19F40E947C1688
:102DD000F8CF9FE0980F983070F4815F990B21E055
:102DE00030E001C0220F8A95EAF78091A302822B7E
:102DF0008093A30208958D3F31F48091A1028160F8
:102E00008093A10208958E3F21F48091A1028260F7
:102E1000F7CF8F3FB9F78091A1028460F1CF409145
:102E2000A4028D3E59F48091A50287FF0DC0109237
:102E3000A50241110BC01092A00208C08E3E81F481
:102E40008091A50218169CF3442381F08091A6027C
:102E50009091A702892B09F05AC010929F02089501
:102E60008F3E49F447FFF0CF1092A4028091A50253
:102E70008111ECCFE0CF803F19F41416ACF3E4CF0E
:102E80009091A602893F29F41916F4F61092A60231
:102E9000DBCF8A3F19F497FFD7CFF8CF9091A702E5
:102EA0008B3F29F497FFD0CF1092A702CDCF8C3F54
:102EB00019F41916CCF3C8CF9FE0980F983090F40E
:102EC000815F990B21E030E0B90102C0660F771FE6
:102ED0008A95E2F7CB0180959091A3028923809394
:102EE000A302B2CF8D3F31F48091A1028E7F8093F7
:102EF000A102AACF8E3F21F48091A1028D7FF7CF4E
:102F00008F3F09F0A1CF8091A1028B7FF0CF089570
:102F10000E94AA269C019091A4028091A502982B60
:102F200021F030939E0220939D029091A602809101
:102F3000A702982B21F030939C0220939B0282EAF7
:102F400092E00C945025EF92FF920F931F93CF9332
:102F5000DF9300D000D000D0CDB7DEB786E0E2EA44
:102F6000F2E0DE01119601900D928A95E1F7E09072
:102F7000A402F090A5020091A6021091A70210925F
:102F8000A4021092A5021092A6021092A7028E2D02
:102F90008F2991F080919D0290919E020E94C226FD
:102FA000AC019091A002992309F43FC080913101B6
:102FB0008417150608F447C0802F812B91F080916B
:102FC0009B0290919C020E94C226AC0190919F02AC
:102FD000992309F477C080912D018417150608F410
:102FE0007FC08091A4029091A502892B9091A602A6
:102FF000892B9091A702892B11F00E94881786E0F7
:10300000FE013196A2EAB2E001900D928A95E1F7B5
:1030100026960FB6F894DEBF0FBECDBFDF91CF91DD
:103020001F910F91FF90EF900895209132018AE057
:10303000289F900111242417350708F0BDCF9F5F0A
:103040009093A00202C09F3FD1F7EE2059F00E945A
:1030500032169FEF1E140CF491E0899F802D1124ED
:103060008093A402FF2059F00E9432169FEF1F1494
:103070000CF491E0899F802D11248093A50230915A
:10308000A402332309F498CF2091A502222309F446
:1030900093CF45EB3403C0011124992359F0909349
:1030A000A40245EB240390011124332339F030931B
:1030B000A50282CF81E08093A402F3CF81E08093C8
:1030C000A5027ACF20912E018AE0289F9001112439
:1030D0002417350708F085CF9F5F90939F0202C0A9
:1030E0009F3FD1F7002359F00E947C169FEF1016E6
:1030F0000CF491E0899F802D11248093A602112366
:1031000059F00E947C169FEF11160CF491E0899FF4
:10311000802D11248093A7023091A602332309F455
:1031200060CF2091A702222309F45BCF45EB340343
:10313000C0011124992359F09093A60245EB240372
:1031400090011124332339F03093A7024ACF81E054
:103150008093A602F3CF81E08093A70242CF86E05E
:10316000E2EAF2E0DF011D928A95E9F71092A002EF
:1031700010929F021092A1020895EF92FF920F9376
:103180001F93CF93DF93EB01E82FD11110C044239D
:1031900021F0F0E0ED57FC4FE4916E2F7E2F8E2F43
:1031A000DF91CF911F910F91FF90EF9008950D2F18
:1031B00010E0282F30E0442329F02D573C4FF9012F
:1031C000249130E0F6E0CF9FC0011124EFEFF0E052
:1031D000BF010E94E72DAB018C2F90E0880F991F53
:1031E000A5E5A49FB001A59F700D1124861B970B28
:1031F000982F990F980FBF01601B710B629FD00130
:10320000639FB00D729FB00D11248B2F9D9FB00155
:103210001124672F7727EF01C61BD70BBE01629FD2
:10322000E001639FD00D729FD00D11247F01E91A38
:10323000F108E09EB001E19E700DF09E700D11242A
:10324000672F7727E61BF70BE29F8001E39F100DA6
:10325000F29F100D1124E12F722F4230510599F089
:1032600048F44115510569F04130510581F0EB2FCB
:103270008D2F07C04430510569F080F0463051056C
:10328000B1F76E2F8DCFE22F7B2F812FFACFE22F58
:103290007D2FF7CFEB2F822F712FF3CF7B2F822F34
:1032A000ED2FEFCF41E00C94BD180895E6E3F1E077
:1032B0008083618308950C945219CF93DF93762F06
:1032C000E901682F842F0E945B19798368838A83C0
:1032D000DF91CF910895433808F042E80C945D19CE
:1032E0008091E602982F9E7F61F4817082608093C6
:1032F000E6028091E902833818F082E88093E902BF
:1033000008958A34B0F381708864F1CF88E090E04A
:103310000C949F2ECF92DF92EF92FF926B017C0173
:103320000E947019B701A60188E090E0FF90EF902D
:10333000DF90CF900C94BD2EE6EEF2E083E0808328
:1033400011828FEF828382E883831482A5EBB2E03F
:1033500012968C911297836012968C936081718182
:10336000828193810C948A198091E60280FF02C0C9
:103370008695089580E008959091EA02933018F4BC
:103380009F5F9093EA02882351F06091E60270916A
:10339000E7028091E8029091E9020C948A1908955D
:1033A00081E00C94BC199091EA02992319F0915094
:1033B0009093EA02882351F06091E6027091E7024F
:1033C0008091E8029091E9020C948A19089581E0B5
:1033D0000C94D31970E00C94B52060913701809162
:1033E000E60280FF0AC08091360123E0829FC0017F
:1033F000112485519D4F0C94EA19809138019091C8
:10340000390123E0829FF0011124E551FD4F891716
:1034100050F71182108212828F5F3396F8CF90910D
:10342000E60290FF14C0909138012091390133E0F9
:10343000939FF0011124E551FD4F921710F00C9469
:10344000ED198183608342839F5F3396F6CF0895A1
:10345000CF93DF9300D00F92CDB7DEB79091E60205
:1034600090FF0AC09E012F5F3F4F0E946B194B8156
:1034700069818A810E940F1A0F900F900F90DF913F
:10348000CF910895CF93DF93EC01EC81F0E0E25807
:10349000FD4F4491E6EEF2E0628181810E94281A9C
:1034A0008C818F5F8C83DF91CF910895CF93DF93D1
:1034B000EC01E6EEF2E0438162818C810E94281AE1
:1034C0008C818F5F8C83DF91CF9108950F931F9331
:1034D000CF93DF9300D00F92CDB7DEB78C018091F0
:1034E000A80281110AC09E012F5F3F4F42E86FEF93
:1034F0000E946B198A818093A802F801648161306F
:1035000069F08091A80240E0662361F040E06230FB
:1035100011F44091A80280E060E004C06091A8022C
:1035200040E080E00E940F1AF801848190E001964B
:1035300063E070E00E94FB2D84830F900F900F904A
:10354000DF91CF911F910F910895AF92BF92CF92CB
:10355000DF92EF92FF920F931F93CF93DF9300D0F0
:103560000F92CDB7DEB7182FF62E042FE22E9091D2
:10357000E60290FF3AC0E92FE695AE2FB0E0AC53DB
:10358000BE4F8C918093B5029E7F9230E1F59E01F3
:103590002F5F3F4F812F0E946B194B8169818A8178
:1035A0000E940F1A8091E702811308C08091E802FF
:1035B0008F1104C08091E902801729F08091B70231
:1035C00082608093B7021093E702F092E8020093C2
:1035D000E902EE2051F06091E6027091E7028091DD
:1035E000E8029091E9020E948A190F900F900F90C3
:1035F000DF91CF911F910F91FF90EF90DF90CF90CF
:10360000BF90AF900895823019F40091E902CACFBB
:10361000863019F41091E702C5CF8930D9F389318A
:1036200009F6E9518E2F8170D82EE695F0E0E25828
:10363000FC4FA590B490C12CBB2460913A01C616F2
:1036400018F00E94ED19AECF2C2D30E0A29EC001E3
:10365000A39E900DB29E900D112470E00E94E72D64
:10366000812FD11013C0860F40913801420F532F84
:10367000511D9A01220F331F240F351F25513D4F35
:10368000402F6F2D0E946B19C394D7CF861BECCFB0
:10369000E6EEF2E09181282F438162818AE0890F72
:1036A0000C94A51A81E00C94481BE6EEF2E091819F
:1036B000282F4381628186EF890F0C94A51A81E03F
:1036C0000C94551BE6EEF2E0628121E1620F08F4F2
:1036D0006FEF282F438181810C94A51A81E00C940F
:1036E000621BE6EEF2E0628121E1621B08F460E019
:1036F000282F438181810C94A51A81E00C94711BC1
:10370000E6EEF2E0438121E1420F08F44FEF282F6B
:10371000628181810C94A51A81E00C94801BE6EEF5
:10372000F2E0438121E1421B08F440E0282F62814E
:1037300081810C94A51A81E00C948F1B20E00C94DD
:10374000A51AEF92FF921F93CF93DF93EC0110E045
:10375000EE24EA94F12C60913A01161770F00E9461
:10376000ED199A818C8190FF27C08F5F8C83DF9148
:10377000CF911F91FF90EF90089520913801422F33
:10378000410F5527551FCA019A01220F331F280FD9
:10379000391F25513D4F70E0C7010E94FB2D962F28
:1037A0008C814091E9026091E802199F800D1124FB
:1037B0000E946B191F5FCFCF8150D8CF8F929F92FD
:1037C000AF92BF92CF92DF92EF92FF920F931F932F
:1037D000CF93DF93EC018A81BB24BA9480FD02C0B1
:1037E000BB24B3948C8181110AC081E0B8122AC035
:1037F00080913A0181508093AA0281E08C83A12CB0
:1038000046E3942E80913A01A816F8F00E94ED1933
:103810008091AA0291E0B91261C081115AC08091D1
:103820003A0181508093AA021C82DF91CF911F91AF
:103830000F91FF90EF90DF90CF90BF90AF909F904F
:103840008F9008951092AA02D8CF00913801CA2C07
:10385000D12C0C0D1D2D111DC801880F991F080FAB
:10386000191F05511D4FF80111821082128234E098
:10387000E32EF12C812C8091AA02880D87331CF154
:10388000692D0E94D92D892F082E000C990BC8167E
:10389000D90691F48091E9028E9DA0018F9D500D73
:1038A0001124559547955595479598016091E802E3
:1038B0008091E7020E946B198B0CF1E0EF1AF1087E
:1038C000D1F6A3949FCF87FFDFCF90913A01890F64
:1038D000DBCF81508093AA02BC82A7CF90E00196F3
:1038E00060913A0170E00E94FB2D8093AA028C83C4
:1038F0009CCFEF92FF920F931F93CF93DF93EC0136
:103900008C81811109C081E08C831092A90292E020
:103910009093350180933401809138019091390161
:1039200023E0829FF0011124E551FD4F891768F1D2
:1039300010E003E060913A01161768F10E94ED195A
:10394000809134012091A902280F2093A90290911F
:103950003501980F90933501191654F4022E000C7E
:10396000330B40913A014150550B2417350734F081
:10397000819580933401813009F41C82DF91CF91CD
:103980001F910F91FF90EF90089511821082128283
:103990008F5F3396CBCFE12EF12C70E0C7010E94F0
:1039A000FB2D20913801820F482F50E02091A90271
:1039B000022E000C330BE216F306BCF02091350109
:1039C000022E000C330B2E153F057CF0809F9001DA
:1039D000112425513D4F4091E9026091E802809108
:1039E000E7020E946B191F5FA5CFFA01EE0FFF1FC0
:1039F000E40FF51FE551FD4F118210821282F3CFC3
:103A00008F929F92AF92BF92CF92DF92EF92FF92EE
:103A10000F931F93CF93DF93EC014C81042F10E0A1
:103A20009801D8010E943F2E9B01AC010E94552EA7
:103A30004B015C01E0E2F0E0E01BF10BA5E5B0E03A
:103A4000AC019B010E94552E6B017C019F01DF019F
:103A50000E94372E9B01AC010E94602E9B01AC019D
:103A6000280D391D4A1D5B1DC701B6010E940F2E8E
:103A7000F22E822F90E039E23F1560F143E0249F5F
:103A80009001112435952795122F109500E085E5BA
:103A9000E82EEF1880913A01081758F10E94ED19AD
:103AA0009C8181E0992319F0903219F48FEF809373
:103AB000330180913301890F8C83DF91CF911F9166
:103AC0000F91FF90EF90DF90CF90BF90AF909F90BD
:103AD0008F90089525E530E0B901681B790B9B01B3
:103AE000220F331F260F371F37FFCCCF2F5F3F4FDB
:103AF000C9CF8E2D01FD8F2D20913801622F600FCF
:103B00007727771F9B01220F331F260F371F255161
:103B10003D4F412F6091E8020E946B190F5FBACFB1
:103B20000F931F93CF93DF93EC0110E000E090918F
:103B30003A019017110609F06CF40E94ED198C817E
:103B400090E00196817099278C83DF91CF911F912E
:103B50000F91089520913801A801420F511D9A013B
:103B6000220F331F240F351F25513D4F4C8160918B
:103B7000E8028091E70296959017110651F04CF0FB
:103B8000442349F04091E9020E946B190F5F1F4FD7
:103B9000CECF4423B9F340E0F7CF1092B702089597
:103BA00025E0E6EEF2E0DC0101900D922A95E1F7C6
:103BB0002091B5023091B6024091B702FC012583F5
:103BC000368347830895E5EBF2E0118282818460B9
:103BD00082830895E6EEF2E080818E7F80830E94EA
:103BE000E31DE5EBF2E08281816082832FEF80E7C5
:103BF00092E0215080409040E1F700C000000C941A
:103C0000ED19E6EEF2E080818E7F80836081718124
:103C1000828193810E948A190E94E31DE5EBF2E004
:103C20008281816082832FEF80E792E02150804083
:103C30009040E1F700C000000C94ED196091E6029D
:103C4000669570E04BE050E08BE391E00E94742EAB
:103C5000892B19F481E08093B6020E941E2690936E
:103C6000AF028093AE028091B70284608093B70266
:103C700008959091E60290FF3AC0917081112DC095
:103C800092609093E6028091B70281608093B702C0
:103C9000662351F06091E6027091E7028091E8029C
:103CA0009091E9020E948A196091E602669570E09F
:103CB0004BE050E08BE391E00E94742E892BA1F041
:103CC0000E94E31D81E08093B1024091E90260917E
:103CD000E8028091E7020C949E1B853210F09864F4
:103CE000D0CF880F982BCDCF0E941E1EEBCF08950A
:103CF000682F9091E602969581E0890F853208F051
:103D000081E00C94391E81E00C94781E682F90910C
:103D1000E60296958FEF890F09F484E20C94391E20
:103D200081E00C94861E61E00C94391EE6EEF2E010
:103D300080818160808386950C94931E8091E60239
:103D400080FD0C94011E0C94961E60E00C94391EAC
:103D50008091B402811133C00E940F0E811104C002
:103D60000E94B40E0E949C190E9486196093E6027C
:103D70007093E7028093E8029093E9028091B70282
:103D800083608093B7026E7F61F40E949C190E9449
:103D900086196093E6027093E7028093E80290939D
:103DA000E9020E9470190E94E31D8091E60280FFE3
:103DB00003C086950E94A51E81E08093B4020895F9
:103DC0001F93CF93DF93EC01162F8F8180FF0CC0E0
:103DD000888180FF24C08091E60281608093E602A2
:103DE000888186950E94391E8F8181FF06C0212F10
:103DF0004B816A8189810E94A51A8F8182FF05C04B
:103E00008E81882379F00E941E1E8F8183FF03C05C
:103E100081E08093B102DF91CF911F9108950E94BC
:103E2000EA1DE2CF0E94E31DF0CFEF92FF920F93C5
:103E30001F93CF93DF938091B602882309F462C069
:103E40008091B502E091E602E695E81BE093B002AE
:103E5000823009F05EC0F0E0E658FD4FE491CE2FCD
:103E6000D0E002E41AE18091B102882361F010925F
:103E7000B1020E941E269093AF028093AE02109270
:103E8000B3021092B2020E941E26E091AE02F0919F
:103E9000AF029C012E1B3F0B2F3F3F4798F520910F
:103EA000AD022223B1F01092AD022091AB0230910D
:103EB000AC02821B930B8F3F9F4758F4205D3A481A
:103EC0003093AC022093AB028091B702886080935C
:103ED000B702E090B202F090B302EC0FFD1FF09336
:103EE000AF02E093AE028EEA92E0F801099580916C
:103EF000B2029091B302892B29F4EF2819F081E0E6
:103F00008093AD02DF91CF911F910F91FF90EF90C1
:103F10000895863049F4F0E0E958FD4FE491CE2F42
:103F2000D0E006E51AE19FCF893051F4E695F0E044
:103F3000EC58FD4FE491CE2FD0E001EA1BE193CF86
:103F40008F3051F4E695F0E0EF58FD4FE491CE2F1D
:103F5000D0E00EED1BE187CF853149F4F0E0E25966
:103F6000FD4FE491CE2FD0E009E71CE17CCFC8E201
:103F7000D0E000E01DE1883109F475CF833239F4D7
:103F8000ECE6F2E0C591D49106E61AE16CCFC4EFFD
:103F9000D1E000E91DE1843209F465CFC0EDD7E03E
:103FA00005E519E160CFFA01811101C0FB01099417
:103FB000CF93DF93C82FD62F0E94B4198C1740F0EF
:103FC0000E94B4198D1720F4DF91CF910C94831EB9
:103FD0008C2FDF91CF910C94931E1F93CF93DF937F
:103FE000EC01FB01128111117EC00E94520D827200
:103FF000CD3CFCE5DF0709F49CC008F041C0C73C9C
:10400000ECE5DE0709F481C0D8F4C43C9CE5D9078F
:1040100009F471C030F4C33CDC4509F469C011E017
:1040200062C0C53C9CE5D90709F46AC04FE55BE175
:1040300062E57BE1C63CDC4591F70E94D31F53C08B
:10404000CA3CFCE5DF0709F46AC068F4C83CECE54B
:10405000DE0709F45FC04EE65BE16DE77BE1C93C3A
:10406000DC4559F3DCCFCB3C9CE5D90709F45CC0B7
:1040700047EE59E160ED79E1CC3CDC45F1F2CFCF80
:10408000C23DFCE5DF0709F465C098F4CF3C9CE530
:10409000D90709F457C008F451C0C03DFCE5DF075B
:1040A00009F455C0C13DDC4509F0B9CF6EE089E0A7
:1040B0004BC0C53D9CE5D90709F452C058F4C33D37
:1040C000FCE5DF0709F449C0C43DDC4509F0A7CF92
:1040D00088E135C0C63D9CE5D90709F444C0CE351A
:1040E000DD4509F09CCF812FDF91CF911F9108957D
:1040F0000E949E1EF8CF40E95EE163E87EE19DCF1D
:1041000043E85EE160E97EE198CF42E55BE16FE57F
:104110007BE193CF4DE75BE16EE67BE18ECF4BE930
:104120005BE16CE87BE189CF4CE85BE16BE97BE12B
:1041300084CF40ED59E167EE79E17FCF81E00E94C5
:10414000931ED1CF65E082E00E94D81FCCCF68E0FB
:1041500086E0FACF64E18FE0F7CF67E185E1F4CF45
:1041600062E289E1F1CF83E2EACF529A4BB14B7F11
:104170005BB15460EFB7F8949B01220F331F260FF9
:10418000371F280F391F2817390741F4EFBF8FE574
:1041900094E00197F1F700C000000895DC016D91F3
:1041A000CD0178E05BB9000000C067FF4BB9660F36
:1041B000000000C000C000C04BB900C07A9591F764
:1041C000E2CF0895FC01680F791F8FEF91E36E171E
:1041D0007F0709F408952191822728E030E087FFC6
:1041E00006C0880F892721503109C9F7F0CF880F01
:1041F000FACF0F931F93CF93DF93C42FD22FFC01DD
:1042000082818823C9F04093BA020E94AA26909323
:10421000B9028093B80280E28C0F883008F050C059
:10422000C77081E001C0880FCA95EAF7DF91CF918E
:104230001F910F910C9444051091BA02141335C0CC
:104240008091B8029091B9020E94C226883C9105E3
:1042500060F5C0E2CD0F1D17B9F080E2810F883004
:1042600040F4177081E001C0880F1A95EAF70E94A8
:104270004B05C83048F481E09D2F977001C0880F2E
:104280009A95EAF70E944405802F0E943C05C830A9
:10429000B8F4D77081E001C0880FDA95EAF7DF91B2
:1042A000CF911F910F910C944B0580E28C0F8830B9
:1042B00038F4C77081E001C0880FCA95EAF7EFCFE4
:1042C000DF91CF911F910F9108950F939C01CB0126
:1042D000243F4CE5340759F1A8F4293DFCE53F079C
:1042E00001F12A3D4CE53407D1F1283D3C4591F4DC
:1042F00006E221EE41EE68ED7CE50E94F92080E0C7
:104300000F910895263FFCE53F07E9F0B0F0273F05
:104310003C45F9F0FC018281882339F11092BA0200
:10432000EFCF07E225EE45EE69ED7CE5E6CF06E24C
:1043300021EE40EE64EF7CE5E0CF07E225EE44EEAF
:1043400065EF7CE5DACF06E221EE42EE66EF7CE532
:10435000D4CF07E225EE46EE67EF7CE5CECF08E24C
:1043600021E045EE6AED7CE5C8CF81E0C9CFCF936F
:10437000DF93EC01FB018281882309F420C1C43062
:10438000FDE5DF07C8F5CB3F9CE5D90730F49E017A
:1043900022503C452431310598F50E94220E90931D
:1043A000D2028093D102C031FCE5DF0709F4E0C0FE
:1043B00008F061C0C8309CE5D90709F4CBC088F586
:1043C000C430FCE5DF0709F4B3C0E8F4C2309CE573
:1043D000D90709F4A7C08091D1028260C330DC45BF
:1043E00009F4A3C08091D1029091D2020E94300EB4
:1043F0000E94BD0780E004C0C236EDE5DE0769F229
:10440000DF91CF9108958091D1028061C630FCE5A3
:10441000DF0709F48AC008F48FC08091D10280625E
:1044200084C08091D1028D7FCC309CE5D90709F4FE
:104430007CC070F48091D1028C60CA30FCE5DF074B
:1044400009F473C008F48AC08091D1028E7F6DC0D8
:104450008091D102877FCE309CE5D90709F465C0F1
:104460008091D1028B7FCF30DC4508F45EC0809113
:10447000D1028F7E5AC0CD3FFCE5DF0709F474C03E
:1044800040F5C4319CE5D90709F48AC058F4C2311B
:10449000FCE5DF0709F474C008F46EC08091D10216
:1044A000837F43C0CB3F9CE5D90709F449C008F09E
:1044B0004DC0C531DC4509F095CF8091D10282FB1A
:1044C000992790F921E0922790FB82F990FB83F9DC
:1044D0002CC0C1308DE5D80709F458C088F480910C
:1044E000D2028360CF3FECE5DE0769F18091D20212
:1044F0008D7FC115DD4538F18091D2028C7F23C0BC
:10450000C3308DE5D80709F458C008F452C0C2364C
:10451000DD4509F067CF9091D102892F8F7E94FFFE
:10452000806103C08091D10281608093D1025ACF13
:104530008091D1028460F9CF8091D1028860F5CF5B
:104540008091D20281608093D2024CCF8091D202BE
:104550008260F9CF8091D1028064E7CF0E94BD07CD
:104560008091D1028068E1CF8091D2028E7FEBCF23
:104570008091D1028F7DD9CF8091D1028F7BD5CF11
:104580000E94BD078091D1028F77CFCF8091D20258
:10459000982F909591708E7F892B90FB81F9D3CFC6
:1045A0000E94BD079091D102892F97FB87F980580F
:1045B000BCCF81E00E94B60E15CF80E0FBCF81E03A
:1045C0001FCFCF93DF93EB0186319C4511F50E94FD
:1045D000520D9A81992399F08A7A91E009F490E03A
:1045E0009093BB02811109C089E20E940C0D0E94C8
:1045F000A20D80E0DF91CF91089585E3F6CF809101
:10460000BB02811104C089E20E94130DF0CF85E343
:10461000FBCF81E0EFCF8EE14B9B02C08150E1F7F1
:104620004B9BFECF08955B9880E28A95F1F75B9AE9
:104630000895FC013BE03A95F1F798E020E080E036
:1046400031E040E14A95F1F7880F4B9B02C0816051
:10465000232742E04A95F1F7000040E14A95F1F73F
:10466000915079F790E19A95F1F799B132E03A9546
:10467000F1F7000040E14A95F1F793FB992790F993
:1046800092272081920F90830895EF92FF920F93CB
:104690001F93CF93DF930F92CDB7DEB719828C01B2
:1046A0007C01E60EF11C0E151F0561F481E0998175
:1046B000911180E00F90DF91CF911F910F91FF90AA
:1046C000EF9008950E940B23CE0101960E941923BA
:1046D000F80181938F01E7CF539A5B9A089553981D
:1046E0005B9AEB9AE9E6F0E080818F73808308950E
:1046F0006150770B91E001C0990F6A95EAF720E0CD
:1047000031E0911108C0222391F05B9A80E28A95F2
:10471000F1F75B980895492F482339F05B9A2327D6
:1047200040E24A95F1F79695ECCF5B98F9CF5B980C
:10473000EDCFFF920F931F93CF93DF93EC018C018A
:10474000060F111DC017D10731F4DF91CF911F91D2
:104750000F91FF900895F9900E94132368E08F2D28
:104760000E947823EFCF1F920F920FB60F92112461
:10477000EF92FF920F931F932F933F934F935F936B
:104780006F937F938F939F93AF93BF93EF93FF9319
:10479000CF93DF930F92CDB7DEB719820E940B2320
:1047A000CE0101960E941923A82FA695A695A6953D
:1047B000282F229525709A2F9570290F922F93708C
:1047C00026952695920F982797708981982B09F046
:1047D00075C0A53008F072C080E18A95F1F75B9A48
:1047E000539AB2E0BA95F1F700C05B98EA2EF12C2B
:1047F000EAE0AE9FD0011124AD5FBE4F1896ED9157
:10480000FC9119973097B1F06091C2017091C3018A
:1048100016962D913C911797260F371F13968D9161
:104820009C911497680F791F15964C9115971296C5
:104830008C9109958AE08E9DF0018F9DF00D1124D9
:10484000ED5FFE4F6581662351F02091C2013091EA
:10485000C30186819781820F931F0E9499230E9432
:104860001323F0E1FA95F1F75B9853985B9A80E196
:104870008A95F1F78AE08E9D80018F9D100D11249D
:104880000D5F1E4FD80112966C911297662371F13D
:104890002091C2013091C30113968D919C91820F9A
:1048A000931F0E944523D801ED91FC91882311F0BC
:1048B00088E001C082E080830E940B230F90DF918B
:1048C000CF91FF91EF91BF91AF919F918F917F9188
:1048D0006F915F914F913F912F911F910F91FF9099
:1048E000EF900F900FBE0F901F901895ED91FC91D7
:1048F000DFCF0F931F93CF93DF93EC0105970CF05D
:10490000A9C08AE08C9FF0018D9FF00D1124ED5F0E
:10491000FE4F80819181892B09F49CC0F894539AB1
:104920005B9885E08A95F1F700008C2F869585705D
:104930009C2F9570890F982F937086958695890F77
:104940008E0193E0000F111F9A95E1F7082B0E944A
:10495000132300C068E0802F0E947823A0E1AA956D
:10496000F1F753985B9A4B9B27C087E090E04B99F7
:1049700025C08AE08C9F80018D9F100D11240D5F52
:104980001E4FF80165816623A1F12091C20130918B
:10499000C30186819781820F931F0E944523811155
:1049A00028C0539A5B9AD801ED91FC9182E08083F4
:1049B000789482E090E016C000C0D5CF0197B9F49A
:1049C000539A5B9A8AE08C9FF0018D9FF00D112421
:1049D000ED5FFE4F0190F081E02D81E080837894BF
:1049E00081E090E0DF91CF911F910F91089500C079
:1049F000BECF0E940B23B0E2BA95F1F75B98539AB1
:104A0000E0E1EA95F1F78AE08C9FF0018D9FF00DCF
:104A10001124ED5FFE4F6281662351F02091C201A7
:104A20003091C30183819481820F931F0E94992347
:104A30000E9413238AE08C9FF0018D9FF00D1124BA
:104A4000ED5FFE4F0190F081E02D1082789490E0B0
:104A500080E0C8CF84E090E0C5CF9093C2028093FD
:104A6000C10208950E948E13811103C08091BC027F
:104A70000895E091C102F091C202309721F00190B7
:104A8000F081E02D099480E00895E091C102F09159
:104A9000C202309721F00280F381E02D099408953D
:104AA000E091C102F091C202309739F022E0DC01BE
:104AB0002C930480F581E02D099408952091BF0284
:104AC0003091C0022817390771F09093C00280938B
:104AD000BF02E091C102F091C202309721F006803E
:104AE000F781E02D099408952091BD023091BE0216
:104AF0002817390771F09093BE028093BD02E091B0
:104B0000C102F091C202309721F00084F185E02DBE
:104B1000099408959C012E5F3F4FAC01485F5F4FA1
:104B200080E02417350709F40895F90191919F0158
:104B30009923B9F38F5FF5CF662349F0FC013296D4
:104B400008962191261729F0E817F907D1F780E098
:104B5000089581E008959C01FC0132969FEF80E06A
:104B60004191461751F09F3F19F4411101C0982F10
:104B70008F5F8630A9F79F3F09F40895290F311DF3
:104B800097FD3A95F90162830895FC0132960896E3
:104B90002191261303C0DF0111971C92E817F90732
:104BA000B9F708950C94AB250C94C525029626E020
:104BB000FC0111922A95E9F7089510928D03109245
:104BC0008E0310928F03109290030895CF92DF927C
:104BD000EF92FF926B017C010E948E1381110EC037
:104BE0000E94B626C61AD70AE80AF90AC0928D03AF
:104BF000D0928E03E0928F03F0929003FF90EF909B
:104C0000DF90CF9008950F931F930E948E138823F7
:104C100021F01F910F910C94B6260E94B6260091A8
:104C20008D0310918E0320918F0330919003600FBC
:104C3000711F821F931F1F910F9108950E948E1361
:104C400081110C94AA260E940326CB010895089591
:104C5000089508950C94292680919903843049F190
:104C60000E942A2680E00E945D041092C30288E11F
:104C700090E020E40FB6F894A895809360000FBEF2
:104C80002093600083B7817F846083BF83B7816096
:104C900083BF7894889583B78E7F83BF0FB6F894CF
:104CA000A8958091600088618093600010926000F8
:104CB0000FBE08950895CF930E9428260E940413E2
:104CC0000E945A26C0E08C2F0E94D711811105C086
:104CD000CF5FC830C1F7CF91089581E0FCCF089530
:104CE0000C946F260E94BD070E9432250E945D042D
:104CF0000C9470261F921FB61F9211248F939F93BE
:104D0000AF93BF938091C302811113C0809191032F
:104D100090919203A0919303B09194034196A11DA9
:104D2000B11D8093910390939203A0939303B0934A
:104D30009403BF91AF919F918F911F901FBE1F90C1
:104D4000189582E084BD93E095BD9AEF97BD80935E
:104D50006E0008952FB7F89480919103909192037B
:104D6000A0919303B09194032FBF08952FB7F894A7
:104D700060919103709192038091930390919403B9
:104D80002FBF08959C014FB7F894809191039091A3
:104D90009203A0919303B09194034FBF821B930B96
:104DA0000895CF92DF92EF92FF922FB7F894C090C0
:104DB0009103D0909203E0909303F09094032FBF5F
:104DC000A7019601261B370B480B590BCA01B901E5
:104DD000FF90EF90DF90CF90089578941F921FB6C8
:104DE0001F9211248F939F93AF93BF938091910350
:104DF00090919203A0919303B09194030196A11D09
:104E0000B11D8093910390939203A0939303B09369
:104E10009403BF91AF919F918F911F901FBE1F90E0
:104E2000189587E797E7909301088093000888E139
:104E30009AE00FB6F894A895809360000FBE909307
:104E40006000FFCF9093EB018093EA010895809179
:104E5000CF02089590919903943031F58093C40264
:104E60007093C6026093C50282E08093E9008FEFE1
:104E70009091E800815095FD06C095ED9A95F1F767
:104E800000008111F5CF8091E80085FF0DC050E052
:104E900040E063E070E084EC92E00E94362980916B
:104EA000E8008E778093E8000895BC0184E00C94BC
:104EB0002A27BC0183E00C942A279C0182E080937E
:104EC000E9009FEF8091E800915085FD06C085EDD7
:104ED0008A95F1F700009111F5CF8091E80085FFE8
:104EE0000CC050E040E066E070E0C9010E94362945
:104EF0008091E8008E778093E8000895CF93DF9348
:104F0000EC0181E08093E9008FEF9091E8008150FF
:104F100095FD06C095ED9A95F1F700008111F5CF4A
:104F20008091E80085FF14C050E040E068E070E048
:104F3000CE010E9436298091E8008E778093E800A8
:104F400088E0FE01A7ECB2E001900D928A95E1F7AE
:104F5000DF91CF91089580919803811109C00E943B
:104F6000C62A0E94232B8091E20084608093E20095
:104F7000089510929803089508950895089542E0C1
:104F800061EC81E00E94422A42E261EC82E00C94F2
:104F9000422A80919B03833009F45FC030F4813052
:104FA000C1F1823009F49BC008958A3009F487C0AA
:104FB0008B3009F46DC0893009F04EC080919A039E
:104FC000813209F049C080919E0390919F0302971E
:104FD00008F042C08091E800877F8093E8008091CC
:104FE000E80082FF35C09091F3008091F2000297B3
:104FF00029F48091F1008B7F813021F48091F100C0
:105000008093CF028091E8008B778093E8000C9426
:10501000762A80919A03813AF9F48091E800877F9B
:105020008093E80080919E0390919F03892B61F407
:1050300068E087EC92E070E00E9485298091E800AA
:105040008B778093E800089560E090E080E0F3CFF4
:10505000809199038111C3CF089580919A03813A79
:10506000D9F780919E0390919F03892BA9F7809196
:10507000E800877F8093E8008091E80080FFFCCF04
:10508000809150018093F1008091E8008E77BDCF30
:1050900080919A03813201F780919E0390919F0342
:1050A000892BD1F68091E800877F8093E8000E94E9
:1050B000762A80919C03809350010C94BD078091C7
:1050C0009A03813249F68091E800877F8093E80057
:1050D0000E94762A80919D038093D002089580914A
:1050E0009A03813A09F0B8CF8091E800877F8093D6
:1050F000E8008091E80080FFFCCF8091D002C2CF11
:1051000084B7877F84BF0FB6F894A895809160001C
:10511000886180936000109260000FBE80E890E08C
:105120000FB6F89480936100909361000FBE0C94C9
:10513000DC0E0E94C62A0E94232BE2EEF0E0808162
:105140008460808378940E94AC2D0E94EE0E86E4E9
:1051500091E00C942D2580919903853031F4809154
:105160009903853021F00E9472260C94FA0E0E9459
:105170002C2680919703882391F30E945B26882335
:1051800071F30E9420290E94BD07E9CF0C94C82822
:10519000292F33272330310519F168F421303105E7
:1051A00009F444C02230310509F445C090E080E0A4
:1051B00030E020E025C02132310549F122323105AD
:1051C000A9F780E490E02BE935E061157105C1F0A5
:1051D0008BE790E020E235E06130710589F0E6CFA1
:1051E00099278130910581F0009729F00297F1F617
:1051F000E3E8F4E002C0EFECF4E0849190E09F017A
:10520000FA01318320830895EDEAF4E0F6CF89E0D6
:1052100090E025EE34E06115710591F389E090E0AE
:105220002EEF34E06130710559F3C0CF82E190E098
:105230002EE035E0E5CF8BE390E023ED34E0E0CFE6
:1052400080E189BD82E189BD09B400FEFDCF809176
:10525000D8008F7D8093D8008091E0008260809399
:10526000E0008091E00081FDFCCF0895AF92BF92F5
:10527000CF92DF92FF920F931F93CF93DF936C0136
:10528000EB018A010E94952AF82E811123C0011595
:10529000110539F0F80180819181C81BD90BC80E26
:1052A000D91EB12CA12C2097A9F08091E80085FD92
:1052B00022C08091E8008E778093E80001151105E7
:1052C000A1F0F80180819181A80EB91EB182A0825F
:1052D00085E0F82E8F2DDF91CF911F910F91FF90D8
:1052E000DF90CF90BF90AF9008950E94952A8823B9
:1052F000D1F2F82EEFCFF60181916F018093F1008A
:105300002197FFEFAF1ABF0ACECFFC018091A00317
:105310009091A10386179707A0F06115710529F4F4
:105320009091E8009E779093E80090E061157105F8
:1053300051F4911108C08091E80082FF34C080E0F0
:105340000895BC01F2CF809199038823C1F1853083
:10535000C1F18091E80083FD30C08091E80082FDBA
:10536000EACF8091E80080FFE1CF8091F3002091A7
:10537000F200382F6115710519F02830310558F009
:1053800091E02830310509F090E02091E8002E7777
:105390002093E800CBCF81918093F1006150710997
:1053A0002F5F3F4FE7CF80919903882341F08530ED
:1053B00041F08091E80083FFBECF81E0089582E054
:1053C000089583E00895FC018091A0039091A103CA
:1053D00086179707A0F06115710529F48091E80000
:1053E0008E778093E80090E06115710551F491117A
:1053F00008C08091E80082FF35C080E00895BC01BC
:10540000F2CF809199038823C9F18530C9F1809149
:10541000E80083FD31C08091E80082FDEACF8091F1
:10542000E80080FFE1CF8091F3002091F200382F57
:105430006115710519F02830310558F091E02830D8
:10544000310509F090E08091E8008E778093E800C4
:10545000CBCF84918093F1003196615071092F5F19
:105460003F4FE6CF80919903882341F0853041F08A
:105470008091E80083FFBDCF81E0089582E0089528
:1054800083E00895982F973028F08F708093E9007B
:1054900081E008959093E900242F762F50E098172B
:1054A00031F07091EC002091ED005091F00021FD61
:1054B00002C09F5FE8CF3091EB003E7F3093EB005E
:1054C0003091ED003D7F3093ED003091EB00316085
:1054D0003093EB007093EC002093ED005093F000BC
:1054E0002091EE0027FDE5CF80E0089580919A039A
:1054F00087FF13C08091E80082FF06C08091E8001A
:105500008B778093E80004C0809199038111F2CFDA
:105510000895809199038823D9F38091E80080FF52
:10552000F8CF8091E8008E77ECCF2091E4003091A5
:10553000E50095E6A9012091EC00822F817020FF03
:1055400006C08091E80080FF06C080E008952091A9
:10555000E80022FD1AC080919903882389F08530E4
:1055600089F08091EB0085FD0FC02091E40030911F
:10557000E50042175307F9F29150E1F684E00895EF
:1055800082E0089583E0089581E008950E94342B1D
:105590000E943C2BE0EEF0E0808181608083E8EDAA
:1055A000F0E080818F77808319BCA7EDB0E08C910B
:1055B0008E7F8C9380818F7E8083109298030895D4
:1055C0000F931F93CF93DF930E94342B0E943C2BA9
:1055D000C8EDD0E088818F77888388818068888350
:1055E00088818F7D888319BC10929903109295034E
:1055F000109297031092960300EE10E0F80180815C
:105600008B7F808388818160888342E060E080E0D6
:105610000E94422AE1EEF0E080818E7F8083E2EEFC
:10562000F0E0808181608083808188608083F801E0
:1056300080818E7F8083888180618883DF91CF9194
:105640001F910F910895E8EDF0E080818F7E8083B7
:10565000E7EDF0E080818160808384E082BF81E0BB
:10566000809398030C94E02AE8EDF0E080818E7F2F
:1056700080831092E20008951092DA001092E10007
:1056800008951F920F920FB60F9211242F933F93FC
:105690004F935F936F937F938F939F93AF93BF933A
:1056A000EF93FF938091E10082FF0BC08091E200B5
:1056B00082FF07C08091E1008B7F8093E1000E9410
:1056C000AB2D8091DA0080FF19C08091D80080FF57
:1056D00015C08091DA008E7F8093DA008091D90026
:1056E00080FF96C080E189BD82E189BD09B400FEDA
:1056F000FDCF81E0809399030E94AB278091E10068
:1057000080FF19C08091E20080FF15C08091E20007
:105710008E7F8093E2008091E20080618093E200BE
:105720008091D80080628093D80019BC85E0809376
:1057300099030E94BD278091E10084FF2BC08091D6
:10574000E20084FF27C080E189BD82E189BD89B57F
:10575000982F917080FFFBCF8091D8008F7D809330
:10576000D8008091E1008F7E8093E1008091E2007B
:105770008F7E8093E2008091E20081608093E2005E
:1057800080919503882309F449C084E080939903AC
:105790000E94BE278091E10083FF29C08091E20032
:1057A00083FF25C08091E100877F8093E10082E044
:1057B00080939903109295038091E1008E7F8093EE
:1057C000E1008091E2008E7F8093E2008091E20010
:1057D00080618093E20042E060E080E00E94422A23
:1057E0008091F00088608093F0000E94BC27FF91B8
:1057F000EF91BF91AF919F918F917F916F915F9149
:105800004F913F912F910F900FBE0F901F901895C1
:1058100019BC109299030E94B92770CF8091E300C0
:1058200087FD93E090939903B3CF1F920F920FB629
:105830000F9211242F933F934F935F936F937F9316
:105840008F939F93AF93BF93CF93DF93EF93FF9388
:10585000D091E900DF708091EC00C82FC17080FD0D
:10586000C0E81092E9008091F000877F8093F000FB
:1058700078940E94592C1092E9008091F000886081
:105880008093F000CD2BCF70C093E900FF91EF9192
:10589000DF91CF91BF91AF919F918F917F916F9148
:1058A0005F914F913F912F910F900FBE0F901F90DE
:1058B00018951F93CF93DF93CDB7DEB7AA970FB696
:1058C000F894DEBF0FBECDBF8AE993E02091F100CE
:1058D000FC012193CF01F3E0823A9F07B9F70E94C0
:1058E000C9278091E80083FF1EC180919A0390919F
:1058F0009B039A3008F017C1E92FF0E0E150F14D19
:105900000C94312E803899F0823809F00CC18091C6
:105910009E038F70873008F006C18093E900809164
:10592000EB0085FB882780F91092E90006C0809182
:10593000960390919703911182609091E800977F70
:105940009093E8008093F1001092F1008091E800BC
:105950008E77E5C0882309F4D3C0823009F0E3C014
:1059600080919C038111D6C080919E038F702FEF90
:10597000280F263008F0D7C08093E9002091EB0073
:1059800020FFC8C0933031F48091EB008062809397
:10599000EB00C0C09091EB0090619093EB0021E090
:1059A00030E001C0220F8A95EAF72093EA001092B6
:1059B000EA008091EB008860EACF8111B4C01091B9
:1059C0009C031F778091E3008078812B8093E30014
:1059D0008091E800877F8093E8000E94762A80917A
:1059E000E80080FFFCCF8091E30080688093E300B3
:1059F00082E0111183E08093990395C08058823032
:105A000008F091C080919C0390919D038C3D23E010
:105A10009207A1F583E08A838AE289834FB7F894DD
:105A2000DE01139620E03EE051E2E32FF0E05093D8
:105A30005700E49120FF03C0E295EF703F5FEF70E5
:105A40008E2F90E0EA30C0F0C7968D939D932F5F24
:105A5000243159F74FBF8091E800877F8093E80099
:105A60006AE270E0CE0101960E9485298091E800EB
:105A70008B778093E80057C0C096E7CF60919E0374
:105A800070919F03AE014F5F5F4F0E94C628BC011B
:105A9000892B09F448C09091E800977F9093E80023
:105AA00089819A810E94E329E1CF8038E1F58091D4
:105AB000E800877F8093E800809195038093F10050
:105AC00045CF811130C090919C03923060F5809158
:105AD000E800877F8093E800909395030E94762AE0
