:100000000C9461020C947E020C947E020C947E028D
:100010000C944D2E0C947E020C947E020C947E0265
:100020000C947E020C947E020C94882C0C94602D0F
:100030000C943D2C0C947E020C947E020C947E0257
:100040000C947E020C947E020C947E020C947E0230
:100050000C947E020C94642C0C947E020C947E0210
:100060000C947E020C947E020C947E020C947E0210
:100070000C947E020C947E020C947E020C947E0200
:100080000C947E020C947E020C947E020C947E02F0
:100090000C947E020C947E020C947E020C947E02E0
:1000A0000C947E020C947E020C947E0205010902DF
:1000B000A10185020901A1000509190129081500FE
:1000C0002501950875018102050109300931158165
:1000D000257F95027508810609381581257F9501D0
:1000E00075088106050C0A38021581257F95017572
:1000F000088106C0C005010980A101850319012AF4
:10010000B700150126B700950175108100C0050CD8
:100110000901A101850419012AA002150126A002E6
:10012000950175108100C005010906A10105071997
:10013000E029E715002501950875018102950175F3
:100140000881010507190029FF150026FF00950603
:1001500075088100050819012905950575019102A9
:10016000950175039101C009023B00020100A0FA4C
:10017000090400000103010100092111010001220D
:100180004000070581030800010904010001030084
:100190000000092111010001227B000705820320D4
:1001A00000011201000200000008EDFE0000010045
:1001B00001020001280341006E00670065006C0029
:1001C000770069006E006700730020004B00650037
:1001D000790062006F0061007200640000001E037D
:1001E00044006C005300670076005F0061006E0001
:1001F00064005F004E004D00310037000000040332
:1002000009040001010101010101010102020202D0
:1002100002020202020303030303030303040404B0
:100220000404040405050505050606060606070779
:1002300007070708080808090909090A0A0A0B0B31
:100240000B0C0C0C0D0D0D0E0E0E0F0F0F101011D0
:100250001111121213131414151516161717181856
:1002600019191A1A1B1B1C1D1D1E1E1F20202122BE
:1002700022232424252626272829292A2B2C2D2D04
:100280002E2F30313232333435363738393A3B3C21
:100290003D3E3F404142434445464748494A4C4D14
:1002A0004E4F50515354555658595A5B5D5E5F61DD
:1002B0006264656668696B6C6D6F70727375777870
:1002C0007A7B7D7E8082838587888A8C8E8F9193CE
:1002D0009596989A9C9EA0A2A3A5A7A9ABADAFB1F5
:1002E000B3B5B7BABCBEC0C2C4C6C9CBCDCFD1D4DA
:1002F000D6D8DBDDDFE2E4E7E9EBEEF0F3F5F8FA80
:10030000FDFF2900350014001A0008001500170031
:100310004B00E00004001600070009000A0000007E
:10032000E2001D001B00060019000500000000008F
:10033000000000004C422A62E34130002F0013000D
:1003400012000C0018001C004E00347133000F0026
:100350000E000D000B00000031743800370036002D
:100360001000110000000000000000002B422C7261
:100370002841A8002D023A003B003C003D003E0011
:10038000010057001E021F0220022102220200006B
:1003900056001E001F002000210022000000000067
:1003A000000000000100010001004500440043007E
:1003B0004200410040003F0001002E0027022602BB
:1003C0002502240223020000010027002600250048
:1003D00024002300000000000000000001000100D4
:1003E00001000100530054005F00600061005600EE
:1003F000A900670055005C005D005E00570000002A
:100400000100620059005A005B00850000000000F6
:100410000000000001000100010001003900470058
:1004200046004A004D000100AA00650049004F0047
:100430005200500001000000010048004E00510031
:100440004D0001000000000000000000010001005C
:10045000010001000100175C1A5C185C010001003A
:100460000100C35CC65CC85CCA5CCC5C01000000D7
:10047000C45CC75CC95CCB5CCD5C010000000000C3
:100480000000000001000100010001000100010066
:10049000F200FE00F100F900010001000100F0008F
:1004A000ED00EF00FA00000001000100FF00EE0087
:1004B000FD0001000000000000000000010001003C
:1004C000010011241FBECFEFDAE0DEBFCDBF24E074
:1004D000A2E4B2E001C01D92A43EB207E1F712E02F
:1004E000A0E0B1E0E8E3F3E602C005900D92A2348B
:1004F000B107D9F70E94CF280C9422310C94000048
:10050000292F9830A0F5873090F590E037E0239FB1
:10051000800D911D1124282F277041E001C0440F48
:100520002A95EAF723E0969587952A95E1F725E045
:10053000289FF001299FF00D1124E759FB4F20E07F
:1005400030E070E05191DF011197CB01022E02C023
:10055000969587950A94E2F7817081958527842383
:1005600085278C932F5F3F4F2530310559F708952C
:10057000292F983080F5873070F590E037E0239F81
:10058000800D911D1124682F677023E09695879543
:100590002A95E1F725E0289FF001299FF00D11240D
:1005A000E759FB4F40E050E080E0219130E0062E1B
:1005B00002C0369527950A94E2F721703327042E5E
:1005C00001C0220F0A94EAF7822B4F5F5F4F45303C
:1005D000510559F7089580E008958091AD049091F8
:1005E000AC04981301C008958F5F8770FACFE6E4DA
:1005F000F2E09191891303C0DF0111971C9292E000
:10060000EC34F907B1F70895982F909580919E04E6
:10061000892380939E04089580919F0481111092F4
:100620009F0408957830A8F4673098F4E62FF0E03E
:1006300097E0799FE00DF11D112498E3899FE00D6B
:10064000F11D1124EE0FFF1FEE5FFC4F8591949179
:10065000089580E090E008959091A90492FF06C06B
:10066000282F28712830F9F4877F846093FF06C013
:10067000282F28712831F1F4877E84612091AA0403
:1006800020FF06C0382F38713830D9F4877F816059
:1006900021FF06C0282F28712831D1F4877E81617F
:1006A00094FD877E0895282F24712430F9F68B7FDE
:1006B0008860DCCF282F2471243101F78B7E88617C
:1006C000DDCF382F3171313019F78E7F8860E0CF60
:1006D000282F2171213121F78E7E8861E1CFCF93C0
:1006E000DF93EC01803E910509F46EC090F58133F3
:1006F000910509F4B2C088F48932910509F4A6C0C5
:100700008A32910509F4B0C0019709F46EC0CE0198
:100710000497813A9105D0F468C08933910509F4B2
:100720004BC08238910509F447C08533910509F41F
:1007300086C0883A910530F4853A910540F3A49734
:10074000D06453C08F3B910508F4FBC0C0E0D0E0FB
:100750004CC0843E910509F457C070F4823E910567
:1007600009F43FC0833E910509F443C0CD3ED10555
:1007700008F481C0D06539C0863E910509F44FC0A8
:10078000873E910509F450C0811523E5920708F0D2
:1007900089C0811532E5930708F0FBC08F3F9105B2
:1007A00029F320F3811541E5940708F469C0D82F97
:1007B000CC27C16FD06A19C08091A90483708823A7
:1007C000A1F0C0EED0E011C08091A90480FD0AC163
:1007D0009091AA0490FF09C0C3EED0E084FDB6CF8B
:1007E00004C08091A90482FDF7CFCE01DF91CF91A3
:1007F00008958091A90482FDF8C09091AA0490FD0B
:10080000E0CF84FFF2CFA2CF8091AA0481FFEDCF89
:100810008091A904C7EED0E084FD98CFE6CF809107
:10082000A90483FDF7CFE1CF8091A90483FDE0C047
:100830009091AA0491FFE5CFC4EED0E0D6CF80918D
:10084000A90485FFD2CFC9E2D0E0CFCF8091A9041F
:1008500085FFCBCFC5E3D0E0C8CF8091A90486FF48
:10086000C4CFCAE2D0E0C1CF8091A90486FFBDCF3A
:10087000C1E3D0E0BACFCE01805E910907974BCF9C
:10088000811550E5950708F067C0811560E296076D
:1008900008F4ABCF90548115904108F057CFDF702A
:1008A000D06AA3CF811539E59307A0F5811548E5F6
:1008B000940708F084C0811555E59507D0F481159B
:1008C00064E5960708F076C08695869520E2829FBB
:1008D000C0011124C370DD2721E030E0A90102C06E
:1008E000440F551FCA95E2F7EA01C82BD92BDA68E5
:1008F0007CCF95558F3F910511F008F027CF8C2FB5
:100900000E942C03C82FD0E0DC2FCC27CC27DF712E
:10091000D0626BCFC1158AE5D80708F455C0CE0167
:1009200090568115904208F011CF8D2F8F710E9443
:100930002C0390E0982F882788279F718C2BEC013F
:10094000E7CFC85AD0E0CC0FDD1FCC5EDD4F099059
:10095000D881C02DD46449CF9C0174E03695279589
:100960007A95E1F7237086958695837030E2839FB0
:10097000C0011124922BC37021E030E0A90102C014
:10098000440F551FCA95E2F7EA01C82BD92BDC6842
:100990002CCF8695869550E2859FC0011124C370A7
:1009A000DD2721E030E0A90102C0440F551FCA95A0
:1009B000E2F7EACFD82FCC27C46FD06A16CFD82F52
:1009C000CC27C06FD06A11CF8C2F8F700E942C0360
:1009D00034E0D695C7953A95E1F7CF709C2FEC019E
:1009E000D06903CFC9E3D0E000CFC2EED0E0FDCEA6
:1009F000C6EED0E0FACEA0E0B0E0E1E0F5E00C9485
:100A0000712F8C01C090A404D090A504E090A6049E
:100A1000F090A7048091A0049091A104A091A20459
:100A2000B091A304C82AD92AEA2AFB2ACFE1D0E050
:100A3000D701C6010C2E04C0B695A795979587954A
:100A40000A94D2F780FD09C0219790F7B12C8B2D25
:100A5000CDB7DEB7E9E00C948D2FBC2EB8018C2FFA
:100A60000E9412030E946F03019771F3F0CF0F935E
:100A70001F93CF93FC01828100811181882391F023
:100A8000662381F0C8010E94FB04C82F682FC801AB
:100A90000E948002B8018C2F0E941203CF911F91F7
:100AA0000F910895C8010E94B802C82FF3CFCF93C9
:100AB000DF93D82FC92F0E94FB046D2F7C2F0E943B
:100AC00012030E946F03DF91CF91089580E0089593
:100AD000F894E82FE295EF70F0E041A18F7021E0EB
:100AE00030E0B90102C0660F771F8A95E2F7CB01AB
:100AF000962F9095942391A392A1892B82A3789409
:100B0000089580918C0480FD14C081FD14C082FD85
:100B100016C080918E04882381F08E3180F420E508
:100B2000829FC00111246EE170E00E94B32F862FD6
:100B3000089584E1089588E2089588E0089580E5A5
:100B4000089580918C0480FD17C081FD17C082FD3F
:100B500019C080918D04882399F0883298F428E098
:100B6000829FC001112468E270E00E94B32F6115DA
:100B7000710551F0862F089562E0FCCF64E0FACF52
:100B800061E0F8CF68E0F6CF81E00895E3E1E80F97
:100B90008D3EE0F1F0E0EC5DFE4C0C94C72F0E941E
:100BA000810581958093920408950E948105FACF72
:100BB0000E94810581958093910408950E9481058A
:100BC000FACF0E94A1058093930408950E94A10585
:100BD0008195F9CF0E94A105819580939404089591
:100BE0000E94A105FACF815F990B21E030E001C09E
:100BF000220F8A95EAF780919004822B80939004CB
:100C0000089580918C04816080938C040895809174
:100C10008C048260F9CF80918C048460F5CF409180
:100C200091048D3E59F48091920487FF0DC010927B
:100C30009204442359F410928E0408C08E3E81F42D
:100C40008091920418169CF3442381F080919304C0
:100C500090919404892B811159C010928D040895AC
:100C60008F3E41F447FFF0CF10929104809192049F
:100C70008823E0CF803F19F41416B4F3E5CF9091A8
:100C80009304893F29F41916FCF610929304DCCFE3
:100C90008A3F19F497FFD8CFF8CF909194048B3FF7
:100CA00029F497FFD1CF10929404CECF8C3F19F442
:100CB0001916CCF3C9CF9FE0980F983090F4815F5C
:100CC000990B21E030E0B90102C0660F771F8A95C9
:100CD000E2F7CB0180959091900489238093900452
:100CE000B3CF8D3F31F480918C048E7F80938C0440
:100CF000ABCF8E3F21F480918C048D7FF7CF8F3F57
:100D000009F0A2CF80918C048B7FF0CF0895A0E0F2
:100D1000B0E0EDE8F6E00C94702FE82FF0E0EE5F25
:100D2000FD4F711109C0E4918E2F7E2F6E2FCDB72C
:100D3000DEB7EAE00C948C2F262F30E0C72FD0E0EE
:100D4000F491EF2F86E0829F8001839F100D112484
:100D5000EE24EA94F12CC801B7010E949F2FAB0149
:100D6000220F331F65E5649FC001659F900D11241C
:100D7000281B390B822F880F280FC7018C1B9D0B56
:100D8000F89FD001F99FB00D11248B2F2C9FB0013B
:100D90002D9F700D1124672F77275701A61AB70AC8
:100DA000FA9D6001FB9DD00C11247D2D5701A21AE4
:100DB000B10895012C9F50012D9FB00C3C9FB00CA9
:100DC0001124AB2CBB24EA18FB08FE9DE001FF9D1B
:100DD000D00D112443305105C1F00C3F93E01907A9
:100DE00050F44130510509F4A1CF4230510589F04A
:100DF0007E2FED2F9BCF4430510571F046305105C9
:100E0000B9F3EB2F8D2D7F2F91CFED2D7B2F8F2FD2
:100E10008DCF7B2F8D2F8ACF7D2FEB2FF8CF9C018D
:100E200080E090E0269F812D369F800D911D11243A
:100E300008959C018230910508F408959FEF213EAA
:100E40008EE1380740F4C90145E0969587954A95AB
:100E5000E1F798E0980F61E0E62FE90FFF27FF1F09
:100E6000AF0155954795842F449FF001459FF00DA4
:100E7000F00D11242E173F0738F49FEF940F9617AB
:100E800058F78FEF860F08954F3FE9F361E0640F45
:100E9000F6CF40910A0150910B0125E038E0429FC6
:100EA000C001439F900D529F900D1124875E994C75
:100EB00090930B0180930A01890F0895982FE82FD2
:100EC00096FDE0958E2F8F7096FD8F5FE695E695E7
:100ED000E695E670F0E0E150FE4F2181289F202D3D
:100EE000812D112422952F708295807F282B80815F
:100EF000820F97FD819580580895FC019B01009712
:100F000019F4832F80780895AC0197FF04C044271B
:100F10005527481B590BB901640F751F37FD0FC0CA
:100F2000C901841B950BA5E0880F991FAA95E1F7CD
:100F30000E94B32F80E2861BF7FD81950895CB01B7
:100F400065E0880F991F6A95E1F7BA01621B730B80
:100F50000E94B32F80E6EFCF1F93172F922FE42F1D
:100F6000F0E0EE0FFF1FEB58FE4F408124EE429F52
:100F7000412D1124E72FF0E050E09A01245E3F4F0D
:100F8000291B310937FF03C031952195310993E0C1
:100F9000220F331F9A95E1F7E21BF30BF7FF02C014
:100FA000E0E0F0E07E2F719F712D11241F910895D4
:100FB0001F93182F822FE42FF0E0EE0FFF1FEB5846
:100FC000FE4F408124EE429F412D1124E12FF0E09D
:100FD00050E09A01245E3F4F281B310937FF03C0C0
:100FE00031952195310983E0220F331F8A95E1F76E
:100FF000CF01821B930B9C0197FF02C020E030E0E1
:10100000219F212D1124822F1F9108950F931F934B
:10101000CF93DF93D62F172FC82FBA01C901212FE5
:10102000201B022F0E947D07982F990F990F782F70
:10103000791B700F719F712D11246D2F8C2FDF91F3
:10104000CF911F910F910895FF920F931F93CF930C
:10105000DF93D62FC72F182FBA01C901F12EF01A2E
:101060000E947D07982F990F990F082F091B0F0DCC
:10107000019F012D11246D2F7C2F802FCDB7DEB75E
:10108000E5E00C94912FEF920F931F93CF93DF9392
:10109000D62F172FC82FBA01C9010E19010F0E94B0
:1010A0007D07702F781B719F712D11246D2F8C2F50
:1010B000DF91CF911F910F91EF900895EF920F93D1
:1010C0001F93CF93DF93D62FC72F182FBA01C901D3
:1010D0000E19010F0E947D07081B019F012D11248D
:1010E0006D2F7C2F802FDF91CF911F910F91EF906B
:1010F0000895622F0895E42FF0E0EE0FFF1FEB58E4
:10110000FE4F6081621B0895E42FF0E0EE0FFF1F99
:10111000E35CFE4F61AD621B0895322F50E0FA018F
:10112000EE0FFF1FE35CFE4F91AD905297FD91953E
:10113000440F551FFA01EB58FE4F2081231B330B40
:10114000290F311D97FD3A95620F0895EF920F9385
:101150001F9310E09801220F331F200F311F359588
:1011600027956E2D620F1F910F91EF9008950F93A9
:10117000CF93DF93D72FC82FB90147FD419528E3BF
:1011800030E0241B310947FD3395229FA001239FA6
:10119000500D500D1124669FC001679F900D900D5A
:1011A0001124840F951F0E941907982F990F692FFA
:1011B000680F600F7D2F8C2FDF91CF910F910895D5
:1011C0000F93CF93DF93D72FC82FBA01C9010E9485
:1011D0007D07682F600F7D2F8C2FDF91CF910F91AE
:1011E0000895EF920F93CF93DF93D72FC82FBA01B3
:1011F000C9010E190E947D07602F681B7D2F8C2F5F
:10120000DF91CF910F91EF9008950F931F93522F7D
:1012100010E0F801EE0FFF1FE35CFE4FA1ADA052FE
:10122000BB0B9D015203F001539FF00D1124000FE1
:10123000111FD801AB58BE4F2C912057330B4203DE
:10124000D001439FB00D11249F012A0F3B1F37FF90
:1012500002C021583F4F220F232F221F330B620F52
:101260001F910F9108950F931F93522F10E0F801D3
:10127000EE0FFF1FE35CFE4FA1ADA052BB0B9D0123
:101280005203F001539FF00D1124000F111FD801DC
:10129000AB58BE4F2C912057330B4203D001439FD4
:1012A000B00D11249F012A0F3B1F37FF02C0215CA4
:1012B0003F4F96E0359527959A95E1F7620F1F917C
:1012C0000F9108950F931F93A42F10E0F801EE0FD4
:1012D000FF1FEB58FE4F9081905797FD9195000F9F
:1012E000111FF801E35CFE4F01AD0052110B20030A
:1012F000A001219F500D112428E330E0291B310962
:1013000097FD33951A2F1203F001139FF00D11244E
:101310004E0F5F1F9A01220F331F240F351F37FF17
:1013200002C021583F4F220F232F221F330B620F81
:101330001F910F9108950F931F93CF93DF93D62F93
:10134000072F182FC42F822F0E945E07982FEC2F93
:10135000F0E0EE0FFF1FEB58FE4F80818058980F92
:1013600097FD9195990F292F3CE0239F212D112462
:10137000622F6D0F702F812FDF91CF911F910F91F1
:101380000895E42FF0E0EE0FFF1FEB58FE4F908121
:10139000921B97FD9195292F38E1239F212D112430
:1013A000620F0895A4E0B0E0E8EDF9E00C94782F26
:1013B00020919C0430E1230F08F42FEF60E1822F8D
:1013C00090E00E940F07BC0188EB9BE00E949F2FDA
:1013D000CB01A0E0B0E0BC01CD012496E2E00C948A
:1013E000942F0E94AA0D0895FF920F931F93CF93FD
:1013F000DF93182F062FF42EC0E0D0E02F2D402FC2
:10140000612FCE010E94F1092196CE32D105B1F7AC
:10141000CDB7DEB7E5E00C94912FE8E9F4E0248144
:101420003AE0230F08F42FEF248380919704816022
:10143000809397040895E8E9F4E024813AE0231BBF
:1014400008F420E0248380919704816080939704BE
:101450000895FA01882311F009950895FB01FCCF46
:1014600020916C0230916D022817390771F090932A
:101470006D0280936C02E0915F04F09160043097FC
:1014800021F00680F781E02D0995089520916A02E8
:1014900030916B022817390771F090936B0280939B
:1014A0006A02E0915F04F0916004309721F00084BB
:1014B000F185E02D099508959C01FC0132968FEF8E
:1014C00090E04191461751F08F3F19F4411101C04E
:1014D000892F9F5F9630A9F78F3F09F40895280F51
:1014E000311D87FD3A95F901628308952FB7F8946D
:1014F0008091660290916702A0916802B0916902A2
:101500002FBF08950E94760A209191043091920491
:10151000232B222321F08093180490931904209107
:10152000930430919404232B222321F080931604FA
:1015300090931704E0915F04F0916004309749F0B4
:1015400082E080938F040480F581E02D8FE894E0A1
:1015500009950895A4E0B0E0E0EBFAE00C94782F50
:101560008FB7F8942091660230916702409168022B
:101570005091690229833A834B835C838FBF6981D1
:101580007A818B819C812496E2E00C94942F9C01BB
:101590004FB7F8948091660290916702A09168021B
:1015A000B09169024FBF821B930B0895A4E0B0E095
:1015B000ECEDFAE00C94762F462F572FBC012FB795
:1015C000F8948091660290916702A0916802B091B0
:1015D00069022FBF8C019D01041B150B260B370BD5
:1015E000C901B8012496E4E00C94922F8091650221
:1015F00008950895FC019B01809158029091590231
:101600008617970740F0672B29F48091E8008E77C2
:101610008093E800C90140E0009741F4411106C001
:101620008091E80082FF2FC080E0089520913C0463
:101630002223A9F12530A9F12091E80023FD2DC036
:101640002091E80022FDECCF2091E80020FFE4CFBC
:101650003091F3002091F200009719F02830310505
:1016600058F041E02830310509F040E02091E800D1
:101670002E772093E800D0CF41914093F10001975D
:101680002F5F3F4FE9CF80913C04882341F08530A4
:1016900041F08091E80083FFC3CF81E0089582E0AC
:1016A000089583E008958091520287FF13C08091CE
:1016B000E80082FF06C08091E8008B778093E80005
:1016C00004C080913C048111F2CF089580913C04C4
:1016D0008823D9F38091E80080FFF8CF8091E8005B
:1016E0008E77ECCF2091E4003091E50095E6A901DA
:1016F0008091EC008170882331F08091E80080FFB8
:1017000006C080E008952091E80022FD1BC0809172
:101710003C04882391F0853091F08091EB0085FDA9
:1017200010C02091E4003091E5004217530701F307
:1017300091509111DCCF84E0089582E0089583E018
:10174000089581E00895E8EDF0E080818E7F808348
:101750001092E2001092DA001092E100A0EEB0E0E8
:101760008C9181608C9380818F77808319BCA7EDE9
:10177000B0E08C918E7F8C9380818F7E80831092DD
:1017800051020895EF92FF920F931F93CF938C0114
:101790007B010E94720BC82F81110EC08091E8005E
:1017A00085FD11C08091E8008E778093E8000E944B
:1017B000720B882399F3C82F8C2FCF911F910F9113
:1017C000FF90EF900895F80180818093F100F1E09F
:1017D000EF1AF108E114F10479F30F5F1F4FDECF28
:1017E000909198049370992371F080939904609379
:1017F0009A04433808F042E840939B048091970490
:101800008160809397040895E8E9F4E0818190E095
:101810004381628108960E94F00B0895E8E9F4E0A4
:101820008181438162818850990B0E94F00B089559
:10183000E8E9F4E0628128E0620F08F46FEF81814B
:10184000438190E00E94F00B0895E8E9F4E06281A2
:1018500028E0621B08F460E08181438190E00E94EF
:10186000F00B0895E8E9F4E0438128E0420F08F422
:101870004FEF8181628190E00E94F00B0895E8E9CA
:10188000F4E0438128E0421B08F440E0818162815A
:1018900090E00E94F00B0895FC01AC014C5F5F4F9B
:1018A0008FEF91E32191822728E030E087FF0BC082
:1018B000880F89272150310921153105B9F7E4171F
:1018C000F50781F70895880FF5CF909198049370EC
:1018D000992391F0813208F080E2880F880F90916F
:1018E00098049370892B8093980410923901809109
:1018F0009704816080939704089580919804869559
:1019000086958F5F813208F081E00E94650C089512
:1019100090919804969596958FEF890F913009F4E0
:1019200080E20E94650C0895982FE42FE270909356
:10193000E900891308C0762F242F50E0E11111C06F
:1019400091E0980FF4CF7091EC002091ED00509150
:10195000F00021FD06C09F5F973049F78093E900B2
:1019600008953091EB003E7F3093EB003091ED0015
:101970003D7F3093ED003091EB0031603093EB0010
:101980007093EC002093ED005093F0002091EE0056
:1019900027FDE1CF0895A0E0B0E0E1EDFCE00C947C
:1019A000722FC8EDD0E088818F7E8883E7EDF0E06C
:1019B00080818160808384E082BF81E080935102D6
:1019C00088818E7F888302EE10E0F80110821092E9
:1019D000DA0081EEC82ED12CF601108288818F7733
:1019E000888388818068888388818F7D888319BCFB
:1019F00010923C04109250021092D40310924F02A5
:101A000090EEE92EF12CF70180818B7F8083888115
:101A10008160888342E060E080E00E94940CF601DF
:101A200080818E7F8083F8018081816080838081C6
:101A300088608083F70180818E7F808388818061C8
:101A40008883CDB7DEB7E8E00C948E2F0E9457054F
:101A5000282F92959F70963091F060F4925F9F705E
:101A6000923030F481E0203F79F030F4283E30F0BD
:101A700080E008959A5FF3CF243FD1F7089581E085
:101A8000283EE0F3213FF9CF089580913D04811174
:101A900010C08091D80080618093D8008AE18A9537
:101AA000F1F700C08091D90080FF0AC081E08093E7
:101AB0003D0481E090913D04913009F080E008956B
:101AC00082E080933D040E94A30B10923C04F1CF6E
:101AD000A4E0B0E0EEE6FDE00C94782F0E94450D06
:101AE000882371F00E94AA0A69837A838B839C837E
:101AF00069817A818B819C812496E2E00C94942FF9
:101B00000E94AA0A69837A838B839C8380915B04F9
:101B100090915C04A0915D04B0915E0429813A81AA
:101B20004B815C81280F391F4A1F5B1F29833A8331
:101B30004B835C83DDCFCF93C82F0E94450D882354
:101B400031F081E0C73108F080E0CF91089581E065
:101B5000CD32F9CFFF920F931F93CF93DF93EC0118
:101B6000F62E042F122F0E94450D81110FC0C73190
:101B7000D1057CF06797FE01EE0FFF1FEC0FFD1FF4
:101B8000E259FD4FF1820083128303C0C731D105B2
:101B900094F3CDB7DEB7E5E00C94912F0E94450D8C
:101BA000882359F0E0915F04F0916004309729F0A8
:101BB0000190F081E02D0995089580E00895AF929D
:101BC000BF92DF92EF92FF920F931F93CF93DF9319
:101BD0005C01C09105018AE0C89FC02D11241AE064
:101BE0001C0F1F3208F01EE20E94450D882319F0D9
:101BF000183108F017E10E94450D811103C0C7316B
:101C000008F4C7E160919C0466958091CF039091A0
:101C1000D0030E940F07D82ED0E0CE01880F991F65
:101C20009C01235C3E4F7901C11768F0812F0E940F
:101C30009B0DDF91CF911F910F91FF90EF90DF905F
:101C4000BF90AF900895FE01EF52FE4F80819091BA
:101C5000060189238823C1F0F70121AD2052330BFF
:101C600040AD4057550B6091990470919A04809152
:101C70009B040D2DF50109950E948706462F672FBD
:101C8000282FCE010E94F109F2E0EF0EF11C2196FF
:101C9000CBCFA0E0B0E0EFE4FEE00C946C2F5C0151
:101CA000C09105018AE0C89FC02D11241AE01C0FC5
:101CB0001F3208F01EE20E94450D882319F01831EA
:101CC00008F017E10E94450D811103C0C73108F4E7
:101CD000C7E160919C0466958091CF039091D003F9
:101CE0000E940F07F82ED0E0CE01880F991F9C01AB
:101CF000235C3E4F6901C11740F0812F0E949B0D6C
:101D0000CDB7DEB7EEE00C94882FFE01EF52FE4F08
:101D10008081909106018923882379F1F60180ADB5
:101D2000282F2057330B490181ADE82FE052FF0BDC
:101D30003F01889C9001899C300D300D1124EE9F4D
:101D4000C001EF9F900D900D1124820F931F0E94F0
:101D50001907082F6091990470919A0480919B044F
:101D6000EF2C9301A401F50109950E948706462FE7
:101D7000672F282FCE010E94F109F2E0CF0ED11C6F
:101D80002196B9CFA5E0B0E0E8ECFEE00C94722F0C
:101D90006C018091050189838AE09981989F802D4B
:101DA00011248B83182F165F1F3208F01EE20E9449
:101DB000450D882319F0183108F017E10E94450DF0
:101DC000811105C0EB81E73110F4F7E1FB836091ED
:101DD0009C04669566958091CF039091D0030E94F4
:101DE0000F07F82E80E48F0D0E945E0780588983CC
:101DF0008F2D0E945E0780588A839B81892F90E0F7
:101E00009D838C839C81911738F0812F0E949B0DBC
:101E10002596E8E00C948E2FEC81FD81EF52FE4F69
:101E200080819091060189238823A9F0609199040B
:101E300070919A0480919B04EF2C0C812A81498136
:101E4000F60109950E948706462F672F282F8C815F
:101E50009D810E94F1098C819D810196D1CFEF92E5
:101E6000FF920F931F93CF93DF937C01C0910501E5
:101E70008AE0C89FC02D11241AE01C0F1F3208F001
:101E80001EE20E94450D882319F0183108F017E171
:101E90000E94450D811103C0C73108F4C7E160916C
:101EA0009C046695669521E0620F08F46FEF8091BF
:101EB000CF039091D0030E940F07082FD0E0C117E5
:101EC00040F0812F0E949B0DCDB7DEB7E6E00C9469
:101ED000902FFE01EF52FE4F8081909106018923E1
:101EE000882391F06091990470919A0480919B04E9
:101EF000202F4C2FF70109950E948706462F672F48
:101F0000282FCE010E94F1092196D9CF529A3BB1D8
:101F10003B7F2BB124604FB7F8948EE692E0FC0132
:101F20000196508168E02BB9000000C057FF3BB913
:101F3000550F000000C000C000C03BB900C06A954A
:101F400091F752E0883F950751F74FBF8FE594E036
:101F50000197F1F700C000000895CF93DF93D82FC9
:101F6000C92F81E08093E9008FEF9091E80095FD03
:101F700007C095ED9A95F1F7000081508111F5CFDA
:101F80008091E80085FD03C0DF91CF91089540E086
:101F900050E068E070E08D2F9C2F0E94C20B809172
:101FA000E8008E778093E80088E0ED2FFC2FADE508
:101FB000B2E001900D928A95E1F7E6CF22E02093FE
:101FC000E9002FEF3091E80035FD07C035ED3A9577
:101FD000F1F7000021502111F5CF2091E80025FFF5
:101FE0000BC040E050E066E070E00E94C20B8091C0
:101FF000E8008E778093E800089580935A027093EA
:102000005C0260935B0280913C04843001F582E0C5
:102010008093E9008FEF9091E80095FD07C095ED62
:102020009A95F1F7000081508111F5CF8091E80079
:1020300085FF0DC040E050E063E070E08AE592E08B
:102040000E94C20B8091E8008E778093E80008958B
:10205000BC0183E00E94FD0F0895BC0184E00E9452
:10206000FD0F0895A0E0B0E0E8E3F0E10C94702FDC
:10207000F82EE92EB62EA72E8A0180914104CC2499
:10208000C394D12C8A3018F48AE0C82ED12CC1E038
:10209000D0E06B2D7A2D8F2D9E2DF80109958111A1
:1020A00016C02196CC16DD0694F0CC9FC001CD9FC2
:1020B000900D900D112420E030E045E34A95F1F7B2
:1020C00000002F5F3F4F28173907B9F7E2CFCDB790
:1020D000DEB7EAE00C948C2F80919E049091AB04C3
:1020E000892B8093440290919F04992391F0892B2E
:1020F0008093440220E086E492E0FC013081019666
:1021000031112F5F32E08C349307B9F721110E940F
:102110000C0348E050E061E674E084E492E00E9441
:102120004530892BA9F088E0E4E4F2E0A1E6B4E0D0
:1021300001900D928A95E1F7E0915F04F0916004BF
:10214000309731F00280F381E02D84E492E009952C
:102150000895CF93C82F8823A9F08CEF8C0F813A74
:1021600098F4E6E4F2E08191C81709F43FC022E058
:10217000EC34F207C1F76C2F84E492E00E945C0A11
:102180000E946C10CF91089580E28C0F883068F423
:10219000C77021E030E001C0220FCA95EAF78091B4
:1021A0009E04822B80939E04EBCF8BE58C0F8330B3
:1021B00038F42C2F2452330BC9010E94300AE2CF8D
:1021C000E8E5EC0FE73150F4F0E0EE0FFF1FEC5EB6
:1021D000FD4F808191810E94460AD4CFCD3E90F27E
:1021E0008C2F0E94C6050E94820ACCCF8C2F0E94A1
:1021F000F7020E946C10BFCF882379F19CEF980FF3
:10220000913A28F40E94F7020E946C10089590E21F
:10221000980F983050F4877091E001C0990F8A951B
:10222000EAF7892F0E940403EFCF9BE5980F9330C4
:1022300028F480E090E00E94300A089598E5980F15
:10224000973128F480E090E00E94460A08958D3E80
:1022500020F00E940F060E94820A0895882339F018
:1022600090919E04892B80939E040E946C10089587
:10227000882321F00E9404030E946C1008950F939C
:102280001F93CF93DF93C62FD42F122F8823A9F04B
:10229000609395040E94760A90934D0280934C02BD
:1022A000C77081E001C0880FCA95EAF70E942E111D
:1022B000DF91CF911F910F9108958091950468133C
:1022C00038C080914C0290914D020E94C70A883C10
:1022D000910578F5CD130FC0812F0E94A910812F91
:1022E0000E94FC10D77081E001C0880FDA95EAF7F0
:1022F0000E943811DDCFC77001E0802F01C0880F28
:10230000CA95EAF70E94381180E28D0F883050F4A8
:102310008D2F877001C0000F8A95EAF7802F0E94E9
:102320002E11DACF812F0E94A910812F0E94FC105C
:10233000BFCFC77081E001C0880FCA95EAF7D8CF38
:1023400080E090E00E94300A80E090E00E94460A1F
:102350001092AB040E946C1086E0EFE8F4E0DF011D
:102360001D928A95E9F710928E0410928D041092B6
:102370008C040E94820A089510929E04E6E4F2E022
:1023800086E0DF011D928A95E9F70E94A011089569
:102390000E94BC112FEF84E39CE0215080409040CC
:1023A000E1F700C0000088E19AE00FB6F894A89524
:1023B000809360000FBE90936000FFCFAAE2B0E070
:1023C000E4EEF1E10C94772F82E592E0FC010196B6
:1023D0002091F100208322E08A359207B9F780919D
:1023E0005302893009F456C0C8F4823009F4B2C0EF
:1023F000833009F481C0813071F18091E80083FF5E
:10240000E6C080915202909153029A3008F0DFC0EA
:10241000E92FF0E0E95CFE4C0C94C72F8A3009F4F8
:1024200088C08B3051F780915202813231F7809110
:10243000560290915702892B01F78091E800877F1F
:102440008093E8000E94530B809154028093040112
:102450000E94BC11D2CF80915202813A71F68091D4
:10246000E800877F8093E8008091560290915702A0
:10247000892B61F060E080E090E070E00E94FA0A51
:102480008091E8008B778093E800B7CF68E08DE516
:1024900092E0F3CF80915202813209F0AECF809169
:1024A000560290915702029708F0A7CF8091E8005A
:1024B000877F8093E8008091E80082FF18C09091A8
:1024C000F3008091F200029731F48091F1008130A5
:1024D00011F0863021F48091F100809365028091A3
:1024E000E8008B778093E8000E94530B86CF8091A1
:1024F0003C048111E0CF81CF80915202813A09F0F2
:102500007CCF8091560290915702892B09F075CFAC
:102510008091E800877F8093E8008091E80080FF49
:10252000FCCF809104018093F1008091E8008E77C8
:10253000D9CF80915202813209F05FCF8091E800BB
:10254000877F8093E8000E94530B8091550280930F
:102550004E0253CF80915202813A09F04ECF8091C2
:10256000E800877F8093E8008091E80080FFFCCF3F
:1025700080914E02D8CF803889F0823841F5809121
:1025800056028F70873018F58093E9008091EB0038
:1025900085FB882780F91092E90006C080914F02E0
:1025A0009091D403911182609091E800977F90936D
:1025B000E8008093F1001092F1008091E8008E779E
:1025C00023C0811116C080915402813011F1809195
:1025D000E80083FF0AC08091E800877F8093E800CD
:1025E0008091EB0080628093EB00AA96E3E00C946C
:1025F000932F823061F780915402882389F01092E2
:10260000E9008091E800877F8093E8000E94530BE7
:10261000DECF81E0933009F080E08093D403EFCFE8
:10262000809156028F702FEF280F263080F680930E
:10263000E9002091EB0020FFE2CF933031F480914C
:10264000EB0080628093EB00DACF9091EB00906119
:102650009093EB0021E030E0A90102C0440F551F28
:102660008A95E2F74093EA001092EA008091EB002D
:102670008860E8CF8111ABCF109154021F77809111
:10268000E3008078812B8093E3008091E800877FCE
:102690008093E8000E94530B8091E80080FFFCCFFC
:1026A0008091E30080688093E30083E0111101C012
:1026B00082E080933C048BCF8058823008F087CF33
:1026C00040915402509155024C3D83E0580799F5D2
:1026D00083E08A838AE289834FB7F894DE011396F8
:1026E00020E03EE051E2E32FF0E050935700849168
:1026F00020FF03C082958F703F5F8F708A30C8F0D3
:10270000895C90E08D939D932F5F243161F74FBFDB
:102710008091E800877F8093E8006AE270E0CE0154
:1027200001960E94FA0A8091E8008B778093E80076
:102730004ECF805DE6CF2091560230915702852F13
:1027400099278330910509F160F48130910509F4EE
:1027500072C0029709F03BCF8BE390E0E7E6F1E02F
:1027600029C08132910509F45AC0829709F02FCF10
:102770002115310509F469C02130310509F027CF51
:102780008BE790E0ECEAF0E015C0CA0199274130F0
:10279000B1F18230910509F43AC0892B09F017CFC5
:1027A000EEEFF1E0E4918E2F90E0EEEFF1E0009794
:1027B00009F40DCF2091E800277F2093E8002091B5
:1027C0005802309159028217930708F49C0140E0A7
:1027D0002115310509F03EC041113CC08091E8004F
:1027E00082FDA1CF80913C04882309F49CCF8530E1
:1027F00009F499CF8091E80083FFF0CF94CFEEEDFC
:10280000F1E0E4918E2F90E0EEEDF1E0D0CFE4EB3B
:10281000F1E0E4918E2F90E0E4EBF1E0C8CF2115D8
:10282000310571F02130310509F0D1CE89E090E019
:10283000E2E9F1E0BFCF82E190E0E2EAF1E0BACF75
:1028400089E090E0E9E7F1E0B5CF80E490E0E7E2ED
:10285000F1E0B0CF80913C04882309F464CF853047
:1028600009F461CF8091E80083FD5DCF8091E8009D
:1028700082FDB4CF8091E80080FFAACF9091F30051
:102880008091F2002115310519F08830910550F042
:1028900041E0089709F040E08091E8008E7780934E
:1028A000E80096CF44914093F100319621503109D0
:1028B0000196E8CF803809F08ACE8091E800877FC2
:1028C0008093E800809150028093F10076CE8111D0
:1028D0007ECE10915402123008F079CE8091E8003B
:1028E000877F8093E800109350020E94530B1123BE
:1028F00081F084E080933C0442E061EC81E00E943E
:10290000940C42E261EC82E00E94940C80913C04C1
:102910005ECE8091E30087FDECCF81E0EBCF60934A
:10292000A0047093A1048093A2049093A3040E9436
:10293000A0110895462F572FBC01DB01CA018670F4
:102940009927AA27BB270697A105B10561F448601E
:102950004093A4045093A5046093A6047093A70425
:102960000E94A0110895477FF3CFA4E0B0E0EBEB05
:10297000F4E10C94762F41E050E060E070E004C098
:10298000440F551F661F771F8A95D2F78091A404C4
:102990009091A504A091A604B091A7048A019B017F
:1029A000082B192B2A2B3B2BC901B8010E949A1422
:1029B0002496E4E00C94922FA4E0B0E0E2EEF4E17F
:1029C0000C94762F41E050E060E070E004C0440FCA
:1029D000551F661F771F8A95D2F7409550956095D1
:1029E00070958091A4049091A504A091A604B09143
:1029F000A7048A019B01082319232A233B23C90129
:102A0000B8010E949A142496E4E00C94922F20912D
:102A1000A804809582238093A804982F9770911121
:102A200013C030E0482F082E000C550B2417350733
:102A300059F09091AA0492FF07C0859585958595D8
:102A40000E94DC141092A8040895CF93C091AA04A8
:102A5000C2FB992790F9981791F080FBC2F9C093B7
:102A6000AA046091A90484E090E00E949B306C2F3E
:102A700082E290E00E949B3082E00E940715CF9195
:102A8000089568EE7EEF80E090E00E94B93060E04B
:102A900082E090E00E949B3060E083E090E00E9442
:102AA0009B301092A0041092A1041092A2041092E4
:102AB000A30460E084E090E00E949B3064E082E246
:102AC00090E00E949B3060E085E090E00E949B30A7
:102AD00060E086E090E00E949B306FEF87E090E03E
:102AE0000E949B3040E050E0BA0188E090E00E94F4
:102AF000AD3060E08DE090E00E949B3040E050E01F
:102B0000BA0188E190E00E94AD3060E087E190E09A
:102B10000E949B3040E050E0BA018CE190E00E94BE
:102B2000AD3060E070E080E290E00E94B93040E0BB
:102B300050E0BA0188E190E00E94AD3040E050E002
:102B4000BA018FE090E00E94AD3040E050E0BA0161
:102B500083E190E00E94AD300895CF9384E090E04F
:102B60000E947D30C82F82E290E00E947D30982F35
:102B70008C2FCF910895A5E0B0E0E1ECF5E10C9445
:102B80006E2F8C01FC019081818123813481232B64
:102B900009F499C089238F3F09F495C061E0C80109
:102BA0000E94370589839A83A980BA8024EFA216F0
:102BB0002CE5B20609F470C008F040C049EDA41637
:102BC0004CE5B40609F464C028E241E05AEDA516CC
:102BD0005CE5B50609F45EC026E241EE61EE88EDE3
:102BE000A8168CE5B80609F45AC0F801828188233A
:102BF00009F475C010929504A980BA8026E1A21646
:102C00002CE5B20608F0FBC032E0A3163CE5B306A3
:102C100008F438C20E94AD159093AA048093A904C9
:102C2000F501E350FC458091A9048160E331F10591
:102C300008F075C0EF5BFE4C0C94C72FA980BA80DA
:102C400026EFA2162CE5B20609F445C027E245EEB0
:102C500066EE37EFA3163CE5B30609F145EFA4167F
:102C60004CE5B406A1F1F8018281811147C0809141
:102C70009E048272A980BA8027EDA2162CE5B206C6
:102C800008F49BC13EE5A3163DE5B30661F070C0B4
:102C900027E245EE65EE03C026E241EE60EEF80164
:102CA00082810E943F118091A8048770882359F087
:102CB000F8018281882339F08091AA0482FF03C041
:102CC00082E00E9407152596ECE00C948A2F27E2FB
:102CD00045EE64EEE4CF26E241EE62EEE0CFA9805D
:102CE000BA8026E1A2162CE5B20609F68091960478
:102CF000811161C189E20E94F7025AC110929504C4
:102D0000A980BA8022E6A2162DE5B206D9F40E9467
:102D1000AD159093AA04809584FB809584F98093E7
:102D2000A9046091A904A090AA04A98284E090E07B
:102D30000E949B30698182E290E00E949B300E9459
:102D4000BC11B1CFA980BA8023E6A2162DE5B20648
:102D500008F452CFA980BA8026EAA2162DE5B20661
:102D600009F465C038EAA3163DE5B30609F4B6C117
:102D7000F8018281E080F180882309F4B3C1C701A2
:102D80000E94FB048983682FC7010E948002B7015B
:102D900089810E9412030E946F038D839983F80139
:102DA000D280C580C2943FE0C3228091A80487707E
:102DB0008823C1F0ED2CDD20B1F0892F807F803495
:102DC00021F08D81805E883068F08091AA0482FFB6
:102DD00009C082E00E9407158091A8048770EE2444
:102DE000E3948111E12CE981E295EF70F981F03CE7
:102DF00008F0F0C1F0E0EC5AFE4C0C94C72F89812A
:102E00009A818B5F9C45099708F0A3C00E94AD157D
:102E10009093AA048093A904E981FA81EC5FFC45B0
:102E2000E830F105C8F4E05AFE4C0C94C72F0E941C
:102E3000AD159093AA04809580FB809580F96FCFA3
:102E40008091A90482606BCF8091A904846067CFD0
:102E50008091A904886063CF8091AA0481608093E7
:102E6000AA045FCF8091AA048260F9CF8091A9045F
:102E7000806155CF8091A904806251CF8091A904CF
:102E800080644DCF0E94BC118091A904806847CF17
:102E90008091A9048C6043CF8091AA048360DFCF26
:102EA0008091A9048E7F3BCF8091A9048D7F37CF7D
:102EB0008091A9048B7F33CF8091A904877F2FCF86
:102EC0008091AA048E7FCBCF8091AA048D7FC7CF3B
:102ED0008091A9048F7E23CF8091A9048F7D1FCF7D
:102EE0008091A9048F7B1BCF0E94BC118091A90403
:102EF0008F7715CF8091A904837F11CF8091AA0489
:102F00008C7FADCF8091A90482FB992790F921E0B5
:102F1000922790FB82F990FB83F901CF8091AA045C
:102F2000982F909591708E7F892B90FB81F997CF88
:102F30000E94BC119091A904892F97FB87F98058B2
:102F4000EECE61E08EE090E00E949B30EACE60E041
:102F5000F9CFC980DA8026E1C2162CE5D206B9F095
:102F60003CE5C3163DE5D30609F4BAC008F483C0B6
:102F70005DE5C516D50609F0FBCE8091AA0482FB5B
:102F8000882780F991E089270E942515F1CE80914C
:102F90009E048A7A91E0811101C090E0909396049A
:102FA00065E3811101C069E284E492E00E945C0A59
:102FB0000E946C1078CE85E39ECEA980BA8023EC67
:102FC000A2162CE5B20608F4D3CEF501E45CFC456C
:102FD000E331F10520F4E859FE4C0C94C72F8091A1
:102FE000980491E089278093980410923901809188
:102FF000970481608093970456CE48E85CE06DE7C3
:103000007CE00E94290A4FCE4DE75CE068E87CE056
:10301000F8CF4EE05CE064E07CE0F3CF44E05CE0BD
:103020006EE07CE0EECF45E25CE068E17CE0E9CF79
:1030300048E15CE065E27CE0E4CF4FE35CE062E322
:103040007CE0DFCF42E35CE06FE37CE0DACF4BE192
:103050005AE06DE07AE0D5CF4DE05AE06BE17AE0DE
:10306000D0CF81E00E94650C1ECE85E0FBCF8DE0C5
:10307000F9CF82E1F7CFA980BA802FEDA2162CE517
:10308000B20651F1A980BA8081E02BE5A2162DE5A8
:10309000B20609F479CFA1143CE5B30609F068CE75
:1030A0000E94BC114FEF54E38CE0415050408040EF
:1030B000E1F700C0000087E797E79093010880934D
:1030C000000888E19AE00FB6F894A8958093600014
:1030D0000FBE90936000FFCF0E9441150E94C8115F
:1030E00080E052CFC7010E94B802898350CE298167
:1030F0002F70F22E3981303118F0F29420EFF22245
:10310000DD20C1F0FF2071F08D81805E883018F0E5
:10311000AD80A11009C080919E048F2980939E04E8
:103120000E946C108D814EC08091AB048F298093DA
:10313000AB04F6CF8D810E94FC10FF2009F44AC039
:103140008D81805E883018F0BD80B11004C08F2D55
:103150000E94040306C0F0948091AB048F218093F9
:10316000AB040E946C1036C029812F70F22E398179
:10317000307F303219F0F29490EFF922AD80AA201E
:1031800089F02A2D213009F462C0DD2009F46CC0D9
:10319000CC2009F462C0F801858180FFC3CF8F7015
:1031A00085835BC02091AA0422FD30C0DD2069F038
:1031B000FF2039F080919E048F2980939E040E9405
:1031C0006C1080E00E94A91005C080E00E94FC10F5
:1031D000F110BDCFEE20A9F08091A80480FD11C0B0
:1031E000F80112828595859585950E94B514C801D0
:1031F0000E94BB158091A8048595859585950E94B0
:10320000DC1460E0C8010E9437055DCDDD2099F037
:1032100090919F048F2D892BC11003C00E942E1105
:10322000D9CF31E0C312FACF22FFD4CF981791F251
:1032300080939F04CFCFC11006C00E940C038F2D36
:103240000E943811C7CF41E0C41621F2F6CFDD202D
:1032500031F055E05C1508F4BDCF8F2DDFCF84E051
:103260008C1508F4B7CFEBCFCC2049F3FD81F933AF
:1032700049F42FEF37EE43E0215030404040E1F772
:1032800000C000008D810E94FC10A4CF898186952A
:1032900086958370882369F0813009F09BCF8D81FA
:1032A00099819370D11002C080E090E00E94460A9C
:1032B00091CF8D8199819370D11002C080E090E010
:1032C0000E94300A87CF8D81DD2029F00E94C6053B
:1032D0000E94820A7FCF0E940F06FACF89818370F5
:1032E000811177C0D1104BC02D8122952695277072
:1032F000220F220F8D818F7090E0A0E0B0E04C0192
:103300005D01022E04C0880C991CAA1CBB1C0A94E7
:10331000D2F7CD8080E090E0DC01C4FE0FC08FE0EA
:1033200090E0A0E0B0E004C0880F991FAA1FBB1F67
:103330002A95D2F780959095A095B095D980D6948E
:10334000D6942D2D2370223041F12330C9F14091C4
:10335000A0045091A1046091A2047091A3042130B3
:1033600089F088299929AA29BB295C016D01A42229
:10337000B522C622D722C601B5010E948F140E9431
:10338000CE0D28CF482959296A297B295A016B017A
:10339000A82AB92ACA2ADB2AEECF88299929AA297C
:1033A000BB294091A0045091A1046091A2047091A6
:1033B000A3045C016D01A426B526C626D726DBCF63
:1033C000A5019401282B392B4A2B5B2BCA01B9018B
:1033D000D4CFDD2009F44DC0A980A0FED0CF2D812F
:1033E000229526952770220F220F8D818F7090E0F5
:1033F000A0E0B0E04C015D01022E04C0880C991CD5
:10340000AA1CBB1C0A94D2F7CD8080E090E0DC01BE
:10341000C4FE0FC08FE090E0A0E0B0E004C0880FD1
:10342000991FAA1FBB1F2A95D2F780959095A0954A
:10343000B095D980D694D6942D2D2370223041F1A9
:103440002330C9F14091A4045091A5046091A604D1
:103450007091A704213089F088299929AA29BB29CC
:103460005C016D01A422B522C622D722C601B50196
:103470002AC0823008F483CFB2CF482959296A295B
:103480007B295A016B01A82AB92ACA2ADB2AEECF66
:1034900088299929AA29BB294091A4045091A504FF
:1034A0006091A6047091A7045C016D01A426B52665
:1034B000C626D726DBCFA5019401282B392B4A2B12
:1034C0005B2BCA01B9010E949A1459CF39813F7010
:1034D0003983DD2039F0832F0E94B5148D810E943D
:1034E0002E114DCF8D810E94381189810E94DC14EC
:1034F00046CF4D81423FB9F178F4403FD1F0413F92
:1035000009F452C0DD2009F47CC0CC2009F476C057
:103510008D810E94A91033CF5D81533F59F1543FF3
:1035200009F43EC0D110F1CFC1107AC089818F71EA
:10353000DDCFDD20A1F084E08C1508F420CF998147
:103540009F71998381E090E0A0E0B0E0098004C021
:10355000880F991FAA1FBB1F0A94D2F79DCF85E041
:10356000B82ECB14EACF89818F71D110BFCF0E94C2
:10357000B51405CF60E070E0CB01DD2009F4A3CFE6
:1035800029812F7181E090E0A0E0B0E05C016D0145
:1035900004C0AA0CBB1CCC1CDD1C2A95D2F766CF3C
:1035A0008091AA0482FD06C089818F71DD2009F413
:1035B0009DCFDDCFDD20B1F029812F712983822FAE
:1035C0000E94B5148091AA0482FF0AC0A98038E045
:1035D000A39EC001112483608093A8048A2DC7CFC5
:1035E0008981C5CF81E00E940715BB24B394BC1428
:1035F00008F0C5CE82E00E940715C1CE89818F7187
:10360000B6CFCC2009F492CF2D81293349F43FEF76
:1036100047EE53E0315040405040E1F700C0000019
:103620008D810E94FC10ABCE1F93CF93DF938091CE
:10363000E304803108F04CC08091E004882309F451
:1036400047C08091AD042091AC046091DE043091BC
:10365000DF04C091E104D091E204732F7623281790
:10366000B9F190E0209709F443C016E07F3F09F4D8
:103670003FC0189FF001199FF00D1124DF01A255E2
:10368000BB4F11964C91119734132CC04C9146139B
:1036900029C012964C91129741111EC013964D915C
:1036A0005C914C1B5D0B483C5105E0F48091E304B8
:1036B0008F7080618093E304ED54FB4F80818F70A5
:1036C000806180838EED94E00E94BB150E94ED0224
:1036D000DF91CF911F910895019687709927281344
:1036E000C8CFF6CF0196877099272813BFCFF0CFA8
:1036F00001968770B4CF8F929F92AF92BF92DF9264
:10370000EF92FF920F931F93CF93DF93CDB7DEB766
:103710002B970FB6F894DEBF0FBECDBF8C0185E0AE
:10372000F801DE01179601900D928A95E1F7F801F4
:10373000F280A380B4808EED882E84E0982E909144
:10374000DE042091DF044091E1045091E204411530
:10375000510509F418C1822F89238F3F09F413C141
:10376000D090E004B501641B750BDD2009F4DDC0C9
:103770008091E304683C710508F0B9C03181803163
:1037800008F077C0EF2C321312C0208129130FC02C
:10379000F1101CC08F7080618093E304C4010E940B
:1037A000BB158091E304F8018583E12C4FC08F8124
:1037B0009885AB2889F0282F29232F3F69F0E091C5
:1037C000AD042091AC0436E0FF20E1F08091E304E9
:1037D00081608093E304E9CFFF2039F3F7CF4E2FC8
:1037E00050E03E9FF0011124E255FB4F61816913C7
:1037F00006C06081681303C062816111D6CFFA01EF
:103800003196E770E213EBCF8F8198850E945705C0
:10381000292F22952F70903248F49F70992311F030
:103820008823A1F0805E883088F004C0225F2F706A
:10383000223028F0C8010E94BB15ED2C07C09F70F4
:10384000992381F3F8019581903160F78E2D2B96A5
:103850000FB6F894DEBF0FBECDBFDF91CF911F91A1
:103860000F91FF90EF90DF90BF90AF909F908F905F
:103870000895321312C0208129130FC0F1100DC01A
:103880008583C8010E94BB1586E0F801AEEDB4E067
:1038900001900D928A95E1F727C0F801808191810E
:1038A0000E94260D882309F46AC0FF2009F467C02E
:1038B0008091E304803270F02091DE043091DF04C7
:1038C0003A8329831B82BD82AC828E83CE0101960E
:1038D0000E94BB1586E0F801AEEDB4E001900D92B8
:1038E0008A95E1F70E94141BEE24E394AFCF803158
:1038F00050F48EED94E00E94BB1586E0F401119225
:103900008A95E9F752CF31812313C7CF208129133C
:10391000C4CFF110C2CF8583C8010E94BB1586E0D9
:10392000F40111928A95E9F7DFCF683C710528F719
:10393000FF2029F18181281316C08081891313C0CB
:103940008091E30480FDA0CF803108F49DCF858372
:10395000807F803F09F495CF8581982F907F905F7D
:103960008F70892B8DCFF801808191810E94260D67
:103970008111B0CF8091E30481608093E304C8019A
:103980000E94BB15B1CFFF20D1F3F8018081918156
:103990000E94260D882399F386E0F801AEEDB4E08D
:1039A00001900D928A95E1F78091DE049091DF04F9
:1039B0000E94570597CFA7E1B0E0E1EEFCE10C943F
:1039C000772F4B8B5C8B962F6D8B7E8B8F8B611142
:1039D0001092AB041A8A85E0FE017396DE011D96F3
:1039E00001900D928A95E1F79F8786E0FE013D9652
:1039F000DE01179601900D928A95E1F7CE010796A8
:103A00000E947B1B811131C086E0FE013796DE01EA
:103A1000119601900D928A95E1F78F8198852091FA
:103A2000AC044091AD046A857B85672BF1F0892356
:103A30008F3FD9F030E0C90101968770992750E097
:103A400084179507E9F096E0929FD001939FB00DFF
:103A50001124A255BB4FFE01319601900D929A950B
:103A6000E1F78093AC040E94ED0216E08091AD0472
:103A70009091AC04891312C06796E3E00C94932FE5
:103A80000E94BC111092AC041092AD0486E0EEEDE1
:103A9000F4E0DF011D928A95E9F7E7CF189FC00196
:103AA000112482559B4F0E947B1B882329F3809110
:103AB000AD0490E00196877099278093AD04D6CF2E
:103AC000A8E0B0E0E6E6FDE10C94772F80912004B9
:103AD00090912104A0912204B0912304BC01CD0156
:103AE0000E94D60A11E0643671058105910578F1CE
:103AF0000E94680DDC01CB010296A11DB11D8983D6
:103B00009A83AB83BC8380912A0190912B018C5DB9
:103B10009B4F20912901422F50E0253010F044E0C6
:103B200050E0BE016F5F7F4F0E94523082E090E014
:103B30000E94F32E182F882351F00E94AA0A609346
:103B40002004709321048093220490932304812FF6
:103B50002896E3E00C94932FEF92FF921F93CF935C
:103B6000DF93CDB7DEB729970FB6F894DEBF0FBE4F
:103B7000CDBF7B0180E090E00E94F32E182F8111D1
:103B80001BC010E08091340490913504A09136045C
:103B9000B0913704F70180839183A283B383812F8F
:103BA00029960FB6F894DEBF0FBECDBFDF91CF913F
:103BB0001F91FF90EF90089580911C01482F50E0D5
:103BC000882311F041E050E060911D0170911E01C9
:103BD0006C5D7B4FCE0105960E9452308091380477
:103BE00090913904A0913A04B0913B04BC01CD01FD
:103BF0000E94D60A6E837F83888799876436710511
:103C00008105910538F485E294E00E944C0C9D8179
:103C10008917B9F181E090E00E94F32E882309F41E
:103C2000B0CF80912401482F50E0853010F044E05F
:103C300050E060912501709126016C5D7B4FCE01B3
:103C400001960E94523085E294E00E944C0C9D81C6
:103C5000891397CF0E94AA0A60933804709339049D
:103C600080933A0490933B0489819A81AB81BC8113
:103C70008093340490933504A0933604B0933704B2
:103C800081CF8091250490912604A0912704B091C2
:103C9000280489839A83AB83BC83E6CFABE0B0E092
:103CA000E4E5FEE10C94742F86E0E8E9F4E08E018F
:103CB0000F5F1F4FD80101900D928A95E1F7809117
:103CC0001B048F8347E050E06DE274E0C8010E945E
:103CD00045307C0180911C0490911D04A0911E042C
:103CE000B0911F04BC01CD010E94D60A6887798774
:103CF0008A879B87B80188859985AA85BB85843684
:103D00009105A105B10518F4E114F10401F18091C8
:103D10003201909133018C5D9B4F20913101422FF4
:103D200050E0283010F047E050E00E94523083E02D
:103D300090E00E94F32E882359F00E94AA0A609313
:103D40001C0470931D0480931E0490931F0481E053
:103D50002B96E6E00C94902FE8E9F4E085E380836D
:103D600080913A0190913B01A0913C018183928323
:103D7000A3838FE784838FEF858346E050E06CE177
:103D800070E0CF010E948B30109297040895A0E05C
:103D9000B0E0EDECFEE10C94732FEC01FC01EF526E
:103DA000FE4F8081909106018923882349F1D090AC
:103DB0009A0400919B0410919904E12EF12C0E9429
:103DC0003530482FC7018C549F4F68E671E00E9440
:103DD000B32F8E199F0997FD039695958795959515
:103DE00087954370612F489F600D11247D2D802F92
:103DF0000E948706462F672F282FCE010E94F109C7
:103E0000CDB7DEB7E7E00C948F2F1F93CF93DF93EE
:103E1000EC01FC01EF52FE4F808190910601892355
:103E20008823B1F00E943530182F0E943530782F4A
:103E30007F7720E8720F08F47FEF612F80919B0459
:103E40000E948706462F672F282FCE010E94F10976
:103E5000DF91CF911F910895ADE0B0E0E2E3FFE183
:103E60000C94682F8983809109012981821326C0CF
:103E700020919804237030E04091080150E081E0E7
:103E80002417350709F480E0817080930701809141
:103E90009D0490910601981739F08093060140E047
:103EA00060E080E00E94F4093981313208F047C2B5
:103EB000E32FF0E0E558FE4C0C94C72F81E0E4CFEF
:103EC00080910701882309F435C740E060E080E075
:103ED0000E94F409809105018F5F8093050182E0C3
:103EE0008093390180910701882309F428C72EC7E0
:103EF000409105018AE0489F802D11248D83182F61
:103F0000165F1F3208F01EE20E94450D882319F04B
:103F1000183108F017E10E94450D811105C05D813F
:103F2000573110F487E18D836091990470919A0460
:103F300080919B040E948706062FF72EE82EBD81F4
:103F4000AB2FB0E0BE83AD83FD81F11720F0812F50
:103F50000E949B0D97C1ED81FE81EF52FE4F808143
:103F6000909106018923882339F02E2D402F6F2D43
:103F70008D819E810E94F109ED81FE813196FE8343
:103F8000ED83E2CF209105018AE0289F802D112446
:103F90008D83182F165F1F3208F01EE20E94450D18
:103FA000882319F0183108F017E10E94450D81119E
:103FB00005C03D81373110F447E14D83509199049C
:103FC0005987C0909A04D0909B04652F7C2D8D2D2D
:103FD0000E948706062FF72EE82E80919C046985A3
:103FE000680F7C2D8D2D0E948706D62EC72EB82EE9
:103FF0009D81892F90E09E838D83BD81B11708F04C
:10400000A6CFED81FE81EF52FE4F90818091060197
:104010008923882361F02B2D4D2D6C2D90FD03C03D
:104020002E2D402F6F2D8D819E810E94F109AD8133
:10403000BE811196BE83AD83E0CFE09105018AE099
:10404000E89F802D11248D83182F165F1F3208F0F2
:104050001EE20E94450D882319F0183108F017E17F
:104060000E94450D811105C0FD81F73110F427E153
:104070002D83F0909A04E0909B0420919C0400E42E
:10408000029F012D11245D81452F50E05E834D83F9
:104090009D81911708F05BCFED81FE81EF52FE4FBD
:1040A00080819091060189238823C9F0ED81FE81EA
:1040B000EE0FFF1FE35CFE4F81AD82958F70609124
:1040C0009904809F600D11247F2D8E2D0E948706FC
:1040D000462F672F282F8D819E810E94F1098D81A7
:1040E0009E8101969E838D83D3CFA09105018AE0A6
:1040F000A89F802D11248D83182F165F1F3208F082
:104100001EE20E94450D882319F0183108F017E1CE
:104110000E94450D811105C0BD81B73110F4E7E162
:10412000ED8300919A04D0909B0430919C0420E48C
:10413000239F212D11245D81452F50E05E834D8307
:10414000E22EF12C9D81911708F001CFED81FE81C7
:10415000EF52FE4F80819091060189238823F9F068
:10416000ED81FE81EE0FFF1FE35CFE4F20AD2E9D23
:10417000C0012F9D900D1124B5E095958795BA95B6
:10418000E1F760919904680F702F8D2D0E948706CA
:10419000462F672F282F8D819E810E94F1098D81E6
:1041A0009E8101969E838D83CDCFA09105018AE0EB
:1041B000A89F802D11248D83182F165F1F3208F0C1
:1041C0001EE20E94450D882319F0183108F017E10E
:1041D0000E94450D811105C0BD81B73110F4E7E1A2
:1041E000ED8300919904F0919A04F987F0909B0473
:1041F00060919C046695669566958091CF03909139
:10420000D0030E940F070E945E07805887FD8195AA
:10421000880F282F3F2D239F212D1124822F602FBF
:1042200079850E948706062FF72EE82E5D81452F9F
:1042300050E05E834D839D81911708F088CEED811B
:10424000FE81EF52FE4F80819091060189238823E1
:1042500039F02E2D402F6F2D8D819E810E94F10906
:104260008D819E8101969E838D83E5CF8CEA97E0B8
:104270000E942F0F07C088ED97E0FACF86E098E004
:104280000E94DF0D909105019F5F909305018111C0
:104290005DC582E08093390180910701811156C587
:1042A000E981EE2322CE84E298E0EACF83E498E02D
:1042B0000E94490EE7CF8EE598E0FACF89E798E0B3
:1042C000D7CF8BE798E0D4CF84E898E0D1CF8DE8C2
:1042D00098E0CECF86EA98E0EBCF87EB98E0D0CF9E
:1042E00080EE98E0CDCF81EF98E0E2CF85E099E0D5
:1042F0000E94C20EC7CF83E399E0FACF82E699E02D
:10430000F7CF80910701811123C060919C0420E1C7
:10431000620F08F46FEF8091CF039091D0030E9459
:104320000F076AE070E00E949F2F892B41F40E94E2
:1043300035306EE270E00E94B32F0E94C71E80915C
:1043400005018F5F8093050182E080933901FEC4EF
:10435000A09105018AE0A89F802D11248D83182F3C
:10436000165F1F3208F01EE20E94450D882319F0E7
:10437000183108F017E10E94450D811105C0BD817B
:10438000B73110F4E7E1ED833D81232F30E03E8328
:104390002D83E12EF12C8D819E818E159F050CF0D1
:1043A000D6CD8D819E810E94C71E4D815E814F5F5B
:1043B0005F4F5E834D83EFCF8091070181111CC059
:1043C00060919C0420E1620F08F46FEF8091CF03AD
:1043D0009091D0030E940F0765E070E00E949F2F2C
:1043E000892B09F0ACCF0E9435306EE270E00E945C
:1043F000B32F0E94051FA3CF909105018AE0989FDB
:10440000802D11248D83182F165F1F3208F01EE2B5
:104410000E94450D882319F0183108F017E10E9419
:10442000450D811105C0AD81A73110F4B7E1BD8301
:10443000FD81EF2FF0E0FE83ED83E12EF12C4D8125
:104440005E814E155F050CF082CD8D819E810E94AC
:10445000051F2D813E812F5F3F4F3E832D83EFCF80
:10446000509105018AE0589F802D11248D83182FCB
:10447000165F1F3208F01EE20E94450D882319F0D6
:10448000183108F017E10E94450D811105C08D819A
:10449000873110F497E19D83F0909A0400919B047A
:1044A000A0919904A98760919C046695669566958C
:1044B0008091CF039091D0030E940F070E945E0766
:1044C000805887FD8195880F282F3CE0239F212D60
:1044D00011246985620F7F2D802F0E948706062F89
:1044E000F72EE82EFD81EF2FF0E0FE83ED833D8176
:1044F000311708F02CCDED81FE81EF52FE4F808107
:10450000909106018923882339F02E2D402F6F2D9D
:104510008D819E810E94F1092D813E812F5F3F4F49
:104520003E832D83E4CF8BE999E0A2CE81EC99E024
:104530009FCE4091FC025091FD026091FE0270916D
:10454000FF028091CF039091D003A091D103B0914D
:10455000D20384179507A607B70708F4F0CE0E9488
:104560004907182F0E9449079EE2891BF0F7890F1F
:10457000482F50E05A834983FA01EF52FE4F808161
:10458000909106018923882309F4DBC320E040E0F1
:1045900060E011FD13C00E944907182F0E944907CF
:1045A000782F76952FE7720F08F47FEF612F8091B7
:1045B0009B040E948706462F672F282F89819A81A6
:1045C0000E94F10920919C0430E1230F08F42FEFA1
:1045D00060E1822F90E00E940F07BC0184EF91E020
:1045E0000E949F2F8091CF039091D003A091D1037F
:1045F000B091D203860F971FA11DB11D8093FC02BD
:104600009093FD02A093FE02B093FF0298CE4091DA
:104610008A0350918B0360918C0370918D0380917C
:10462000CF039091D003A091D103B091D20384170E
:104630009507A607B70708F482CE8091070181117C
:1046400029C0509105018AE0589F802D11248D8347
:104650007AE0F72EF80E8EE28F1510F46EE2F62E49
:104660000E94450D811156C00E94450D811105C063
:10467000FD81F73110F427E12D833D81232F30E0B8
:104680003E832D838901000F111F020F131F00505D
:104690001D4F63C040E060E080E00E94F40940E00C
:1046A000E42E43E0F42E00E010E05FE7C52E0E9408
:1046B000490781FF10C0D7011C9211961C921197D7
:1046C00012961C920F5F1F4FB3E0EB0EF11C0E32DF
:1046D000110569F7B6CF0E944907D82E0E944907F5
:1046E000782F76952C2D720F08F47FEFA801440FD8
:1046F000551F400F511F40505D4F5E834D836D2D00
:1047000080919B040E948706AD81BE816D937D934D
:104710008C93D8CFE7E1EF1508F0A6CF27E1F22E72
:10472000A3CFED81FE81EF52FE4F80819091060173
:104730008923882359F0D80112962C9112974C9115
:1047400011966C918D819E810E94F1090D5F1F4F22
:10475000ED81FE813196FE83ED834D814F1508F387
:104760008F2D0E949B0D811141C08F2D8150990B7F
:104770008C01DC01AA0FBB1FBE83AD83AD01400FCE
:10478000511FF11002C040E050E063E073E080E0B0
:1047900093E00E945B300E94490781FF29C0ED81B0
:1047A000FE81E00FF11FE050FD4F10821182128256
:1047B0000E94D2096D837E838F8398878091CF0377
:1047C0009091D003A091D103B091D2032D813E816D
:1047D0004F815885820F931FA41FB51F80938A03B2
:1047E00090938B03A0938C03B0938D038F2DB0CB4C
:1047F0000E944907E82E0E944907782F76952FE7F7
:10480000720F08F47FEF2D813E81200F311F205061
:104810003D4F3E832D836E2D80919B040E94870621
:10482000AD81BE816D937D938C93C2CF4091C603C1
:104830005091C7036091C8037091C9038091CF0361
:104840009091D003A091D103B091D2038417950722
:10485000A607B70708F473CD80910701882329F0D4
:1048600040E060E080E00E94F4096091990470915A
:104870009A0480919B040E948706662E072F782E4B
:104880004EE853E05A834983EDE3EE2EE1E0FE2E3D
:10489000F6E0CF2ED12CD7018C9190E0E981FA81FE
:1048A000208140E060E0222319F0272D462D602F63
:1048B0000E94F109A981BA8111962C9111972C932C
:1048C000F701818190E0211104C020E040E060E028
:1048D00003C0272D462D602F0E94F109A981BA81BE
:1048E00012968C91129711968C93560116E0F50151
:1048F000E257FC4F4F01F501E35CFE4F808190E0F1
:10490000D4012C91222309F469C0272D462D602F54
:104910000E94F109F40131978081F40180831150E4
:10492000F1E0AF1AB108133011F7D70113968C914B
:1049300090E0E981FA812381222309F453C0272DD5
:10494000462D602F0E94F109D70112968C9190E0BC
:10495000E981FA812281222309F448C0272D462DBE
:10496000602F0E94F1090E944907837091E0811134
:1049700090E0A981BA8112969C93129713969C930A
:1049800013971796BA83A983B7E0EB0EF11CE7E003
:10499000CE0ED11CFEE3CF16D10409F07CCF0E94CD
:1049A000D20969837A838B839C838091CF03909112
:1049B000D003A091D103B091D20329813A814B81D8
:1049C0005C81820F931FA41FB51F8093C603909331
:1049D000C703A093C803B093C903B1CC20E040E063
:1049E00060E096CF20E040E060E0ACCF20E040E027
:1049F00060E0B7CF309105018AE0389F802D112407
:104A00008D837AE0872E880E182D48E3481508F428
:104A100018E380910701882361F040E060E080E0C6
:104A20000E94F409E5EDF3E088E3DF011D928A9529
:104A3000E9F780910501811117C08091CB03909116
:104A4000CC030E94C70A9C0181E02931310508F49A
:104A500080E08093CA032931310530F00E94760A44
:104A60009093CC038093CB03FD81EF2FF0E0FE8386
:104A7000ED83C12ED12C47E0742E55E5552E6AEA00
:104A8000662E442443948D819E818C159D053CF0B7
:104A900081E097E3981508F0F5CB80E0F3CBAD808B
:104AA000BE8027E0A222BB240D811E8133E0159534
:104AB00007953A95E1F77A9CC0017B9C900D1124F3
:104AC0009C012B523C4FF901E00FF11F9080835C59
:104AD0009E4FFC01E00FF11F80818F3F69F1E82EAE
:104AE000F12CF701EF52FE4F80819091060189234E
:104AF000882311F1692D352D631B08F460E0709156
:104B00009A04262D492D240F08F42FEF30919B0491
:104B1000822F880F820F8E5F582F539F512D1124A3
:104B2000852F962D961B692F0E948706462F672F8B
:104B3000282FC7010E94F1098091CA03882381F0C0
:104B4000292D342D231B08F420E07A9CC0017B9C86
:104B5000900D11248B529C4FFC01E00FF11F20831C
:104B60004D815E814F5F5F4F5E834D838CCF309070
:104B70009B04E32CF12CD701AA0FBB1FAE0DBF1D68
:104B8000B695A795B695A795BD87AC87BC85B9871F
:104B90008FEF90E0B7010E94B32F6D8380910701E2
:104BA000882371F040E060E080E00E94F409E5EDC8
:104BB000F3E088E3DF011D928A95E9F71092CE03B6
:104BC0008091CD038F5F8093CD0385EDC82E83E068
:104BD000D82EA12CB12CF7012C853D85E21BF30BBF
:104BE000FB87EA8725018601212C8091CE0382294B
:104BF000A201435C5E4F4A01D80117963D01F201C4
:104C000037962F0181110FC00E94353085359540B0
:104C100054F4D6013C92D401EC91EF3FB1F48301FE
:104C200022242394E2CFF8018081882351F0831558
:104C300040F49091CD03FD81F91303C08150D80158
:104C40008C93D401EC91EF3FE9F0D8018C91F0E026
:104C5000282F30E0B985B81708F05DC04C855D8518
:104C6000241B350B249FC001259F900D349F900D70
:104C700011246A857B850E949F2F262F432DCF010B
:104C80000E94F1092394830158E02512AECF8FEFE3
:104C9000A81AB80A9FEFC91AD90AA7E0AA16B10440
:104CA00009F0A0CF8091CD03BD81B81302C010924E
:104CB000CD038091CE038F5F8093CE039091050149
:104CC0008D3108F447C01092CE032FEF33E087E018
:104CD0009FEF930DB901E5EDF3E0873021F441A991
:104CE000341201C091ABDB014D91BD01431540F081
:104CF0008D0101501109D8019C93DB0116963C925D
:104D00003196B3E0EC3DFB0741F781502750310964
:104D10008111E0CFC2CE2E9DC0012F9D900D3E9DF2
:104D2000900D11246C857D850E949F2F462F20E0D9
:104D300060E0A5CF809105018F5F8093050183E03E
:104D400004CB809105018F5F809305012D96E2E1F0
:104D50000C94842F81E0890FF5CAA8E0B0E0E3EB62
:104D6000F6E20C94782F0E94680D282F6093F802C9
:104D70007093F9028093FA029093FB0280911B04D6
:104D800081111EC030919804832F8370882319F0FD
:104D9000832F86958695309139013230E1F090F479
:104DA000311116C0109205016093CF037093D003A8
:104DB0002093D1039093D20381E08093390104C002
:104DC00080E0E9CF333091F02896E2E00C94942F04
:104DD0000E942C1FF9CF8093090180919804837061
:104DE000809308010E94860F83E0E7CF80919704AB
:104DF000882351F046E050E06CE170E088E994E0EF
:104E00000E948B30109297048091CF039091D00331
:104E1000A091D103B091D20389839A83AB83BC83E1
:104E20000E94450D882389F069817A818B819C815C
:104E30000E94D60A462F572FBC014031510561050B
:104E4000710510F210923901BFCF0E94680DAB01BD
:104E5000BC0189819A81AB81BC81481B590B6A0BCB
:104E60007B0BEBCFCF93C82F882391F080911B044D
:104E700081110EC00E942C1F10920901809198048C
:104E80008370809308010E94860F83E0809339012C
:104E9000C0931B04CF910895A0E1B0E0E2E5F7E2F2
:104EA0000C946B2F1A821982FE01339686E0DF0183
:104EB0001D928A95E9F787E0E82E82E0F82E8E01B0
:104EC0000F5F1F4F9BE0C92E92E0D92E3801AA2414
:104ED000A394B12C32E1832E32E0932EF70181911D
:104EE0007F018F3F09F441C0F894E82FE295EF70FD
:104EF000F0E021A18F70A50102C0440F551F8A95D3
:104F0000E2F7CA01922F982B91A392A18095892351
:104F100082A3789400C0EBE0F2E031E0512C2191C3
:104F20002F3F09F44CC0A22FA295AF70A05EB0E055
:104F30008C9190E02F7002C0959587952A95E2F7A5
:104F4000817081113CC0832F582A330F8E169F0623
:104F500031F7F701319780818F3F11F00E9468058A
:104F600050EA5A95F1F7D8015C920F5F1F4FCE14AB
:104F7000DF0409F0B3CF48E050E0B30183E594E0EB
:104F80000E9445307C0110915204892BD1F088E0B9
:104F9000F301A3E5B4E001900D928A95E1F781E079
:104FA000809340040E94760A80933E0490933F04CD
:104FB0000E94C70A059708F069C081E0B6C080E08A
:104FC000C3CF80914004811158C00E94450DE091EB
:104FD000520481116DC0F0E0E65BFB4F808191814E
:104FE000A281B3818093250490932604A093270483
:104FF000B093280485E294E00E944C0C8093240432
:10500000C0902904D0902A04E0902B04F0902C0446
:105010008091440490914504A0914604B0914704C6
:10502000C816D906EA06FB06D1F0C0924404D09215
:105030004504E0924604F09247040E94450D811118
:105040000EC00E94AA0AC61AD70AE80AF90AC09234
:105050005B04D0925C04E0925D04F0925E0486E012
:10506000EDE2F4E0A8E9B4E001900D928A95E1F751
:10507000809133040E94322757C080913E04909162
:105080003F040E94C70A059708F49FCFA12FB0E004
:10509000A65BBB4F84E0E3E5F4E001900D928A95B6
:1050A000E1F710924004E114F10409F086CF8DCFAE
:1050B0001A8619861C861B860E2F10E0065B1B4F76
:1050C000809141048A30A8F57E01B9E0EB0EF11C15
:1050D0004CEA5DE1B701C8010E94321067018823E4
:1050E00009F44BC040E65DE1B701C8010E943210EF
:1050F000882309F442C04EE45EE1B701C8010E9472
:1051000032108823D1F1109241048091490490E03B
:1051100044E050E0B601865B9B4F0E94453021E0A1
:1051200020934804892BD9F480E06096EFE00C943A
:10513000872F80914204909143040E94C70A843FC4
:10514000914010F680914804882371F3FE0139964E
:1051500084E0DF011D928A95E9F710924804E091FE
:105160004904F0E0E65BFB4F89859A85AB85BC85F9
:1051700080839183A283B38320CF809141048F3FAA
:1051800039F40E94760A9093430480934204DACF64
:105190008F5F809341048A3008F4B7CFF2CFCDB748
:1051A000DEB72A970FB6F894DEBF0FBECDBF85B726
:1051B000806885BF85B7806885BF84B7877F84BFD7
:1051C0000FB6F894A8958091600088618093600084
:1051D000109260000FBE80E890E00FB6F8948093C4
:1051E0006100909361000FBE86E695E090934302C4
:1051F000809342020E94A30B0E94CB0C8091E2009C
:1052000084608093E200789480913C04882399F034
:105210008091E9001091EC001795112717958F7078
:10522000182B1092E9008091E80083FD0E94DE11A6
:105230001F701093E90082E084BD93E095BD9AEF62
:1052400097BD80936E0010925B0410925C041092E4
:105250005D0410925E040E94450D80930C010E9433
:10526000450D81110E94052E80910C0180910C0149
:1052700091E08927880F880F8093520494E0981B4F
:105280009093490484E90E94680586E60E946805B7
:1052900087E90E94680586EC0E9468050BE012E031
:1052A00052E1E52E52E0F52ED8018D918D018F3F10
:1052B00011F00E946805E016F106B1F788E0EAE413
:1052C000F4E0DF01082F1D920A95E9F7E3E5F4E029
:1052D000DF011D928A95E9F780E090E00E94853019
:1052E000883E9E4F11F00E94411582E090E00E949E
:1052F0007D3080930D040E94AD159093AA04809395
:10530000A90483E090E00E947D30282F30E040E047
:1053100050E02F83388749875A87CA01B9010E9414
:105320008F1480E090E00E948530883E9E4F21F0EF
:105330000E9441150E94AC1E46E050E06CE170E016
:1053400088E994E00E946D3010929704809198044F
:10535000843010F40E94AC1E0E94450D811102C0E1
:105360000E94082E8DE091E09093600480935F048A
:1053700088248394CE01019628E1E22EF12C30E4BA
:10538000732E42E5C42E44E0D42E582E692E992463
:105390009A9480913C04853079F480913C04853066
:1053A00009F43EC00E94BC110E94CE0D80E00E9414
:1053B000322780E00E9432270E944C2781110E94F0
:1053C000AA0AEAE4F4E0AEE0B4E0A12CB12C3190FA
:1053D0008D91831571F08325482F4170442E411122
:1053E00096C191E011E0140D492E440C173009F0DC
:1053F0006CC00FEFA01AB00A28E0A216B10439F76A
:1054000099829A821B820E94760A8160782F9D83FE
:105410008C8349815A816B81892F0E94DB1C0DC1CD
:1054200080913C04843049F181E00E9432270E943F
:10543000AD2681E00E9432271092D3030FB6F89474
:10544000A895E09260000FBE7092600083B7817FE4
:10545000846083BF83B7816083BF7894889583B766
:105460008E7F83BF0FB6F894A89580916000886105
:1054700080936000109260000FBE8091D403882357
:1054800009F48BCF0E944C27EAE4F4E0819181116A
:1054900004C0CE16DF06D1F780CF80E189BD82E15E
:1054A00089BD09B400FEFDCF8091D8008F7D809327
:1054B000D8008091E00082608093E0008091E0005D
:1054C00081FDFCCF0E94BC1168CF982F94219923B5
:1054D00009F41FC12A2C0E94450D8823A1F01983CD
:1054E000AA82342081E0311001C080E08B830E94C9
:1054F000760A8160782F9D838C8349815A816B81E4
:10550000892F0E94DB1CF501E25FFB4F808184251F
:105510008083809198048C7F8C3709F08EC08FEF48
:10552000820D21E0220DAFEFA10F91E0910F112329
:1055300081F037E03A9DF0013B9DF00D1124EB52D4
:10554000FC4FEA0FF11D308140E1340F08F43FEFCA
:105550003083412F50E077E0472E4A9CB0014B9CAE
:10556000700D11246B527C4FFB01E40FF51FB081CD
:1055700000E2B02E0B2F3B2D030F08F40FEF00833A
:10558000973009F44FC1B0E1FB01E90FF11D6081D3
:105590007B2F670F08F46FEF6083283029F1A11784
:1055A00008F443C1622F70E0FA01429EE00DF11D44
:1055B0001124EB52FC4F20810B2F200F08F42FEF0A
:1055C0002083E7E0E69F9001E79F300D11242B52E6
:1055D0003C4FF901E90FF11D20813DE0230F08F454
:1055E0002FEF2083821548F5A11770F477E0879F8D
:1055F000F0011124EB52FC4FEA0FF11D20813DE038
:10560000230F08F42FEF2083A7E08A9FF0011124D5
:10561000EB52FC4FDF01A40FB51F2C9130E1230F9B
:1056200008F42FEF2C93973041F0E90FF11D208102
:105630003DE0230F08F42FEF20830E94450D0E94C8
:10564000AD2686E0EFE8F4E0A52DB62D01900D9291
:105650008A95E1F7109291041092920410929304AB
:10566000109294040B811C81802F812B882379F068
:1056700080911804909119040E94C70A9C0180919E
:105680008E04811149C02B30310508F04BC00D81CB
:105690001E81802F812B882379F0809116049091B0
:1056A00017040E94C70A9C0180918D04811177C064
:1056B0002B30310508F079C046E050E0652D762D9D
:1056C0008FE894E00E944530892B61F48091910429
:1056D00090919204892B90919304892B909194043A
:1056E000892B81110E94820A86E0E52DF62DAFE814
:1056F000B4E001900D928A95E1F70E94CE0D909151
:105700001A04891709F445CE80931A0440CE10E09C
:10571000E1CE942D412E66CE2531310508F4B7CF68
:105720008F3F19F08F5F80938E04002359F00E9401
:10573000810591E010160CF09FEF899F802D1124B8
:1057400080939104112359F00E94810591E0111674
:105750000CF09FEF899F802D11248093920430914B
:105760009104332309F493CF20919204222309F466
:105770008ECF45EB3403C0011124892F911101C054
:1057800081E08093910455EB25039001112433238C
:1057900019F0309392047BCF8092920478CF213518
:1057A000310508F489CF8F3F19F08F5F80938D0406
:1057B000002359F00E94A10591E010160CF09FEF14
:1057C000899F802D112480939304112359F00E9406
:1057D000A10591E011160CF09FEF899F802D1124F7
:1057E0008093940430919304332309F465CF20917E
:1057F0009404222309F460CF65EB3603C001112421
:10580000892F911101C081E08093930475EB2703E8
:1058100090011124332319F0309394044DCF8092DA
:1058200094044ACF283009F4E1CE622F70E07887E3
:105830006F8377E0279F900111242B523C4FF90191
:10584000EA0FF11DB0816DE0B62E0B2F6B2D060F08
:1058500008F40FEF00836F817885F901E40FF51FDD
:10586000208130E1230F08F42FEF2083973009F0D7
:10587000A8CE821508F0E1CEB9CE1F921FB61F92B6
:1058800011248F939F93AF93BF938091D303811182
:1058900013C08091660290916702A0916802B09156
:1058A00069024196A11DB11D809366029093670223
:1058B000A0936802B0936902BF91AF919F918F91BD
:1058C0001F901FBE1F90189578941F921FB61F92AD
:1058D00011248F939F93AF93BF9380916602909111
:1058E0006702A0916802B09169020196A11DB11DE5
:1058F0008093660290936702A0936802B093690256
:10590000BF91AF919F918F911F901FBE1F901895CF
:105910001F920F920FB60F9211242F933F934F9324
:105920005F936F937F938F939F93AF93BF93EF9307
:10593000FF938091E10082FF09C08091E20082FF25
:1059400005C08091E1008B7F8093E1008091DA00B7
:1059500080FF24C08091D80080FF20C08091DA00B1
:105960008E7F8093DA008091D90080FF9BC080E118
:1059700089BD82E189BD09B400FEFDCF81E080933D
:105980003C0480915102811109C00E94A30B0E9426
:10599000CB0C8091E20084608093E2008091E10072
:1059A00080FF17C08091E20080FF13C08091E20069
:1059B0008E7F8093E2008091E20080618093E2001C
:1059C0008091D80080628093D80019BC85E08093D4
:1059D0003C048091E10084FF29C08091E20084FFB3
:1059E00025C080E189BD82E189BD09B400FEFDCFFB
:1059F0008091D8008F7D8093D8008091E1008F7EC8
:105A00008093E1008091E2008F7E8093E20080919C
:105A1000E20081608093E20080915002882309F4C3
:105A200047C084E080933C0480913C048091E10075
:105A300083FF27C08091E20083FF23C08091E100B3
:105A4000877F8093E10082E080933C0410925002B3
:105A50008091E1008E7F8093E1008091E2008E7F53
:105A60008093E2008091E20080618093E20042E056
:105A700060E080E00E94940C8091F0008860809348
:105A8000F000FF91EF91BF91AF919F918F917F9126
:105A90006F915F914F913F912F910F900FBE0F909B
:105AA0001F90189519BC10923C041092510276CFA9
:105AB0008091E30087FF02C083E0B4CF81E0B2CFE2
:105AC0001F920F920FB60F921124FF920F931F9304
:105AD0002F933F934F935F936F937F938F939F93F6
