:100000000C94DA020C94F7020C94F7020C94F702A9
:100010000C945F310C94F7020C94F7020C94F702E5
:100020000C94F7020C94F7020C949A2F0C947230F3
:100030000C944F2F0C94F7020C94F7020C94F702D7
:100040000C94F7020C94F7020C94F7020C94F7024C
:100050000C94F7020C94762F0C94F7020C94F70290
:100060000C94F7020C94F7020C94F7020C94F7022C
:100070000C94F7020C94F7020C94F7020C94F7021C
:100080000C94F7020C94F7020C94F7020C94F7020C
:100090000C94F7020C94F7020C94F7020C94F702FC
:1000A0000C94F7020C94F7020C94F7020501090274
:1000B000A10185020901A1000509190129081500FE
:1000C0002501950875018102050109300931158165
:1000D000257F95027508810609381581257F9501D0
:1000E00075088106050C0A38021581257F95017572
:1000F000088106C0C005010980A101850319012AF4
:10010000B700150126B700950175108100C0050CD8
:100110000901A101850419012AA002150126A002E6
:10012000950175108100C00660FF0961A101096297
:10013000150026FF00952075088102096315002629
:10014000FF00952075089102C005010906A101056F
:100150000719E029E7150025019508750181029529
:1001600001750881010507190029FF150026FF0008
:100170009506750881000508190129059505750181
:100180009102950175039101C009025B0003010012
:10019000A0FA090400000103010100092111010076
:1001A0000122400007058103080001090401000243
:1001B000030000000921110100012222000705822D
:1001C00003200001070503032000010904020001C8
:1001D00003000000092111010001227B00070584B2
:1001E000032000011201000200000008EDFE0000E3
:1001F000010001020001280341006E006700650054
:100200006C00770069006E006700730020004B00EF
:100210006500790062006F006100720064000000F8
:100220001E0344006C005300670076005F0061000D
:100230006E0064005F004E004D003100370000008A
:10024000040309042900350014001A0008001500F1
:1002500017004B00E00004001600070009000A0028
:100260000000E2001D001B00060019000500000050
:100270000000000000004C422A62E34130002F00E1
:10028000130012000C0018001C004E0034713300E3
:100290000F000E000D000B00000031743800370015
:1002A00036001000110000000000000000002B428A
:1002B0002C72284101002D023A003B003C003D0019
:1002C0003E00010057001E021F02200221022202EE
:1002D000000056001E001F00200021002200000028
:1002E000000000000000035101000100450044002F
:1002F00043004200410040003F0001002E00270261
:100300002602250224022302000001002700260005
:10031000250024002300000000000000000003511D
:1003200001000100A800530054005F00600061005C
:100330005600A900670055005C005D005E00570094
:1003400000000100620059005A005B0085000000B7
:100350000000000000000100010003514D003900C1
:100360004700480046004A000100AA0065714900A4
:100370004F00520050000100000001000100010088
:1003800051004D00010000000000000000000100CD
:100390000100035101000100175C1A5C185C0100A8
:1003A00001000100C25CC55CC75CC95CCB5C01009C
:1003B0000000C35CC65CC85CCA5CCC5C0100000089
:1003C0000000000000000100010001000100010028
:1003D0000100F500FE00F400F90001000100010039
:1003E000F300F000F200FA00000001000100FF003D
:1003F000F100FD000100000000000000000001000D
:1004000001000100000101010101010101010202DD
:1004100002020202020202030303030303030304B2
:10042000040404040404050505050506060606067D
:10043000070707070708080808090909090A0A0A37
:100440000B0B0B0C0C0C0D0D0D0E0E0E0F0F0F10D9
:100450001011111112121313141415151616171763
:10046000181819191A1A1B1B1C1D1D1E1E1F2020CF
:10047000212222232424252626272829292A2B2C19
:100480002D2D2E2F30313232333435363738393A3C
:100490003B3C3D3E3F404142434445464748494A34
:1004A0004C4D4E4F50515354555658595A5B5D5E02
:1004B0005F616264656668696B6C6D6F707273759D
:1004C00077787A7B7D7E8082838587888A8C8E8F01
:1004D00091939596989A9C9EA0A2A3A5A7A9ABAD2F
:1004E000AFB1B3B5B7BABCBEC0C2C4C6C9CBCDCF1D
:1004F000D1D4D6D8DBDDDFE2E4E7E9EBEEF0F3F5CB
:10050000F8FAFDFF000000000000000000000000FD
:1005100000000000000000000000000000000000DB
:1005200000000000000000007E0F00D4FFFFFFC7A6
:100530000000007800000000000000002A2B2800C6
:100540000000000000000000000000000000002982
:10055000000000002C1E3420212224342627252EC2
:10056000362D3738271E1F202122232425263333FA
:10057000362E37381F0405060708090A0B0C0D0E26
:100580000F101112131415161718191A1B1C1D2FF2
:100590003130232D350405060708090A0B0C0D0E12
:1005A0000F101112131415161718191A1B1C1D2FD2
:1005B0003130354C11241FBECFEFDAE0DEBFCDBFA6
:1005C00024E0AAE5B2E001C01D92A83EB207E1F71F
:1005D00012E0A0E0B1E0ECE8F9E602C005900D926F
:1005E000AA35B107D9F70E94072A0C943B340C9422
:1005F0000000292F983098F5873088F590E037E093
:10060000239F800D911D1124282F277041E001C0E8
:10061000440F2A95EAF723E0969587952A95E1F706
:10062000FC01EE0FFF1FE80FF91FEF57FB4F20E013
:1006300030E070E05191DF011197CB01022E02C032
:10064000969587950A94E2F7817081958527842392
:1006500085278C932F5F3F4F2330310559F708953D
:10066000292F983078F5873068F590E037E0239FA0
:10067000800D911D1124682F677023E09695879552
:100680002A95E1F7FC01EE0FFF1FE80FF91FEF5766
:10069000FB4F40E050E080E0219130E0062E02C0A8
:1006A000369527950A94E2F721703327042E01C06E
:1006B000220F0A94EAF7822B4F5F5F4F43305105B8
:1006C00059F7089580E008958091B1049091B004A5
:1006D000981301C008958F5F8770FACFEEE5F2E0BE
:1006E0009191891303C0DF0111971C9292E0E436C7
:1006F000F907B1F70895982F90958091A804892360
:100700008093A80408958091A90481111092A904EE
:1007100008959091AD0492FF06C0282F28712830CB
:10072000F9F4877F846093FF06C0282F2871283151
:10073000F1F4877E84612091AE0420FF06C0382F3B
:1007400038713830D9F4877F816021FF06C0282FA7
:1007500028712831D1F4877E816194FD877E0895C8
:10076000282F24712430F9F68B7F8860DCCF282F66
:100770002471243101F78B7E8861DDCF382F3171F0
:10078000313019F78E7F8860E0CF282F2171213119
:1007900021F78E7E8861E1CFCF93DF93EC01803E1D
:1007A000910509F46EC090F58133910509F4B2C04A
:1007B00088F48932910509F4A6C08A32910509F4BA
:1007C000B0C0019709F46EC0CE010497813A91053B
:1007D000D0F468C08933910509F44BC08238910583
:1007E00009F447C08533910509F486C0883A91051C
:1007F00030F4853A910540F3A497D06453C08F3B01
:10080000910508F4FBC0C0E0D0E04CC0843E9105E7
:1008100009F457C070F4823E910509F43FC0833E4D
:10082000910509F443C0C03FD10508F481C0D065EB
:1008300039C0863E910509F44FC0873E910509F401
:1008400050C0811523E5920708F089C0811532E573
:10085000930708F0FBC08F3F910529F320F3811522
:1008600041E5940708F469C0D82FCC27C16FD06A3E
:1008700019C08091AD0483708823A1F0C0EED0E050
:1008800011C08091AD0480FD0AC19091AE0490FF2B
:1008900009C0C3EED0E084FDB6CF04C08091AD04A2
:1008A00082FDF7CFCE01DF91CF9108958091AD0405
:1008B00082FDF8C09091AE0490FDE0CF84FFF2CFAE
:1008C000A2CF8091AE0481FFEDCF8091AD04C7EE41
:1008D000D0E084FD98CFE6CF8091AD0483FDF7CFC3
:1008E000E1CF8091AD0483FDE0C09091AE0491FF13
:1008F000E5CFC4EED0E0D6CF8091AD0485FFD2CF56
:10090000C9E2D0E0CFCF8091AD0485FFCBCFC5E366
:10091000D0E0C8CF8091AD0486FFC4CFCAE2D0E05A
:10092000C1CF8091AD0486FFBDCFC1E3D0E0BACF87
:10093000CE01805E910907974BCF811550E5950751
:1009400008F067C0811560E2960708F4ABCF9054B9
:100950008115904108F057CFDF70D06AA3CF811581
:1009600039E59307A0F5811548E5940708F084C0A0
:10097000811555E59507D0F4811564E5960708F0D3
:1009800076C08695869520E2829FC0011124C370AF
:10099000DD2721E030E0A90102C0440F551FCA95B0
:1009A000E2F7EA01C82BD92BDA687CCF95558F3F47
:1009B000910511F008F027CF8C2F0E948903C82FD2
:1009C000D0E0DC2FCC27CC27DF71D0626BCFC115F4
:1009D0008AE5D80708F455C0CE019056811590429B
:1009E00008F011CF8D2F8F710E94890390E0982F0E
:1009F000882788279F718C2BEC01E7CFC85AD0E05D
:100A0000CC0FDD1FC55DDD4F0990D881C02DD464AA
:100A100049CF9C0174E0369527957A95E1F72370CC
:100A200086958695837030E2839FC0011124922BB6
:100A3000C37021E030E0A90102C0440F551FCA95E0
:100A4000E2F7EA01C82BD92BDC682CCF8695869576
:100A500050E2859FC0011124C370DD2721E030E002
:100A6000A90102C0440F551FCA95E2F7EACFD82F5B
:100A7000CC27C46FD06A16CFD82FCC27C06FD06ACE
:100A800011CF8C2F8F700E94890334E0D695C795C3
:100A90003A95E1F7CF709C2FEC01D06903CFC9E301
:100AA000D0E000CFC2EED0E0FDCEC6EED0E0FACE70
:100AB00080E00895F894E82FE295EF70F0E041A10E
:100AC0008F7021E030E0B90102C0660F771F8A9570
:100AD000E2F7CB01962F9095942391A392A1892BB5
:100AE00082A3789408958091960480FD14C081FDBE
:100AF00014C082FD16C080919804882381F08E3145
:100B000080F420E5829FC00111246EE170E00E9414
:100B1000C532862F089584E1089588E2089588E01B
:100B2000089580E508958091960480FD17C081FDA9
:100B300017C082FD19C080919704882399F08832EC
:100B400098F428E0829FC001112468E270E00E94BE
:100B5000C5326115710551F0862F089562E0FCCF12
:100B600064E0FACF61E0F8CF68E0F6CF81E0089565
:100B7000E0E1E80F803FE0F1F0E0E35CFB4C0C9437
:100B8000D9320E947305819580939C0408950E9438
:100B90007305FACF0E947305819580939B04089595
:100BA0000E947305FACF0E94930580939D040895D7
:100BB0000E9493058195F9CF0E94930581958093BA
:100BC0009E0408950E949305FACF845F990B21E05B
:100BD00030E001C0220F8A95EAF780919A04822BB7
:100BE00080939A040895809196048160809396047E
:100BF0000895809196048260F9CF80919604846074
:100C0000F5CF40919B04803F59F480919C0487FF6D
:100C10000DC010929C04442359F41092980408C00B
:100C2000813F81F480919C0418169CF3442381F049
:100C300080919D0490919E04892B811159C010923E
:100C400097040895823F41F447FFF0CF10929B0430
:100C500080919C048823E0CF833F19F41416B4F3E9
:100C6000E5CF90919D04893F29F41916FCF6109266
:100C70009D04DCCF8A3F19F497FFD8CFF8CF90912D
:100C80009E048B3F29F497FFD1CF10929E04CECFC4
:100C90008C3F19F41916CCF3C9CF9CE0980F95300E
:100CA00090F4845F990B21E030E0B90102C0660F37
:100CB000771F8A95E2F7CB01809590919A0489235A
:100CC00080939A04B3CF8D3F31F4809196048E7F48
:100CD00080939604ABCF8E3F21F4809196048D7F54
:100CE000F7CF8F3F09F0A2CF809196048B7FF0CF92
:100CF0000895A0E0B0E0EFE7F6E00C948232E82F30
:100D0000F0E0EC5FFB4F711109C0E4918E2F7E2F54
:100D10006E2FCDB7DEB7EAE00C949E32262F30E07E
:100D2000C72FD0E0F491EF2F86E0829F8001839F50
:100D3000100D1124EE24EA94F12CC801B7010E9491
:100D4000B132AB01220F331F65E5649FC001659F7F
:100D5000900D1124281B390B822F880F280FC701F3
:100D60008C1B9D0BF89FD001F99FB00D11248B2F88
:100D70002C9FB0012D9F700D1124672F77275701ED
:100D8000A61AB70AFA9D6001FB9DD00C11247D2D97
:100D90005701A21AB10895012C9F50012D9FB00C4C
:100DA0003C9FB00C1124AB2CBB24EA18FB08FE9D21
:100DB000E001FF9DD00D112443305105C1F00C3FDF
:100DC00093E0190750F44130510509F4A1CF4230A6
:100DD000510589F07E2FED2F9BCF4430510571F0E6
:100DE00046305105B9F3EB2F8D2D7F2F91CFED2D8F
:100DF0007B2F8F2F8DCF7B2F8D2F8ACF7D2FEB2FAA
:100E0000F8CF9C0180E090E0269F812D369F800DD9
:100E1000911D112408959C018230910508F40895D4
:100E20009FEF213E8EE1380740F4C90145E09695D9
:100E300087954A95E1F798E0980F61E0E62FE90F72
:100E4000FF27FF1FAF0155954795842F449FF00161
:100E5000459FF00DF00D11242E173F0738F49FEF3A
:100E6000940F961758F78FEF860F08954F3FE9F3C9
:100E700061E0640FF6CF40910A0150910B0125E02B
:100E800038E0429FC001439F900D529F900D112466
:100E9000875E994C90930B0180930A01890F089506
:100EA000982FE82F96FDE0958E2F8F7096FD8F5F1F
:100EB000E695E695E695E670F0E0EE5EFD4F218161
:100EC000289F202D812D112422952F708295807FBF
:100ED000282B8081820F97FD819580580895FC0111
:100EE0009B01009719F4832F80780895AC0197FF38
:100EF00004C044275527481B590BB901640F751FBF
:100F000037FD0FC0C901841B950BA5E0880F991F01
:100F1000AA95E1F70E94C53280E2861BF7FD819514
:100F20000895CB0165E0880F991F6A95E1F7BA0132
:100F3000621B730B0E94C53280E6EFCF1F93172F01
:100F4000922FE42FF0E0EE0FFF1FE857FE4F408195
:100F500024EE429F412D1124E72FF0E050E09A014A
:100F6000245E3F4F291B310937FF03C0319521957E
:100F7000310993E0220F331F9A95E1F7E21BF30B3F
:100F8000F7FF02C0E0E0F0E07E2F719F712D112489
:100F90001F9108951F93182F822FE42FF0E0EE0F7A
:100FA000FF1FE857FE4F408124EE429F412D112440
:100FB000E12FF0E050E09A01245E3F4F281B3109F9
:100FC00037FF03C031952195310983E0220F331F8C
:100FD0008A95E1F7CF01821B930B9C0197FF02C01A
:100FE00020E030E0219F212D1124822F1F910895B0
:100FF0000F931F93CF93DF93D62F172FC82FBA01CC
:10100000C901212F201B022F0E946F07982F990FD3
:10101000990F782F791B700F719F712D11246D2FEF
:101020008C2FDF91CF911F910F910895FF920F9315
:101030001F93CF93DF93D62FC72F182FBA01C90163
:10104000F12EF01A0E946F07982F990F990F082F11
:10105000091B0F0D019F012D11246D2F7C2F802F57
:10106000CDB7DEB7E5E00C94A332EF920F931F9358
:10107000CF93DF93D62F172FC82FBA01C9010E19AE
:10108000010F0E946F07702F781B719F712D112423
:101090006D2F8C2FDF91CF911F910F91EF900895BD
:1010A000EF920F931F93CF93DF93D62FC72F182F55
:1010B000BA01C9010E19010F0E946F07081B019F99
:1010C000012D11246D2F7C2F802FDF91CF911F9147
:1010D0000F91EF900895622F0895E42FF0E0EE0F46
:1010E000FF1FE857FE4F6081621B0895E42FF0E078
:1010F000EE0FFF1FE05BFE4F61AD621B0895322FC4
:1011000050E0FA01EE0FFF1FE05BFE4F91AD9052F1
:1011100097FD9195440F551FFA01E857FE4F208126
:10112000231B330B290F311D97FD3A95620F08954C
:10113000EF920F931F9310E09801220F331F200F9F
:10114000311F359527956E2D620F1F910F91EF90EE
:1011500008950F93CF93DF93D72FC82FB90147FD81
:10116000419528E330E0241B310947FD3395229F48
:10117000A001239F500D500D1124669FC001679F51
:10118000900D900D1124840F951F0E940B07982F2E
:10119000990F692F680F600F7D2F8C2FDF91CF91F2
:1011A0000F9108950F93CF93DF93D72FC82FBA01D4
:1011B000C9010E946F07682F600F7D2F8C2FDF9170
:1011C000CF910F910895EF920F93CF93DF93D72F85
:1011D000C82FBA01C9010E190E946F07602F681B42
:1011E0007D2F8C2FDF91CF910F91EF9008950F936A
:1011F0001F93522F10E0F801EE0FFF1FE05BFE4F30
:10120000A1ADA052BB0B9D015203F001539FF00D05
:101210001124000F111FD801A857BE4F2C91205741
:10122000330B4203D001439FB00D11249F012A0FBD
:101230003B1F37FF02C021583F4F220F232F221F91
:10124000330B620F1F910F9108950F931F93522F2D
:1012500010E0F801EE0FFF1FE05BFE4FA1ADA052C2
:10126000BB0B9D015203F001539FF00D1124000FA1
:10127000111FD801A857BE4F2C912057330B4203A2
:10128000D001439FB00D11249F012A0F3B1F37FF50
:1012900002C0215C3F4F96E0359527959A95E1F77E
:1012A000620F1F910F9108950F931F93A42F10E0C9
:1012B000F801EE0FFF1FE857FE4F9081905797FD02
:1012C0009195000F111FF801E05BFE4F01AD005238
:1012D000110B2003A001219F500D112428E330E0C1
:1012E000291B310997FD33951A2F1203F001139F23
:1012F000F00D11244E0F5F1F9A01220F331F240F90
:10130000351F37FF02C021583F4F220F232F221FC6
:10131000330B620F1F910F9108950F931F93CF937B
:10132000DF93D62F072F182FC42F822F0E9450072C
:10133000982FEC2FF0E0EE0FFF1FE857FE4F808153
:101340008058980F97FD9195990F292F3CE0239F86
:10135000212D1124622F6D0F702F812FDF91CF91DE
:101360001F910F910895E42FF0E0EE0FFF1FE85753
:10137000FE4F9081921B97FD9195292F38E1239F75
:10138000212D1124620F0895A4E0B0E0EAECF9E009
:101390000C948A322091A60430E1230F08F42FEF39
:1013A00060E1822F90E00E940107BC0188EB9BE086
:1013B0000E94B132CB01A0E0B0E0BC01CD01249687
:1013C000E2E00C94A6320E949E0D0895FF920F93C6
:1013D0001F93CF93DF93182F062FF42EC0E0D0E099
:1013E0002F2D402F612FCE010E94E3092196CE328E
:1013F000D105B1F7CDB7DEB7E5E00C94A332962F57
:101400002091A20423702223A1F0882399F0813235
:1014100098F48F73880F880F2091A2042370822B79
:101420008093A204109239016091A104692B60930A
:10143000A104089581E0EECF80E2ECCF8091A20478
:10144000869586958F5F813208F081E061E00E9489
:10145000FF0908959091A204969596958FEF890FB4
:10146000913009F480E261E00E94FF090895922F13
:101470002091A2042370222371F08093A30460932F
:10148000A404433808F042E84093A5042091A10445
:10149000292B2093A1040895E2EAF4E0818190E0F1
:1014A00021E04381628108960E94370A0895E2EAAA
:1014B000F4E0818121E0438162818850990B0E9490
:1014C000370A0895E2EAF4E0628128E0620F08F446
:1014D0006FEF818121E0438190E00E94370A0895F7
:1014E000E2EAF4E0628128E0621B08F460E08181B6
:1014F00021E0438190E00E94370A0895E2EAF4E097
:10150000438128E0420F08F44FEF818121E062819E
:1015100090E00E94370A0895E2EAF4E0438128E06F
:10152000421B08F440E0818121E0628190E00E944A
:10153000370A0895E2EAF4E024813AE0230F08F440
:101540002FEF24838091A10481608093A1040895EA
:10155000E2EAF4E024813AE0231B08F420E024834B
:101560008091A10481608093A1040895FA018823E9
:1015700011F009950895FB01FCCF20918402309170
:1015800085022817390771F09093850280938402B1
:10159000E0917704F0917804309721F00680F7818C
:1015A000E02D099508952091820230918302281739
:1015B000390771F09093830280938202E09177045F
:1015C000F0917804309721F00084F185E02D0995A1
:1015D00008959C01FC0132968FEF90E041914617EF
:1015E00051F08F3F19F4411101C0892F9F5F963050
:1015F000A9F78F3F09F40895280F311D87FD3A950B
:10160000F901628308952FB7F89480917E0290913A
:101610007F02A0918002B09181022FBF08950E94A5
:10162000030B20919B0430919C04232B222321F057
:10163000809330049093310420919D0430919E0456
:10164000232B222321F080932E0490932F04E091EA
:101650007704F0917804309749F082E08093990400
:101660000480F581E02D89E994E009950895A4E0CE
:10167000B0E0EDE3FBE00C948A328FB7F894209150
:101680007E0230917F024091800250918102298335
:101690003A834B835C838FBF69817A818B819C8184
:1016A0002496E2E00C94A6329C014FB7F894809106
:1016B0007E0290917F02A0918002B09181024FBF83
:1016C000821B930B0895A4E0B0E0E9E6FBE00C94E4
:1016D0008832462F572FBC012FB7F89480917E0295
:1016E00090917F02A0918002B09181022FBF8C0166
:1016F0009D01041B150B260B370BC901B80124965D
:10170000E4E00C94A43287E797E790930108809374
:10171000000888E19AE00FB6F894A89580936000DD
:101720000FBE90936000FFCF80917D0208950895D1
:10173000FC019B01809170029091710286179707BE
:1017400040F0672B29F48091E8008E778093E800C1
:10175000C90140E0009741F4411106C08091E800C2
:1017600082FF2FC080E00895209154042223A9F124
:101770002530A9F12091E80023FD2DC02091E8003B
:1017800022FDECCF2091E80020FFE4CF3091F30060
:101790002091F200009719F02830310558F041E00F
:1017A0002830310509F040E02091E8002E772093A1
:1017B000E800D0CF41914093F10001972F5F3F4F58
:1017C000E9CF80915404882341F0853041F0809125
:1017D000E80083FFC3CF81E0089582E0089583E0AD
:1017E000089580916A0287FF13C08091E80082FF0C
:1017F00006C08091E8008B778093E80004C0809158
:1018000054048111F2CF0895809154048823D9F3B0
:101810008091E80080FFF8CF8091E8008E77ECCFD0
:101820002091E4003091E50095E6A9018091EC005B
:101830008170882331F08091E80080FF06C080E04D
:1018400008952091E80022FD1BC080915404882354
:1018500091F0853091F08091EB0085FD10C02091D2
:10186000E4003091E5004217530701F391509111C4
:10187000DCCF84E0089582E0089583E0089581E05C
:101880000895E8EDF0E080818E7F80831092E20081
:101890001092DA001092E100A0EEB0E08C9181602D
:1018A0008C9380818F77808319BCA7EDB0E08C91F9
:1018B0008E7F8C9380818F7E808310926902089541
:1018C000EF92FF920F931F93CF938C017B010E94A5
:1018D000100CC82F81110EC08091E80085FD11C049
:1018E0008091E8008E778093E8000E94100C882396
:1018F00099F3C82F8C2FCF911F910F91FF90EF90EC
:101900000895F80180818093F100F1E0EF1AF10869
:10191000E114F10479F30F5F1F4FDECFFC01AC013E
:101920004C5F5F4F8FEF91E32191822728E030E0F9
:1019300087FF0BC0880F89272150310921153105F8
:10194000B9F7E417F50781F70895880FF5CF982FB9
:10195000E42FE2709093E900891308C0762F242FBA
:1019600050E0E11111C091E0980FF4CF7091EC00BC
:101970002091ED005091F00021FD06C09F5F97304F
:1019800049F78093E90008953091EB003E7F309352
:10199000EB003091ED003D7F3093ED003091EB0096
:1019A00031603093EB007093EC002093ED00509386
:1019B000F0002091EE0027FDE1CF0895A0E0B0E017
:1019C000E4EEFCE00C948432C8EDD0E088818F7E98
:1019D0008883E7EDF0E080818160808384E082BFCE
:1019E00081E08093690288818E7F888302EE10E017
:1019F000F80110821092DA0081EEC82ED12CF60187
:101A0000108288818F778883888180688883888125
:101A10008F7D888319BC1092540410926802109232
:101A2000EC031092670290EEE92EF12CF701808111
:101A30008B7F808388818160888342E060E080E0E2
:101A40000E94A70CF60180818E7F8083F80180813F
:101A500081608083808188608083F70180818E7FB0
:101A60008083888180618883CDB7DEB7E8E00C94FD
:101A7000A03280915504811110C08091D8008061FE
:101A80008093D8008AE18A95F1F700C08091D9004F
:101A900080FF0AC081E08093550481E09091550455
:101AA000913009F080E0089582E0809355040E940F
:101AB000410C10925404F1CFA4E0B0E0E2E6FDE066
:101AC0000C948A320E94390D882371F00E94370BE2
:101AD00069837A838B839C8369817A818B819C81E2
:101AE0002496E2E00C94A6320E94370B69837A8335
:101AF0008B839C838091730490917404A0917504EE
:101B0000B091760429813A814B815C81280F391F7D
:101B10004A1F5B1F29833A834B835C83DDCFCF93BE
:101B2000C82F0E94390D882331F081E0C73108F0B9
:101B300080E0CF91089581E0CD32F9CFFF920F93ED
:101B40001F93CF93DF93EC01F62E042F122F0E94E8
:101B5000390D81110FC0C731D1057CF06797FE01A7
:101B6000EE0FFF1FEC0FFD1FEA57FD4FF1820083C0
:101B7000128303C0C731D10594F3CDB7DEB7E5E0DA
:101B80000C94A3320E94390D882359F0E091770418
:101B9000F0917804309729F00190F081E02D0995BB
:101BA000089580E00895AF92BF92DF92EF92FF9286
:101BB0000F931F93CF93DF935C01C09105018AE0DF
:101BC000C89FC02D11241AE01C0F1F3208F01EE21E
:101BD0000E94390D882319F0183108F017E10E948E
:101BE000390D811103C0C73108F4C7E16091A60423
:101BF00066958091E7039091E8030E940107D82E33
:101C0000D0E0CE01880F991F9C01205B3E4F7901E7
:101C1000C11768F0812F0E948F0DDF91CF911F9126
:101C20000F91FF90EF90DF90BF90AF900895FE016D
:101C3000EC51FE4F80819091060189238823C1F0E9
:101C4000F70121AD2052330B40AD4057550B609149
:101C5000A3047091A4048091A5040D2DF5010995AC
:101C60000E947906462F672F282FCE010E94E30994
:101C7000F2E0EF0EF11C2196CBCFA0E0B0E0E3E460
:101C8000FEE00C947E325C01C09105018AE0C89FA1
:101C9000C02D11241AE01C0F1F3208F01EE20E9412
:101CA000390D882319F0183108F017E10E94390D19
:101CB000811103C0C73108F4C7E16091A60466959D
:101CC0008091E7039091E8030E940107F82ED0E08D
:101CD000CE01880F991F9C01205B3E4F6901C117FF
:101CE00040F0812F0E948F0DCDB7DEB7EEE00C944F
:101CF0009A32FE01EC51FE4F8081909106018923BA
:101D0000882379F1F60180AD282F2057330B490144
:101D100081ADE82FE052FF0B3F01889C9001899C28
:101D2000300D300D1124EE9FC001EF9F900D900DEE
:101D30001124820F931F0E940B07082F6091A304A8
:101D40007091A4048091A504EF2C9301A401F501E6
:101D500009950E947906462F672F282FCE010E94F1
:101D6000E309F2E0CF0ED11C2196B9CFA5E0B0E097
:101D7000ECEBFEE00C9484326C01809105018983C8
:101D80008AE09981989F802D11248B83182F165FEC
:101D90001F3208F01EE20E94390D882319F0183115
:101DA00008F017E10E94390D811105C0EB81E73180
:101DB00010F4F7E1FB836091A60466956695809127
:101DC000E7039091E8030E940107F82E80E48F0D4D
:101DD0000E945007805889838F2D0E945007805899
:101DE0008A839B81892F90E09D838C839C819117AE
:101DF00038F0812F0E948F0D2596E8E00C94A032D8
:101E0000EC81FD81EC51FE4F808190910601892388
:101E10008823A9F06091A3047091A4048091A50483
:101E2000EF2C0C812A814981F60109950E947906DF
:101E3000462F672F282F8C819D810E94E3098C817A
:101E40009D810196D1CFEF92FF920F931F93CF9375
:101E5000DF937C01C09105018AE0C89FC02D112449
:101E60001AE01C0F1F3208F01EE20E94390D882371
:101E700019F0183108F017E10E94390D811103C0E3
:101E8000C73108F4C7E16091A6046695669521E024
:101E9000620F08F46FEF8091E7039091E8030E94CE
:101EA0000107082FD0E0C11740F0812F0E948F0D4D
:101EB000CDB7DEB7E6E00C94A232FE01EC51FE4F46
:101EC0008081909106018923882391F06091A30479
:101ED0007091A4048091A504202F4C2FF70109953F
:101EE0000E947906462F672F282FCE010E94E30912
:101EF0002196D9CF529A3BB13B7F2BB124604FB78B
:101F0000F89486E892E0FC010196508168E02BB9D4
:101F1000000000C057FF3BB9550F000000C000C0D3
:101F200000C03BB900C06A9591F753E08031950736
:101F300051F74FBF8FE594E00197F1F700C0000023
:101F40000895CF93DF93D82FC92F81E08093E900C4
:101F50008FEF9091E80095FD07C095ED9A95F1F708
:101F6000000081508111F5CF8091E80085FD03C00C
:101F7000DF91CF91089540E050E068E070E08D2F50
:101F80009C2F0E94600C8091E8008E778093E8007F
:101F900088E0ED2FFC2FA5E7B2E001900D928A9525
:101FA000E1F7E6CF24E02093E9002FEF3091E8003D
:101FB00035FD07C035ED3A95F1F7000021502111AC
:101FC000F5CF2091E80025FF0BC040E050E066E02F
:101FD00070E00E94600C8091E8008E778093E800AA
:101FE00008958093720270937402609373028091DB
:101FF00054048430F9F48093E9008FEF9091E80065
:1020000095FD07C095ED9A95F1F70000815081117B
:10201000F5CF8091E80085FF0DC040E050E063E01F
:1020200070E082E792E00E94600C8091E8008E7779
:102030008093E8000895BC0183E00E94F10F0895A9
:10204000BC0184E00E94F10F0895A0E0B0E0EBE253
:10205000F0E10C948232F82EE92EB62EA72E8A01DA
:1020600080915904CC24C394D12C8A3018F48AE08E
:10207000C82ED12CC1E0D0E06B2D7A2D8F2D9E2D56
:10208000F8010995811116C02196CC16DD0694F051
:10209000CC9FC001CD9F900D900D112420E030E029
:1020A00045E34A95F1F700002F5F3F4F28173907A6
:1020B000B9F7E2CFCDB7DEB7EAE00C949E328823C1
:1020C00081F062E283E290E00E94B43367E084E250
:1020D00090E00E94B43366E285E290E00E94B4335F
:1020E00008956FEF83E290E00E94B4336FEF84E2D3
:1020F00090E00E94B4336FEFEFCF1F93CF93DF9345
:10210000962F122F632F8430D8F49830C8F44730BC
:10211000B8F4C42FD0E0CC0FDD1F2EE0929FC00D8D
:10212000D11D112490E7899FC00DD11D1124CE012E
:1021300087960E94B433612FCE0188960E94B433F3
:10214000DF91CF911F910895AF92BF92CF92DF920E
:10215000FF920F931F93CF93DF93A12CB12C00E03C
:10216000650110E013C0FE01259134914F2D612FC0
:10217000802F0E947D102296F39487E0F812F3CF0F
:1021800087E0C80ED11C1F5F183039F0E601CC0F74
:10219000DD1FCC5BDD4FF12CE6CF0F5F88E3A80E8F
:1021A000B11C0430E9F6DF91CF911F910F91FF90A0
:1021B000DF90CF90BF90AF900895CF93DF93C7EE9D
:1021C000D1E060E0CE010E94B4332196C11584E0D5
:1021D000D807B9F7DF91CF91089580E00E945F1092
:1021E00060E086E290E00E94B4330E94A4100E9456
:1021F000DD1081E00E945F100895CF9384E090E0AD
:102200000E949633C82F82E290E00E949633982F66
:102210008C2FCF91089583E290E00E949633823212
:1022200089F484E290E00E949633873059F485E285
:1022300090E00E94963391E0863209F090E0892F79
:102240008170089580E0FCCF0F931F93CF93DF93AD
:10225000843030F5683020F5473010F5C42FD0E0D9
:10226000CC0FDD1F2EE0629FC00DD11D112430E781
:10227000839FC00DD11D1124CE0187960E949633F5
:10228000082F10E0102F0027CE0188960E94963369
:102290009801282BC901DF91CF911F910F910895CB
:1022A00080E090E0F8CF462F672F843038F4783004
:1022B00028F4473018F40E942411089580E090E03B
:1022C0000895A0E0B0E0E7E6F1E10C9485327C01EE
:1022D0000091AB048091AA04082BC7E0D0E010E085
:1022E000C8010C2E02C0959587950A94E2F780FDEF
:1022F00009C02197A8F7D12C8D2DCDB7DEB7E7E027
:102300000C94A132DC2EB7018C2F0E9453110E9435
:10231000CC03019771F3F0CF0F931F93CF93FC0180
:10232000828100811181882391F0662381F0C801A8
:102330000E946111C82F682FC8010E94F902B801DC
:102340008C2F0E945311CF911F910F910895C801B6
:102350000E943003C82FF3CFCF93DF93D82FC92F1C
:102360000E9461116D2F7C2F0E9453110E94CC039B
:10237000DF91CF9108950E94AC11282F92959F7004
:10238000963091F060F4925F9F70923030F481E06B
:10239000203F79F030F4283E30F080E008959A5FD5
:1023A000F3CF243FD1F7089581E0283EE0F3213FA9
:1023B000F9CF08958091A8049091AF04892B809360
:1023C0005C029091A904992391F0892B80935C027F
:1023D00020E08EE592E0FC013081019631112F5F03
:1023E00032E084369307B9F721110E94830348E055
:1023F00050E069E774E08CE592E00E945E33892B3F
:10240000A9F088E0ECE5F2E0A9E7B4E001900D92D4
:102410008A95E1F7E0917704F0917804309731F0F4
:102420000280F381E02D8CE592E009950895CF9329
:10243000C82F8823A9F08CEF8C0F813A98F4EEE531
:10244000F2E08191C81709F43FC022E0E436F207B8
:10245000C1F76C2F8CE592E00E94E90A0E94DA1124
:10246000CF91089580E28C0F883068F4C77021E026
:1024700030E001C0220FCA95EAF78091A804822BB0
:102480008093A804EBCF8BE58C0F833038F42C2F8E
:102490002452330BC9010E94BD0AE2CFE8E5EC0FDC
:1024A000E73150F4F0E0EE0FFF1FE55DFD4F808156
:1024B00091810E94D30AD4CFC03F90F28C2F0E940A
:1024C000B8050E940F0BCCCF8C2F0E946E030E9488
:1024D000DA11BFCF882379F19CEF980F913A28F455
:1024E0000E946E030E94DA11089590E2980F9830CE
:1024F00050F4877091E001C0990F8A95EAF7892F0F
:102500000E947B03EFCF9BE5980F933028F480E087
:1025100090E00E94BD0A089598E5980F973128F43D
:1025200080E090E00E94D30A0895803F20F00E944E
:1025300001060E940F0B08950F931F93CF93C82F8E
:1025400000E010E0893311F400E510E08C2F0E94C8
:1025500017120115110539F48C2F0E946A12CF91C0
:102560001F910F9108958FE99FE00197F1F700C047
:10257000000001501109EDCF882339F09091A80493
:10258000892B8093A8040E94DA110895882321F0F2
:102590000E947B030E94DA1108950F931F93CF933B
:1025A000DF93C62FD42F122F8823A9F060939F04A6
:1025B0000E94030B9093650280936402C77081E0D0
:1025C00001C0880FCA95EAF70E94BC12DF91CF9133
:1025D0001F910F91089580919F04681332C08091DC
:1025E0006402909165020E94540B883C910548F565
:1025F000CD130CC0812F0E949C12D77081E001C0C6
:10260000880FDA95EAF70E94C612E0CFC77001E0A2
:10261000802F01C0880FCA95EAF70E94C61280E297
:102620008D0F883050F48D2F877001C0000F8A9570
:10263000EAF7802F0E94BC12DDCF812F0E949C12EE
:10264000C5CFC77081E001C0880FCA95EAF7DBCF1C
:1026500080E090E00E94BD0A80E090E00E94D30AF2
:102660001092AF040E94DA1186E0E9E9F4E0DF019C
:102670001D928A95E9F7109298041092970410928F
:1026800096040E940F0B08951092A804EEE5F2E064
:1026900086E0DF011D928A95E9F70E9428130895CC
:1026A0000E9444132FEF84E39CE02150804090402F
:1026B000E1F700C0000088E19AE00FB6F894A89511
:1026C000809360000FBE90936000FFCFAAE2B0E05D
:1026D000ECE6F3E10C9489328AE692E0FC01019683
:1026E0002091F100208322E082379207B9F7809190
:1026F0006B02893009F456C0C8F4823009F4B3C0C3
:10270000833009F482C0813071F18091E80083FF49
:10271000E7C080916A0290916B029A3008F0E0C0A5
:10272000E92FF0E0E35BFB4C0C94D9328A3009F4DA
:1027300089C08B3051F780916A02813231F78091E4
:102740006E0290916F02892B01F78091E800877FDC
:102750008093E8000E94F10B80916C028093040149
:102760000E944413D2CF80916A02813A71F680911F
:10277000E800877F8093E80080916E0290916F025D
:10278000892B61F060E080E090E070E00E94980B9F
:102790008091E8008B778093E800B7CF68E085E709
:1027A00092E0F3CF80916A02813209F0AECF80913E
:1027B0006E0290916F028D7F892B09F0A6CF8091D8
:1027C000E800877F8093E8008091E80082FF18C0CE
:1027D0009091F3008091F200029731F48091F10022
:1027E000813011F0863021F48091F10080937D02D8
:1027F0008091E8008B778093E8000E94F10B85CFF1
:10280000809154048111E0CF80CF80916A02813A97
:1028100009F07BCF80916E0290916F02892B09F0B5
:1028200074CF8091E800877F8093E8008091E80072
:1028300080FFFCCF809104018093F1008091E8003B
:102840008E77D9CF80916A02813209F05ECF809174
:10285000E800877F8093E8000E94F10B80916D0271
:102860008093660252CF80916A02813A09F04DCF7F
:102870008091E800877F8093E8008091E80080FFE6
:10288000FCCF80916602D8CF803889F0823841F53C
:1028900080916E028F70873018F58093E9008091E7
:1028A000EB0085FB882780F91092E90006C0809133
:1028B00067029091EC03911182609091E800977FFC
:1028C0009093E8008093F1001092F1008091E8006D
:1028D0008E7723C0811116C080916C02813011F176
:1028E0008091E80083FF0AC08091E800877F809391
:1028F000E8008091EB0080628093EB00AA96E3E011
:102900000C94A532823061F780916C02882389F0A3
:102910001092E9008091E800877F8093E8000E9490
:10292000F10BDECF81E0933009F080E08093EC037F
:10293000EFCF80916E028F702FEF280F263080F638
:102940008093E9002091EB0020FFE2CF933031F437
:102950008091EB0080628093EB00DACF9091EB00E6
:1029600090619093EB0021E030E0A90102C0440F98
:10297000551F8A95E2F74093EA001092EA00809191
:10298000EB008860E8CF8111ABCF10916C021F770C
:102990008091E3008078812B8093E3008091E800B0
:1029A000877F8093E8000E94F10B8091E80080FF10
:1029B000FCCF8091E30080688093E30083E01111F5
:1029C00001C082E0809354048BCF8058823008F09D
:1029D00087CF40916C0250916D024C3D83E05807C7
:1029E00099F583E08A838AE289834FB7F894DE0100
:1029F000139620E03EE051E2E32FF0E050935700C1
:102A0000849120FF03C082958F703F5F8F708A3062
:102A1000C8F0895C90E08D939D932F5F243161F71E
:102A20004FBF8091E800877F8093E8006AE270E002
:102A3000CE0101960E94980B8091E8008B778093DD
:102A4000E8004ECF805DE6CF80916E0290916F02DC
:102A5000252F33272330310509F44AC078F521307A
:102A6000310509F479C08BE590E0E9E8F1E0223026
:102A7000310509F035CF2091E800277F2093E80049
:102A800020917002309171028217930708F49C0123
:102A900040E02115310509F064C0411162C0809108
:102AA000E80082FDC9CF80915404882329F2853043
:102AB00019F28091E80083FFF2CFBECF21323105B9
:102AC00009F43BC02232310509F00ACF8330910569
:102AD00008F006CFFC01EE0FFF1FEC5BFE4F0190EC
:102AE000F081E02D8F5B9E4FDC018C9190E011C056
:102AF000CA019927413089F082309105B1F0892BC4
:102B000009F0EECEE0E4F2E0E4918E2F90E0E0E414
:102B1000F2E0009709F4E4CEAECFE0E2F2E0E49117
:102B20008E2F90E0E0E2F2E0F4CFE6EFF1E0E49106
:102B30008E2F90E0E6EFF1E0ECCF8330910508F0C6
:102B4000CFCEFC01EE0FFF1FE65BFE4F0190F08140
:102B5000E02D89E090E08FCF82E190E0E4EEF1E0BB
:102B60008ACF80915404882309F466CF853009F414
:102B700063CF8091E80083FD5FCF8091E80082FD04
:102B80008ECF8091E80080FF84CF9091F3008091F8
:102B9000F2002115310519F08830910550F041E01F
:102BA000089709F040E08091E8008E778093E80074
:102BB00070CF44914093F100319621503109019634
:102BC000E8CF803809F08CCE8091E800877F809331
:102BD000E800809168028093F10078CE811180CE68
:102BE00010916C02123008F07BCE8091E800877F54
:102BF0008093E800109368020E94F10B1123D1F03A
:102C000084E08093540442E061EC81E00E94A70CD0
:102C100042E261EC84E00E94A70C42E261EC82E0B7
:102C20000E94A70C42E260EC83E00E94A70C809116
:102C3000540456CE8091E30087FDE2CF81E0E1CFDE
:102C40008093AA040E94281308958093AB040E94E5
:102C50002813089521E030E001C0220F8A95EAF799
:102C60008091AB04822B0E942516089521E030E06C
:102C7000A90102C0440F551F8A95E2F7CA01809549
:102C80009091AB0489230E94251608952091AC04ED
:102C9000809582238093AC04982F9770911113C074
:102CA00030E0482F082E000C550B2417350759F03B
:102CB0009091AE0492FF07C08595859585950E94F9
:102CC00036161092AC040895CF93C091AE04C2FBA7
:102CD000992790F9981791F080FBC2F9C093AE0440
:102CE0006091AD0484E090E00E94B4336C2F82E2E6
:102CF00090E00E94B43382E00E944616CF9108957E
:102D00008091AB04982F9670963021F488600E94D1
:102D100025160895877FFBCF68EE7EEF80E090E078
:102D20000E94D23360E082E090E00E94B43360E021
:102D300083E090E00E94B4331092AA0460E084E043
:102D400090E00E94B43364E082E290E00E94B433E9
:102D500060E085E090E00E94B43360E086E090E0BF
:102D60000E94B4336FEF87E090E00E94B43340E0FC
:102D700050E0BA0188E090E00E94C63360E08DE048
:102D800090E00E94B43340E050E0BA0188E190E066
:102D90000E94C63360E087E190E00E94B43340E0D7
:102DA00050E0BA018CE190E00E94C63360E070E030
:102DB00080E290E00E94D23340E050E0BA0188E126
:102DC00090E00E94C63380E00E945F100E94ED10E8
:102DD00040E050E0BA018FE090E00E94C63340E04E
:102DE00050E0BA0183E190E00E94C6330895A4E068
:102DF000B0E0EDEFF6E10C947D327C01FC019081B6
:102E0000818123813481232B09F45BC089238F3F87
:102E100009F457C061E0C7010E948C118C01F701D1
:102E20008281882309F421C5980122513F45203130
:102E3000310508F025C58FEF93E00E94963381118C
:102E400030C0025147EEC42EDD24D39401113DC0A1
:102E500080913A0190913B01A0913C01B0913D01DC
:102E600089839A83AB83BC83662463943AE0532EB0
:102E700086010F5F1F4FC6010E94963389831A8215
:102E8000882379F09FEF980F933070F58A836982D9
:102E900032E0C30ED11CC8010E9496338B8381118E
:102EA00024C08091AC048770882359F0F701828197
:102EB000882339F08091AE0482FF03C082E00E9433
:102EC00046162496EFE00C949932C114F4E0DF0624
:102ED00041F3C6010E94963396012F5F3F4F69016F
:102EE0008111F3CF0150B2CF68018E010F5F1F4FE8
:102EF000F8018081882309F4BBCF813009F042C0FA
:102F000091818281913029F40E5F1F4F0E949C12A3
:102F100006C0923039F40E5F1F4F0E9417120F5FE8
:102F20001F4FE6CF933029F40E5F1F4F0E946A12A5
:102F3000F6CF943019F00F5F1F4FF1CF0E5F1F4F88
:102F400020E030E0A8014F5F5F4F8053990B8A303B
:102F5000910560F02115310511F38FE99FE001978C
:102F6000F1F700C0000021503109F4CF529EB001AA
:102F7000539E700D11249C01260F371FF80181818B
:102F80008A01E0CFE82FF0E0EC5CFA4F7490282F34
:102F900026952695269530E0F901EC5DFA4F94913F
:102FA0008770F901EC5EFA4FA490B12C082E02C094
:102FB000B594A7940A94E2F7E1E0AE22BB24F901AC
:102FC000EC5FFA4F8490912C082E02C09594879460
:102FD0000A94E2F7F1E08F229924292F30E002C011
:102FE000359527958A95E2F720FF0BC081EE0E9468
:102FF0001712A114B104D9F4872D0E949C1281EEFE
:1030000013C0A114B10449F4872D0E949C128114AD
:10301000910409F484CF8CE279CF86EE0E941712D6
:10302000872D0E949C1286EE0E946A12F0CF86EED7
:103030000E941712872D0E949C1286EE0E946A122F
:10304000DECF81E00E942A160E9480162ACF81E0FE
:103050000E943616F9CF82E0F5CF053FFCE51F0749
:10306000E1F0063F2CE51207E1F027E245EE64EEC1
:10307000043F3CE5130771F0811117C00D351007AF
:1030800009F40FCF39C127E245EE65EE03C026E211
:1030900041EE60EE0E94CD1204CF26E241EE62EED8
:1030A000F9CF27E245EE66EEF5CF10929F04013688
:1030B0008DE5180771F108F446C0053A2DE51207B1
:1030C00009F0D5C10E94FD109093AE04809580FB5D
:1030D000809580F926C010929F040631ECE51E070A
:1030E00090F50230FCE51F0708F4AAC10E94FD100C
:1030F0009093AE048093AD04F801E350FC458091B9
:10310000AD048160E331F10560F4E95AFB4C0C94A5
:10311000D9320E94FD109093AE04809584FB809577
:1031200084F98093AD046091AD041091AE0484E005
:1031300090E00E94B433612F82E290E00E94B433A9
:103140000E944413AECEC8018A5F9C45099708F0DF
:1031500099C00E94FD109093AE048093AD04F801D5
:10316000EB5FFC45E830F10580F4E659FB4C0C942C
:10317000D9328091AD048260D4CF8091AD04846057
:10318000D0CF8091AD048860CCCF8091AE048160B7
:103190008093AE04C8CF8091AE048260F9CF809155
:1031A000AD048061BECF8091AD048062BACF8091C2
:1031B000AD048064B6CF0E9444138091AD04806852
:1031C000B0CF8091AD048C60ACCF8091AE048360B1
:1031D000DFCF8091AD048E7FA4CF8091AD048D7F31
:1031E000A0CF8091AD048B7F9CCF8091AD04877F71
:1031F00098CF8091AE048E7FCBCF8091AE048D7F2F
:10320000C7CF8091AD048F7E8CCF8091AD048F7D30
:1032100088CF8091AD048F7B84CF0E94441380912E
:10322000AD048F777ECF8091AD04837F7ACF80917C
:10323000AE048C7FADCF8091AD0482FB992790F9CD
:1032400021E0922790FB82F990FB83F96ACF80916D
:10325000AE04982F909591708E7F892B90FB81F909
:1032600097CF0E9444139091AD04892F97FB87F963
:10327000805857CF61E08EE090E00E94B43353CF86
:1032800060E0F9CF06313CE51307A1F00B354DE5C1
:10329000140709F4F5C008F4CFC00C351D4561F5DD
:1032A0008091AE0482FB882780F991E089270E94F3
:1032B000641622C08091A8048A7A91E0811101C02D
:1032C00090E09093A00465E3811101C069E28CE570
:1032D00092E00E94E90A0E94DA11E3CD85E301C37E
:1032E0008091A8048272063DECE51E0728F4023C9A
:1032F000FCE51F0708F045C0F7018281C080D1803E
:10330000882309F4BFC0C6010E946111182F682FDD
:10331000C6010E94F902B601812F0E9453110E943A
:10332000CC038C01F701B280A580A2942FE0A222E9
:103330008091AC0487708823C1F0DB2CBB20B1F0F6
:10334000812F807F803421F080E2800F883068F008
:103350008091AE0482FF09C082E00E9446168091EF
:10336000AC048770DD24D3948111D12CE12FE29538
:10337000EF70103C08F0F9C0F0E0EE58FB4C0C94F4
:10338000D932F801E25CFC45E431F10508F0B4CF34
:10339000E258FB4C0C94D9328091A20491E0892729
:1033A0008093A204109239018091A10481608093DE
:1033B000A10477CD4AE25AE06EE17AE00E94B60AB3
:1033C00070CD4EE15AE06AE27AE0F8CF47E55AE084
:1033D0006CE47AE0F3CF4CE45AE067E57AE0EECFB4
:1033E00040E75AE062E67AE0E9CF42E65AE060E779
:1033F0007AE0E4CF4CE85AE06EE77AE0DFCF4EE7C0
:103400005AE06CE87AE0DACF48EA5AE06AE97AE012
:10341000D5CF4AE95AE068EA7AE0D0CF61E081E0AE
:103420000E94FF093ECD61E085E0FACF61E08DE0CA
:10343000F7CF61E082E1F4CF0E3D3CE51307E9F000
:1034400081E00A354DE5140709F431CF01151C451B
:1034500009F052CF0E944413EFEFF4E32CE0E15067
:10346000F0402040E1F700C000000E94830B073AC3
:103470001D4509F041CF0E9450130E948C16FBCFCE
:1034800080E015CFC6010E943003182F44CFF12FE2
:10349000FF70CF2E103118F0C29490EFC922BB20DC
:1034A000B9F0CC2069F080E2800F883010F0011173
:1034B00009C08091A8048C298093A8040E94DA1185
:1034C000802F4BC08091AF048C298093AF04F6CF3E
:1034D000802F0E946A12CC2009F447C080E2800F3E
:1034E000883010F0011104C08C2D0E947B0307C0AE
:1034F0000C2D00958091AF0480238093AF040E942F
:10350000DA1133C0212F2F70C22E107F103219F024
:10351000C29480EFC822002381F0013009F462C018
:10352000BB2009F46CC0AA2009F462C0F7018581B0
:1035300080FFC6CF8F7085835BC02091AE0422FDD3
:1035400030C0BB2069F0CC2039F08091A8048C29D0
:103550008093A8040E94DA1180E00E94171205C02F
:1035600080E00E946A12C110BFCFDD20A9F08091D7
:10357000AC0480FD11C0F701128285958595859573
:103580000E942A16C7010E94F7168091AC04859507
:10359000859585950E94361660E0C7010E948C11C2
:1035A00090CCBB2099F09091A9048C2D892BA1106F
:1035B00003C00E94BC12D9CF31E0A312FACF22FF80
:1035C000D4CF981791F28093A904CFCFA11006C051
:1035D0000E9483038C2D0E94C612C7CF41E0A4161F
:1035E00021F2F6CFBB2031F085E08A1508F4BDCF7B
:1035F0008C2DDFCF94E09A1508F4B7CFEBCFAA203B
:1036000049F3093349F4FFEF27EE33E0F15020404E
:103610003040E1F700C00000802F0E946A12A5CF61
:10362000812F869586958370882361F0813009F01B
:103630009CCFC8019370B11002C080E090E00E945E
:10364000D30A93CFC8019370B11002C080E090E01C
:103650000E94BD0A8ACF802FBB2029F00E94B805A6
:103660000E940F0B82CF0E940106FACF812F837038
:10367000811134C0B11027C0402F42954695477044
:10368000440F440F802F8F70042E01C0880F0A94BE
:10369000EAF7202F2071222339F02FE030E001C01B
:1036A000220F4A95EAF72095169516951370123059
:1036B00081F0133061F03091AA04113039F0822B7F
:1036C00083230E9420160E94C20D4FCF832B822B92
:1036D000F8CF822B9091AA048927F3CFBB2051F118
:1036E00010FFF1CF402F429546954770440F440F8D
:1036F000802F8F70042E01C0880F0A94EAF7202FC4
:103700002071222339F02FE030E001C0220F4A95CA
:10371000EAF72095169516951370123089F013303C
:1037200069F03091AB04113041F0822B83230E9469
:103730002516C9CF823038F2D5CF832B822BF7CF15
:10374000822B9091AB048927F2CF1F70BB2039F0F8
:10375000812F0E942A16802F0E94BC12B4CF802F86
:103760000E94C612812F0E943616ADCF023F69F12A
:1037700078F4003FC1F0013F09F43EC0BB2009F4DA
:1037800062C0AA2009F45CC0802F0E9417129BCF50
:10379000033F11F1043F61F1B110F3CFA11061C0FB
:1037A000812F8F71E0CFBB2069F044E04A1508F407
:1037B0008ACF1F7181E090E0012E01C0880F0A942A
:1037C000EAF7BFCF85E0A816F2CF812F8F71B11035
:1037D000CACF0E942A1677CF80E0BB2009F4A7CF7A
:1037E0001F7181E0012E01C0880F0A94EAF79FCF74
:1037F0008091AE0482FD06C0812F8F71BB2009F439
:10380000B2CFE7CFBB2089F01F71812F0E942A160B
:103810008091AE0482FF07C0E8E01E9FC001112422
:1038200083608093AC04812FD4CF81E00E94461640
:10383000F1E0FA1508F047CF82E00E94461643CF28
:10384000812F8F71C6CFAA2009F4AACF093349F47A
:103850002FEF37EE43E0215030404040E1F700C009
:103860000000802F0E946A122ECF0031FFE51F0753
:1038700009F4EDCB01312FE5120761F482E0E8CBCA
:1038800000313FE5130709F4DCCB01314FE51407A4
:1038900009F4E1CB033F2CE5120709F4F8CB08F05B
:1038A000DCCB083D4CE5140709F4EDCB28E241E000
:1038B000093D9CE5190709F4E8CB26E241EE61EEEB
:1038C000073DECE51E0709F4E5CB811104CC063178
:1038D0004CE5140709F004CD8091A0048111FECCC1
:1038E00089E20E946E03F7CC1F93CF93DF93809100
:1038F000E704803108F04CC08091E404882309F487
:1039000047C08091B1042091B0046091E2043091ED
:10391000E304C091E504D091E604732F76232817C1
:10392000B9F190E0209709F443C016E07F3F09F415
:103930003FC0189FF001199FF00D1124DF01AE5414
:10394000BB4F11964C91119734132CC04C914613D8
:1039500029C012964C91129741111EC013964D9199
:103960005C914C1B5D0B483C5105E0F48091E704F1
:103970008F7080618093E704E954FB4F80818F70E2
:103980008061808382EE94E00E94F7160E946403B7
:10399000DF91CF911F910895019687709927281381
:1039A000C8CFF6CF0196877099272813BFCFF0CFE5
:1039B00001968770B4CFABE0B0E0E1EEFCE10C948F
:1039C00080328C0185E0F801DE01179601900D929E
:1039D0008A95E1F7F801C280A380B48082EE882E38
:1039E00084E0982E8091E2049091E3042091E50414
:1039F0003091E6042115310509F410C1492F4823FF
:103A00004F3F09F40BC1D090E404A501421B530BB6
:103A1000DD2009F4D4C0F090E704483C510508F0DB
:103A2000AEC021815FE05F1508F46BC0EC2C291358
:103A300013C09081981310C0C1101EC08F2D8F70BD
:103A400080618093E704C4010E94F7168091E70427
:103A5000F8018583E12C50C08F819885A114B104B1
:103A600089F0282F29232F3F69F0E091B10420919C
:103A7000B00436E0CC20E1F08091E70481608093CF
:103A8000E704E8CFCC2031F3F7CF4E2F50E03E9F34
:103A9000F0011124EE54FB4F6181691306C060816F
:103AA000861303C062816111D5CFFA013196E770A8
:103AB000E213EBCF8F8198850E94AC11292F2295BC
:103AC0002F70903248F49F70992311F08823A1F051
:103AD000805E883088F004C0225F2F70223028F08A
:103AE000C8010E94F716ED2C07C09F70992381F33F
:103AF000F8019581903160F78E2D2B96ECE00C94B7
:103B00009C32291312C0908198130FC0C1100DC0B0
:103B1000F582C8010E94F71686E0F801A2EEB4E033
:103B200001900D928A95E1F727C0F801808191817B
:103B30000E94BB11882309F46DC0CC2009F46AC02F
:103B40008091E704803270F08091E2049091E30468
:103B50009A8389831B82BD82AC82FE82CE0101964C
:103B60000E94F71686E0F801A2EEB4E001900D92F3
:103B70008A95E1F70E94741CEE24E394BDCFFFE028
:103B8000FF1550F082EE94E00E94F71686E0F401F3
:103B900011928A95E9F75ECFF80121819213C5CF82
:103BA00090819813C2CFC110C0CFF582C8010E9486
:103BB000F71686E0F40111928A95E9F7DDCF483CCB
:103BC000510520F7CC2031F12181921317C090814B
:103BD000981314C08091E70480FD9ECF803108F4D3
:103BE0009BCF8583807F803F09F493CF8581982F79
:103BF000907F905F8F70892B85838BCFF8018081B8
:103C000091810E94BB118111ADCF8091E704816049
:103C10008093E704C8010E94F716AECFCC20D1F301
:103C2000F801808191810E94BB11882399F39ACF7A
:103C3000A7E1B0E0EEE1FEE10C9489324B8B5C8BA6
:103C4000962F6D8B7E8B8F8B61111092AF041A8A29
:103C500085E0FE017396DE011D9601900D928A9516
:103C6000E1F79F8786E0FE013D96DE011796019001
:103C70000D928A95E1F7CE0107960E94DB1C811117
:103C800031C086E0FE013796DE01119601900D925B
:103C90008A95E1F78F8198852091B0044091B10415
:103CA0006A857B85672BF1F089238F3FD9F030E05F
:103CB000C90101968770992750E084179507E9F0AC
:103CC00096E0929FD001939FB00D1124AE54BB4F4C
:103CD000FE01319601900D929A95E1F78093B00420
:103CE0000E94640316E08091B1049091B00489139E
:103CF00012C06796E3E00C94A5320E944413109220
:103D0000B0041092B10486E0E2EEF4E0DF011D920F
:103D10008A95E9F7E7CF189FC00111248E549B4F75
:103D20000E94DB1C882329F38091B10490E0019666
:103D3000877099278093B104D6CFA8E0B0E0E3EA7A
:103D4000FEE10C9489328091380490913904A0915D
:103D50003A04B0913B04BC01CD010E94630B11E019
:103D6000643671058105910578F10E945C0DDC01D6
:103D7000CB010296A11DB11D89839A83AB83BC83BD
:103D800080912A0190912B01845C9B4F2091290105
:103D9000422F50E0253010F044E050E0BE016F5F4C
:103DA0007F4F0E946B3382E090E00E940532182F13
:103DB000882351F00E94370B6093380470933904C4
:103DC00080933A0490933B04812F2896E3E00C946F
:103DD000A532EF92FF921F93CF93DF93CDB7DEB75B
:103DE00029970FB6F894DEBF0FBECDBF7B0180E0F0
:103DF00090E00E940532182F81111BC010E08091C5
:103E00004C0490914D04A0914E04B0914F04F701E1
:103E100080839183A283B383812F29960FB6F89470
:103E2000DEBF0FBECDBFDF91CF911F91FF90EF900E
:103E3000089580911C01482F50E0882311F041E043
:103E400050E060911D0170911E01645C7B4FCE01BA
:103E500005960E946B338091500490915104A0917B
:103E60005204B0915304BC01CD010E94630B6E83D8
:103E70007F8388879987643671058105910538F4B9
:103E80008DE394E00E948E0C9D818917B9F181E049
:103E900090E00E940532882309F4B0CF809124017C
:103EA000482F50E0853010F044E050E0609125014B
:103EB00070912601645C7B4FCE0101960E946B33AA
:103EC0008DE394E00E948E0C9D81891397CF0E9410
:103ED000370B609350047093510480935204909375
:103EE000530489819A81AB81BC8180934C04909367
:103EF0004D04A0934E04B0934F0481CF80913D04B4
:103F000090913E04A0913F04B091400489839A832C
:103F1000AB83BC83E6CFABE0B0E0E1E9FFE10C941A
:103F2000863286E0E2EAF4E08E010F5F1F4FD8018F
:103F300001900D928A95E1F7809133048F8347E0D9
:103F400050E065E474E0C8010E945E337C0180911A
:103F5000340490913504A0913604B0913704BC012B
:103F6000CD010E94630B688779878A879B87B80198
:103F700088859985AA85BB8584369105A105B105FB
:103F800018F4E114F10401F18091320190913301B0
:103F9000845C9B4F20913101422F50E0283010F07B
:103FA00047E050E00E946B3383E090E00E940532CE
:103FB000882359F00E94370B6093340470933504C2
:103FC000809336049093370481E02B96E6E00C94BE
:103FD000A232A0E0B0E0EFEEFFE10C948532EC01FC
:103FE000FC01EC51FE4F80819091060189238823CA
:103FF00049F1D090A4040091A5041091A304E12EEE
:10400000F12C0E944E33482FC7018C549F4F68E615
:1040100071E00E94C5328E199F0997FD0396959510
:104020008795959587954370612F489F600D112462
:104030007D2D802F0E947906462F672F282FCE01D5
:104040000E94E309CDB7DEB7E7E00C94A1321F93DD
:10405000CF93DF93EC01FC01EC51FE4F80819091F6
:10406000060189238823B1F00E944E33182F0E9445
:104070004E33782F7F7720E8720F08F47FEF612F9F
:104080008091A5040E947906462F672F282FCE0124
:104090000E94E309DF91CF911F910895ADE0B0E058
:1040A000E4E5F0E20C947A32898380910901298158
:1040B000821326C02091A204237030E040910801B1
:1040C00050E081E02417350709F480E08170809387
:1040D00007018091A70490910601981739F0809309
:1040E000060140E060E080E00E94E609398131325B
:1040F00008F047C2E32FF0E0EE56FB4C0C94D932A7
:1041000081E0E4CF80910701882309F435C740E0BE
:1041100060E080E00E94E609809105018F5F809356
:10412000050182E08093390180910701882309F419
:1041300028C72EC7409105018AE0489F802D112491
:104140008D83182F165F1F3208F01EE20E94390D72
:10415000882319F0183108F017E10E94390D8111F8
:1041600005C05D81573110F487E18D836091A30410
:104170007091A4048091A5040E947906062FF72E61
:10418000E82EBD81AB2FB0E0BE83AD83FD81F1177A
:1041900020F0812F0E948F0D97C1ED81FE81EC519F
:1041A000FE4F8081909106018923882339F02E2DBE
:1041B000402F6F2D8D819E810E94E309ED81FE814C
:1041C0003196FE83ED83E2CF209105018AE0289F9E
:1041D000802D11248D83182F165F1F3208F01EE2E8
:1041E0000E94390D882319F0183108F017E10E9458
:1041F000390D811105C03D81373110F447E14D8300
:104200005091A3045987C090A404D090A504652FB1
:104210007C2D8D2D0E947906062FF72EE82E809199
:10422000A6046985680F7C2D8D2D0E947906D62EF7
:10423000C72EB82E9D81892F90E09E838D83BD81EE
:10424000B11708F0A6CFED81FE81EC51FE4F9081B1
:10425000809106018923882361F02B2D4D2D6C2D33
:1042600090FD03C02E2D402F6F2D8D819E810E94C9
:10427000E309AD81BE811196BE83AD83E0CFE091AD
:1042800005018AE0E89F802D11248D83182F165F89
:104290001F3208F01EE20E94390D882319F01831F0
:1042A00008F017E10E94390D811105C0FD81F73139
:1042B00010F427E12D83F090A404E090A504209150
:1042C000A60400E4029F012D11245D81452F50E0DA
:1042D0005E834D839D81911708F05BCFED81FE8158
:1042E000EC51FE4F80819091060189238823C9F00B
:1042F000ED81FE81EE0FFF1FE05BFE4F81AD8295E9
:104300008F706091A304809F600D11247F2D8E2DEE
:104310000E947906462F672F282F8D819E810E944B
:10432000E3098D819E8101969E838D83D3CFA091D9
:1043300005018AE0A89F802D11248D83182F165F18
:104340001F3208F01EE20E94390D882319F018313F
:1043500008F017E10E94390D811105C0BD81B73108
:1043600010F4E7E1ED830091A404D090A50430910E
:10437000A60420E4239F212D11245D81452F50E0C8
:104380005E834D83E22EF12C9D81911708F001CFC1
:10439000ED81FE81EC51FE4F8081909106018923D1
:1043A0008823F9F0ED81FE81EE0FFF1FE05BFE4FE9
:1043B00020AD2E9DC0012F9D900D1124B5E0959547
:1043C0008795BA95E1F76091A304680F702F8D2D42
:1043D0000E947906462F672F282F8D819E810E948B
:1043E000E3098D819E8101969E838D83CDCFA0911F
:1043F00005018AE0A89F802D11248D83182F165F58
:104400001F3208F01EE20E94390D882319F018317E
:1044100008F017E10E94390D811105C0BD81B73147
:1044200010F4E7E1ED830091A304F091A404F9876F
:10443000F090A5046091A6046695669566958091B6
:10444000E7039091E8030E9401070E9450078058FB
:1044500087FD8195880F282F3F2D239F212D112423
:10446000822F602F79850E947906062FF72EE82E7D
:104470005D81452F50E05E834D839D81911708F04B
:1044800088CEED81FE81EC51FE4F80819091060136
:104490008923882339F02E2D402F6F2D8D819E8109
:1044A0000E94E3098D819E8101969E838D83E5CFD5
:1044B0008EE997E00E94230F07C08AEC97E0FACFBD
:1044C00088EF97E00E94D30D909105019F5F909334
:1044D000050181115DC582E080933901809107015A
:1044E000811156C5E981EE2322CE86E198E0EACF1C
:1044F00085E398E00E943D0EE7CF80E598E0FACF93
:104500008BE698E0D7CF8DE698E0D4CF86E798E0A9
:10451000D1CF8FE798E0CECF88E998E0EBCF89EA5A
:1045200098E0D0CF82ED98E0CDCF83EE98E0E2CF57
:1045300087EF98E00E94B60EC7CF85E299E0FACFE8
:1045400084E599E0F7CF80910701811123C0609144
:10455000A60420E1620F08F46FEF8091E7039091C9
:10456000E8030E9401076AE070E00E94B132892BE3
:1045700041F40E944E336EE270E00E94C5320E9408
:10458000E91F809105018F5F8093050182E0809390
:104590003901FEC4A09105018AE0A89F802D112455
:1045A0008D83182F165F1F3208F01EE20E94390D0E
:1045B000882319F0183108F017E10E94390D811194
:1045C00005C0BD81B73110F4E7E1ED833D81232FB4
:1045D00030E03E832D83E12EF12C8D819E818E155E
:1045E0009F050CF0D6CD8D819E810E94E91F4D81E3
:1045F0005E814F5F5F4F5E834D83EFCF80910701F8
:1046000081111CC06091A60420E1620F08F46FEFD5
:104610008091E7039091E8030E94010765E070E054
:104620000E94B132892B09F0ACCF0E944E336EE26A
:1046300070E00E94C5320E942720A3CF909105010F
:104640008AE0989F802D11248D83182F165F1F32CA
:1046500008F01EE20E94390D882319F0183108F085
:1046600017E10E94390D811105C0AD81A73110F409
:10467000B7E1BD83FD81EF2FF0E0FE83ED83E12EF6
:10468000F12C4D815E814E155F050CF082CD8D8140
:104690009E810E9427202D813E812F5F3F4F3E83C8
:1046A0002D83EFCF509105018AE0589F802D112472
:1046B0008D83182F165F1F3208F01EE20E94390DFD
:1046C000882319F0183108F017E10E94390D811183
:1046D00005C08D81873110F497E19D83F090A4048B
:1046E0000091A504A091A304A9876091A6046695F2
:1046F000669566958091E7039091E8030E94010713
:104700000E945007805887FD8195880F282F3CE034
:10471000239F212D11246985620F7F2D802F0E94F8
:104720007906062FF72EE82EFD81EF2FF0E0FE83AD
:10473000ED833D81311708F02CCDED81FE81EC51E8
:10474000FE4F8081909106018923882339F02E2D18
:10475000402F6F2D8D819E810E94E3092D813E8126
:104760002F5F3F4F3E832D83E4CF8DE899E0A2CEAB
:1047700083EB99E09FCE4091140350911503609113
:104780001603709117038091E7039091E803A091BD
:10479000E903B091EA0384179507A607B70708F461
:1047A000F0CE0E943B07182F0E943B079EE2891B18
:1047B000F0F7890F482F50E05A834983FA01EC51F2
:1047C000FE4F8081909106018923882309F4DBC381
:1047D00020E040E060E011FD13C00E943B07182F6D
:1047E0000E943B07782F76952FE7720F08F47FEF32
:1047F000612F8091A5040E947906462F672F282FEC
:1048000089819A810E94E3092091A60430E1230F57
:1048100008F42FEF60E1822F90E00E940107BC01B5
:1048200084EF91E00E94B1328091E7039091E80318
:10483000A091E903B091EA03860F971FA11DB11D56
:104840008093140390931503A0931603B09317035A
:1048500098CE4091A2035091A3036091A40370915C
:10486000A5038091E7039091E803A091E903B0913B
:10487000EA0384179507A607B70708F482CE80914C
:104880000701811129C0509105018AE0589F802DB0
:1048900011248D837AE0F72EF80E8EE28F1510F436
:1048A0006EE2F62E0E94390D811156C00E94390D1C
:1048B000811105C0FD81F73110F427E12D833D8181
:1048C000232F30E03E832D838901000F111F020F3B
:1048D000131F085E1C4F63C040E060E080E00E9450
:1048E000E60948E1E42E43E0F42E00E010E05FE743
:1048F000C52E0E943B0781FF10C0D7011C92119664
:104900001C92119712961C920F5F1F4FB3E0EB0E93
:10491000F11C0E32110569F7B6CF0E943B07D82E65
:104920000E943B07782F76952C2D720F08F47FEFAD
:10493000A801440F551F400F511F485E5C4F5E8316
:104940004D836D2D8091A5040E947906AD81BE81B5
:104950006D937D938C93D8CFE7E1EF1508F0A6CF48
:1049600027E1F22EA3CFED81FE81EC51FE4F808135
:10497000909106018923882359F0D80112962C9131
:1049800012974C9111966C918D819E810E94E30942
:104990000D5F1F4FED81FE813196FE83ED834D81CA
:1049A0004F1508F38F2D0E948F0D811141C08F2D5F
:1049B0008150990B8C01DC01AA0FBB1FBE83AD8314
:1049C000AD01400F511FF11002C040E050E06BE11B
:1049D00073E088E193E00E9474330E943B0781FFFB
:1049E00029C0ED81FE81E00FF11FE85EFC4F1082CF
:1049F000118212820E94C4096D837E838F839887FF
:104A00008091E7039091E803A091E903B091EA0354
:104A10002D813E814F815885820F931FA41FB51FA2
:104A20008093A2039093A303A093A403B093A50340
:104A30008F2DB0CB0E943B07E82E0E943B07782FBA
:104A400076952FE7720F08F47FEF2D813E81200FBE
:104A5000311F285E3C4F3E832D836E2D8091A5042F
:104A60000E947906AD81BE816D937D938C93C2CFF8
:104A70004091DE035091DF036091E0037091E10308
:104A80008091E7039091E803A091E903B091EA03D4
:104A900084179507A607B70708F473CD809107011F
:104AA000882329F040E060E080E00E94E609609100
:104AB000A3047091A4048091A5040E947906662E37
:104AC000072F782E46EA53E05A834983E0E5EE2E1D
:104AD000E1E0FE2EF6E0CF2ED12CD7018C9190E0B4
:104AE000E981FA81208140E060E0222319F0272D3E
:104AF000462D602F0E94E309A981BA8111962C915D
:104B000011972C93F701818190E0211104C020E0DE
:104B100040E060E003C0272D462D602F0E94E3098E
:104B2000A981BA8112968C91129711968C93560195
:104B300016E0F501EA55FC4F4F01F501E05BFE4F31
:104B4000808190E0D4012C91222309F469C0272DA3
:104B5000462D602F0E94E309F40131978081F40112
:104B600080831150F1E0AF1AB108133011F7D7016B
:104B700013968C9190E0E981FA812381222309F434
:104B800053C0272D462D602F0E94E309D7011296AE
:104B90008C9190E0E981FA812281222309F448C0B6
:104BA000272D462D602F0E94E3090E943B0783704A
:104BB00091E0811190E0A981BA8112969C9312979D
:104BC00013969C9313971796BA83A983B7E0EB0EBD
:104BD000F11CE7E0CE0ED11CFEE3CF16D10409F0A4
:104BE0007CCF0E94C40969837A838B839C838091E4
:104BF000E7039091E803A091E903B091EA032981CA
:104C00003A814B815C81820F931FA41FB51F809353
:104C1000DE039093DF03A093E003B093E103B1CCF4
:104C200020E040E060E096CF20E040E060E0ACCFE4
:104C300020E040E060E0B7CF309105018AE0389F86
:104C4000802D11248D837AE0872E880E182D48E35D
:104C5000481508F418E380910701882361F040E0CB
:104C600060E080E00E94E609EDEEF3E088E3DF011A
:104C70001D928A95E9F780910501811117C08091F5
:104C8000E3039091E4030E94540B9C0181E02931DD
:104C9000310508F480E08093E2032931310530F0DA
:104CA0000E94030B9093E4038093E303FD81EF2FB5
:104CB000F0E0FE83ED83C12ED12C47E0742E55E544
:104CC000552E6AEA662E442443948D819E818C156C
:104CD0009D053CF081E097E3981508F0F5CB80E066
:104CE000F3CBAD80BE8027E0A222BB240D811E81C4
:104CF00033E0159507953A95E1F77A9CC0017B9CC6
:104D0000900D11249C0123513C4FF901E00FF11F3C
:104D10009080805B9E4FFC01E00FF11F80818F3FF0
:104D200069F1E82EF12CF701EC51FE4F8081909152
:104D300006018923882311F1692D352D631B08F4A1
:104D400060E07091A404262D492D240F08F42FEF64
:104D50003091A504822F880F820F8E5F582F539FAA
:104D6000512D1124852F962D961B692F0E947906AF
:104D7000462F672F282FC7010E94E3098091E20385
:104D8000882381F0292D342D231B08F420E07A9C00
:104D9000C0017B9C900D112483519C4FFC01E00FBE
:104DA000F11F20834D815E814F5F5F4F5E834D8396
:104DB0008CCF3090A504E32CF12CD701AA0FBB1F98
:104DC000AE0DBF1DB695A795B695A795BD87AC87C7
:104DD000BC85B9878FEF90E0B7010E94C5326D8323
:104DE00080910701882371F040E060E080E00E943C
:104DF000E609EDEEF3E088E3DF011D928A95E9F71D
:104E00001092E6038091E5038F5F8093E5038DEEBA
:104E1000C82E83E0D82EA12CB12CF7012C853D851E
:104E2000E21BF30BFB87EA8725018601212C809189
:104E3000E6038229A201405B5E4F4A01D801179622
:104E40003D01F20137962F0181110FC00E944E33B0
:104E50008535954054F4D6013C92D401EC91EF3F56
:104E6000B1F4830122242394E2CFF80180818823C6
:104E700051F0831540F49091E503FD81F91303C0CF
:104E80008150D8018C93D401EC91EF3FE9F0D80127
:104E90008C91F0E0282F30E0B985B81708F05DC09C
:104EA0004C855D85241B350B249FC001259F900DEB
:104EB000349F900D11246A857B850E94B132262F84
:104EC000432DCF010E94E3092394830158E025126A
:104ED000AECF8FEFA81AB80A9FEFC91AD90AA7E078
:104EE000AA16B10409F0A0CF8091E503BD81B813E3
:104EF00002C01092E5038091E6038F5F8093E60382
:104F0000909105018D3108F447C01092E60327E126
:104F100034E087E09FEF930DB901EDEEF3E08730C9
:104F200021F441A9341201C091ABDB014D91BD01C7
:104F3000431540F08D0101501109D8019C93DB010C
:104F400016963C923196B3E0E43FFB0741F781505F
:104F5000275031098111E0CFC2CE2E9DC0012F9D77
:104F6000900D3E9D900D11246C857D850E94B1327F
:104F7000462F20E060E0A5CF809105018F5F8093F0
:104F8000050183E004CB809105018F5F80930501CB
:104F90002D96E2E10C94963281E0890FF5CACF9309
:104FA000C82F882391F08091330481110EC00E9494
:104FB0004E20109209018091A20483708093080111
:104FC0000E947A0F83E080933901C0933304CF911C
:104FD0000895A0E1B0E0EFEEF7E20C947D321A8282
:104FE0001982FE01339686E0DF011D928A95E9F76A
:104FF0008EE1E82E82E0F82E8E010F5F1F4F92E2C5
:10500000C92E92E0D92E3801AA24A394B12C39E2FA
:10501000832E32E0932EF70181917F018F3F09F4B7
:1050200041C0F894E82FE295EF70F0E021A18F7075
:10503000A50102C0440F551F8A95E2F7CA01922FBD
:10504000982B91A392A18095892382A3789400C084
:10505000E2E2F2E031E0512C21912F3F09F44CC003
:10506000A22FA295AF70A05EB0E08C9190E02F705F
:1050700002C0959587952A95E2F7817081113CC011
:10508000832F582A330F8E169F0631F7F701319779
:1050900080818F3F11F00E945A0550EA5A95F1F72E
:1050A000D8015C920F5F1F4FCE14DF0409F0B3CF1D
:1050B00048E050E0B3018BE694E00E945E337C014F
:1050C00010916A04892BD1F088E0F301ABE6B4E0DB
:1050D00001900D928A95E1F781E0809358040E9437
:1050E000030B80935604909357040E94540B05972A
:1050F00008F069C081E0B6C080E0C3CF8091580459
:10510000811158C00E94390DE0916A0481116DC06F
:10511000F0E0EE59FB4F80819181A281B3818093B1
:105120003D0490933E04A0933F04B09340048DE36C
:1051300094E00E948E0C80933C04C0904104D09077
:105140004204E0904304F090440480915C04909108
:105150005D04A0915E04B0915F04C816D906EA060A
:10516000FB06D1F0C0925C04D0925D04E0925E0434
:10517000F0925F040E94390D81110EC00E94370B1E
:10518000C61AD70AE80AF90AC0927304D0927404C6
:10519000E0927504F092760486E0E5E4F4E0A2EA99
:1051A000B4E001900D928A95E1F780914B040E9442
:1051B000CF2757C080915604909157040E94540BFA
:1051C000059708F49FCFA12FB0E0AE59BB4F84E004
:1051D000EBE6F4E001900D928A95E1F71092580405
:1051E000E114F10409F086CF8DCF1A8619861C864A
:1051F0001B860E2F10E00E591B4F809159048A30E8
:10520000A8F57E01B9E0EB0EF11C49EE5EE1B701B5
:10521000C8010E9425106701882309F44BC04DE99D
:105220005EE1B701C8010E942510882309F442C03D
:105230004BE85FE1B701C8010E9425108823D1F136
:10524000109259048091610490E044E050E0B6016E
:105250008E599B4F0E945E3321E020936004892B7E
:10526000D9F480E06096EFE00C94993280915A0472
:1052700090915B040E94540B843F914010F6809102
:105280006004882371F3FE01399684E0DF011D92EA
:105290008A95E9F710926004E0916104F0E0EE591C
:1052A000FB4F89859A85AB85BC8580839183A283DA
:1052B000B38320CF809159048F3F39F40E94030BB0
:1052C00090935B0480935A04DACF8F5F80935904E4
:1052D0008A3008F4B7CFF2CF46E050E06CE170E0DE
:1052E00082EA94E00E94A4331092A1040895E2EAB5
:1052F000F4E085E3808380913E0190913F01A0918D
:10530000400181839283A3838FE784838FEF85831A
:105310000E946C290895A8E0B0E0E1E9F9E20C945C
:105320008A320E945C0D282F609310037093110342
:1053300080931203909313038091330481111EC054
:105340003091A204832F8370882319F0832F8695D0
:105350008695309139013230E1F090F4311116C068
:10536000109205016093E7037093E8032093E9032B
:105370009093EA0381E08093390104C080E0E9CF93
:10538000333091F02896E2E00C94A6320E944E2031
:10539000F9CF809309018091A20483708093080162
:1053A0000E947A0F83E0E7CF8091A10481110E94CF
:1053B0006C298091E7039091E803A091E903B091F3
:1053C000EA0389839A83AB83BC830E94390D8823C7
:1053D00089F069817A818B819C810E94630B462FC1
:1053E000572FBC01403151056105710558F21092EB
:1053F0003901C8CF0E945C0DAB01BC0189819A8143
:10540000AB81BC81481B590B6A0B7B0BEBCFCDB733
:10541000DEB7A4970FB6F894DEBF0FBECDBF85B739
:10542000806885BF85B7806885BF84B7877F84BF64
:105430000FB6F894A8958091600088618093600011
:10544000109260000FBE80E890E00FB6F894809351
:105450006100909361000FBE88E595E090935B0238
:1054600080935A020E94410C0E94DE0C8091E2005F
:1054700084608093E200789480915404882399F0AA
:105480008091E9001091EC001795112717958F7006
:10549000182B1092E9008091E80083FD0E946613AA
:1054A0001F701093E90082E084BD93E095BD9AEFF0
:1054B00097BD80936E001092730410927404109242
:1054C0007504109276040E940B11811102C00E9493
:1054D000ED100E94390D80930C010E94390D81114D
:1054E0000E94173180910C0180910C0191E0892775
:1054F000880F880F80936A0494E0981B909361044E
:1055000084E90E945A0586E60E945A0587E90E94AE
:105510005A0586EC0E945A0502E212E059E2E52E95
:1055200052E0F52ED8018D918D018F3F11F00E9430
:105530005A05E016F106B1F788E0E2E6F4E0DF0193
:10554000082F1D920A95E9F7EBE6F4E0DF011D92C2
:105550008A95E9F780E090E00E949E33883E9E4F56
:1055600021F40E940B11811102C00E948C1682E06E
:1055700090E00E949633809325040E94FD10909342
:10558000AE048093AD040E94E927EFE3FCE9319774
:10559000F1F700C000000E94E9278091620480FFBB
:1055A00008C06FEF7FEF80E090E00E94D2330E944E
:1055B000830B83E090E00E9496330E94201680E0E7
:1055C00090E00E949E33883E9E4F21F40E940B1172
:1055D000811104C00E948C160E94772946E050E099
:1055E0006CE170E082EA94E00E9486331092A1049C
:1055F0008091A204843010F40E9477290E94390D12
:10560000811102C00E941A318DE091E090937804DC
:105610008093770488E1A82EB12C90E4492E2AE6E5
:10562000622E24E0722E30E1F32E42E1542EEE245D
:10563000EA9480915404853079F480915404853043
:1056400009F43EC00E9444130E94C20D80E00E94F3
:10565000CF2780E00E94CF270E94E92781110E9476
:10566000370BA2E6B4E0E6E2F4E0C12CD12C8D9039
:105670008191881571F08825082F0170902E0111F5
:10568000A5C191E011E0190D992E990C173009F080
:105690006AC02FEFC21AD20A38E0C316D10439F714
:1056A000E982EA821B820E94030B8160782F9D832E
:1056B0008C8349815A816B81892F0E94181E0AC1EF
:1056C00080915404843049F181E00E94CF270E94E8
:1056D0008B2981E00E94CF271092EB030FB6F8943C
:1056E000A895A09260000FBE4092600083B7817FB2
:1056F000846083BF83B7816083BF7894889583B7C4
:105700008E7F83BF0FB6F894A89580916000886162
:1057100080936000109260000FBE8091EC0388239C
:1057200009F48BCF0E94E927E2E6F4E08191811130
:1057300004C06E167F06D1F780CFF9BC59BC09B4FE
:1057400000FEFDCF8091D8008F7D8093D80080919E
:10575000E00082608093E0008091E00081FDFCCF5A
:105760000E9444136ACF982F9921992309F430C1DC
:105770003C2C0E94390D8823A1F01983CA8289200C
:1057800081E0811001C080E08B830E94030B816067
:10579000782F9D838C8349815A816B81892F0E9448
:1057A000181EF601EA5DFB4F808189258083809178
:1057B000A2048C7F8C3709F08DC08FEF830D21E020
:1057C000230DAFEFA10F91E0910F112381F037E08E
:1057D0003C9DF0013D9DF00D1124E351FC4FEA0F7B
:1057E000F11D30814F2D340F08F43FEF3083412FEE
:1057F00050E077E0972E9C9CB0019D9C700D112489
:1058000063517C4FFB01E40FF51FB08100E2D02E05
:105810000B2F3D2D030F08F40FEF0083973009F491
:1058200016C3FB01E90FF11D60817F2D670F08F49E
:105830006FEF6083283029F1A11708F40BC3622FA2
:1058400070E0FA01929EE00DF11D1124E351FC4F2E
:1058500020810F2D200F08F42FEF2083E7E0E69F33
:105860009001E79F300D112423513C4FF901E90FBE
:10587000F11D20813DE0230F08F42FEF20838315D5
:1058800048F5A11770F467E0869FF0011124E351F9
:10589000FC4FEA0FF11D20813DE0230F08F42FEFAC
:1058A000208377E0879FF0011124E351FC4FDF0153
:1058B000A40FB51F2C910F2D200F08F42FEF2C9360
:1058C000973041F0E90FF11D20813DE0230F08F4EE
:1058D0002FEF20830E94390D0E948B2986E0E9E991
:1058E000F4E0DE01119601900D928A95E1F7109295
:1058F0009B0410929C0410929D0410929E048B8134
:105900009C81892B882379F0809130049091310417
:105910000E94540B9C018091980481115CC02B3033
:10592000310508F05EC08D819E81892B882379F036
:1059300080912E0490912F040E94540B9C01809121
:10594000970481118EC02B30310508F090C046E0DD
:1059500050E0BE016F5F7F4F89E994E00E945E33A3
:10596000892B61F480919B0490919C04892B9091E8
:105970009D04892B90919E04892B81110E940F0B0D
:1059800086E0FE013196A9E9B4E001900D928A9576
:10599000E1F70E94C20D9091320489138093320482
:1059A00080915404843009F044CE83E08093E90070
:1059B0008091E80082FF3DCE8091E80085FD97C090
:1059C0008091E8008B778093E80033CE10E0D0CE52
:1059D000992D912E57CE2531310508F4A4CF8F3F54
:1059E00019F08F5F809398041B81112359F00E9456
:1059F000730591E011160CF09FEF899F802D112403
:105A000080939B041C81112359F00E94730591E03F
:105A100011160CF09FEF899F802D112480939C0418
:105A200030919B04332309F47ECF20919C042223E0
:105A300009F479CF45EB3403C0011124892F91116A
:105A400001C081E080939B0465EB26039001112443
:105A5000332319F030939C0466CF81E080939C043B
:105A600062CF2135310508F472CF8F3F19F08F5F77
:105A7000809397041D81112359F00E94930591E0B2
:105A800011160CF09FEF899F802D112480939D04A7
:105A90001E81112359F00E94930591E011160CF01C
:105AA0009FEF899F802D112480939E0430919D0447
:105AB000332309F44CCF20919E04222309F447CFCD
:105AC00075EB3703C0011124892F911101C081E0CA
:105AD00080939D0405EB200390011124332319F0DA
